{
  "contractName": "GNS",
  "abi": [
    {
      "constant": true,
      "inputs": [],
      "name": "governor",
      "outputs": [
        {
          "name": "",
          "type": "address"
        }
      ],
      "payable": false,
      "stateMutability": "view",
      "type": "function"
    },
    {
      "constant": true,
      "inputs": [
        {
          "name": "",
          "type": "bytes32"
        }
      ],
      "name": "domains",
      "outputs": [
        {
          "name": "owner",
          "type": "address"
        },
        {
          "name": "subgraphID",
          "type": "bytes32"
        }
      ],
      "payable": false,
      "stateMutability": "view",
      "type": "function"
    },
    {
      "constant": false,
      "inputs": [
        {
          "name": "_newGovernor",
          "type": "address"
        }
      ],
      "name": "transferGovernance",
      "outputs": [
        {
          "name": "",
          "type": "bool"
        }
      ],
      "payable": false,
      "stateMutability": "nonpayable",
      "type": "function"
    },
    {
      "inputs": [
        {
          "name": "_governor",
          "type": "address"
        }
      ],
      "payable": false,
      "stateMutability": "nonpayable",
      "type": "constructor"
    },
    {
      "anonymous": false,
      "inputs": [
        {
          "indexed": true,
          "name": "topLevelDomainHash",
          "type": "bytes32"
        },
        {
          "indexed": true,
          "name": "owner",
          "type": "address"
        },
        {
          "indexed": false,
          "name": "domainName",
          "type": "string"
        }
      ],
      "name": "DomainAdded",
      "type": "event"
    },
    {
      "anonymous": false,
      "inputs": [
        {
          "indexed": true,
          "name": "domainHash",
          "type": "bytes32"
        },
        {
          "indexed": true,
          "name": "newOwner",
          "type": "address"
        }
      ],
      "name": "DomainTransferred",
      "type": "event"
    },
    {
      "anonymous": false,
      "inputs": [
        {
          "indexed": true,
          "name": "topLevelDomainHash",
          "type": "bytes32"
        },
        {
          "indexed": true,
          "name": "registeredHash",
          "type": "bytes32"
        },
        {
          "indexed": false,
          "name": "subdomainName",
          "type": "string"
        }
      ],
      "name": "SubgraphCreated",
      "type": "event"
    },
    {
      "anonymous": false,
      "inputs": [
        {
          "indexed": true,
          "name": "domainHash",
          "type": "bytes32"
        },
        {
          "indexed": true,
          "name": "subgraphID",
          "type": "bytes32"
        }
      ],
      "name": "SubgraphIDUpdated",
      "type": "event"
    },
    {
      "anonymous": false,
      "inputs": [
        {
          "indexed": true,
          "name": "domainHash",
          "type": "bytes32"
        }
      ],
      "name": "DomainDeleted",
      "type": "event"
    },
    {
      "anonymous": false,
      "inputs": [
        {
          "indexed": true,
          "name": "account",
          "type": "address"
        },
        {
          "indexed": true,
          "name": "ipfsHash",
          "type": "bytes32"
        }
      ],
      "name": "AccountMetadataChanged",
      "type": "event"
    },
    {
      "anonymous": false,
      "inputs": [
        {
          "indexed": true,
          "name": "domainHash",
          "type": "bytes32"
        },
        {
          "indexed": true,
          "name": "ipfsHash",
          "type": "bytes32"
        }
      ],
      "name": "SubgraphMetadataChanged",
      "type": "event"
    },
    {
      "anonymous": false,
      "inputs": [
        {
          "indexed": true,
          "name": "_from",
          "type": "address"
        },
        {
          "indexed": true,
          "name": "_to",
          "type": "address"
        }
      ],
      "name": "GovernanceTransferred",
      "type": "event"
    },
    {
      "constant": false,
      "inputs": [
        {
          "name": "_domainName",
          "type": "string"
        }
      ],
      "name": "registerDomain",
      "outputs": [],
      "payable": false,
      "stateMutability": "nonpayable",
      "type": "function"
    },
    {
      "constant": false,
      "inputs": [
        {
          "name": "_topLevelDomainHash",
          "type": "bytes32"
        },
        {
          "name": "_subdomainName",
          "type": "string"
        },
        {
          "name": "_ipfsHash",
          "type": "bytes32"
        }
      ],
      "name": "createSubgraph",
      "outputs": [],
      "payable": false,
      "stateMutability": "nonpayable",
      "type": "function"
    },
    {
      "constant": false,
      "inputs": [
        {
          "name": "_domainHash",
          "type": "bytes32"
        },
        {
          "name": "_subgraphID",
          "type": "bytes32"
        }
      ],
      "name": "updateDomainSubgraphID",
      "outputs": [],
      "payable": false,
      "stateMutability": "nonpayable",
      "type": "function"
    },
    {
      "constant": false,
      "inputs": [
        {
          "name": "_domainHash",
          "type": "bytes32"
        }
      ],
      "name": "deleteSubdomain",
      "outputs": [],
      "payable": false,
      "stateMutability": "nonpayable",
      "type": "function"
    },
    {
      "constant": false,
      "inputs": [
        {
          "name": "_domainHash",
          "type": "bytes32"
        },
        {
          "name": "_newOwner",
          "type": "address"
        }
      ],
      "name": "transferDomainOwnership",
      "outputs": [],
      "payable": false,
      "stateMutability": "nonpayable",
      "type": "function"
    },
    {
      "constant": false,
      "inputs": [
        {
          "name": "_ipfsHash",
          "type": "bytes32"
        }
      ],
      "name": "changeAccountMetadata",
      "outputs": [],
      "payable": false,
      "stateMutability": "nonpayable",
      "type": "function"
    },
    {
      "constant": false,
      "inputs": [
        {
          "name": "_domainHash",
          "type": "bytes32"
        },
        {
          "name": "_ipfsHash",
          "type": "bytes32"
        }
      ],
      "name": "changeSubgraphMetadata",
      "outputs": [],
      "payable": false,
      "stateMutability": "nonpayable",
      "type": "function"
    }
  ],
  "bytecode": "0x608060405234801561001057600080fd5b50604051602080610c388339810180604052602081101561003057600080fd5b505160008054600160a060020a03909216600160a060020a0319909216919091179055610bd6806100626000396000f3fe608060405234801561001057600080fd5b50600436106100bb576000357c010000000000000000000000000000000000000000000000000000000090048063a5cad08a11610083578063a5cad08a146101cf578063c722f1771461023f578063d38bfff41461027f578063e3f9ab70146102b9578063ef201c18146102d6576100bb565b80630c340a24146100c057806317d68d06146100e45780631dc9a3b9146101095780636a444dc1146101355780638d746b70146101ac575b600080fd5b6100c86102f3565b60408051600160a060020a039092168252519081900360200190f35b610107600480360360408110156100fa57600080fd5b5080359060200135610302565b005b6101076004803603604081101561011f57600080fd5b5080359060200135600160a060020a0316610402565b6101076004803603606081101561014b57600080fd5b8135919081019060408101602082013564010000000081111561016d57600080fd5b82018360208201111561017f57600080fd5b803590602001918460018302840111640100000000831117156101a157600080fd5b91935091503561052d565b610107600480360360408110156101c257600080fd5b5080359060200135610754565b610107600480360360208110156101e557600080fd5b81019060208101813564010000000081111561020057600080fd5b82018360208201111561021257600080fd5b8035906020019184600183028401116401000000008311171561023457600080fd5b5090925090506107fb565b61025c6004803603602081101561025557600080fd5b5035610937565b60408051600160a060020a03909316835260208301919091528051918290030190f35b6102a56004803603602081101561029557600080fd5b5035600160a060020a031661095c565b604080519115158252519081900360200190f35b610107600480360360208110156102cf57600080fd5b50356109f6565b610107600480360360208110156102ec57600080fd5b5035610a26565b600054600160a060020a031681565b6000828152600160205260409020548290600160a060020a031633146103775760408051600080516020610b67833981519152815260206004820152601b60248201527f4f6e6c7920646f6d61696e206f776e65722063616e2063616c6c2e0000000000604482015290519081900360640190fd5b8115156103bd57604051600080516020610b67833981519152815260040180806020018281038252603a815260200180610b2d603a913960400191505060405180910390fd5b600083815260016020819052604080832090910184905551839185917f1918b22a6d09da6e8b58934c9435bb2957a0f83c694027f1f37b54185e8b06a59190a3505050565b6000828152600160205260409020548290600160a060020a031633146104775760408051600080516020610b67833981519152815260206004820152601b60248201527f4f6e6c7920646f6d61696e206f776e65722063616e2063616c6c2e0000000000604482015290519081900360640190fd5b600160a060020a03821615156104c657604051600080516020610b678339815191528152600401808060200182810382526035815260200180610af86035913960400191505060405180910390fd5b600083815260016020526040808220805473ffffffffffffffffffffffffffffffffffffffff1916600160a060020a0386169081179091559051909185917f526d3ede5b34aceac4e5820c0e9730fc09a7c9135c20ff6ac2522628413eb3839190a3505050565b6000848152600160205260409020548490600160a060020a031633146105a25760408051600080516020610b67833981519152815260206004820152601b60248201527f4f6e6c7920646f6d61696e206f776e65722063616e2063616c6c2e0000000000604482015290519081900360640190fd5b6000808585604051602001808383808284376040805191909301818103601f19018252909252508051602090910120935050507fc5d2460186f7233c927e7db2dcc703c0e500b653ca82273b7bfad8045d85a4708214159050610607578691506106bc565b6040805160208082018490528183018a9052825180830384018152606090920183528151918101919091206000818152600190925291902054909250600160a060020a03161561069057604051600080516020610b678339815191528152600401808060200182810382526024815260200180610b876024913960400191505060405180910390fd5b6000828152600160205260409020805473ffffffffffffffffffffffffffffffffffffffff1916331790555b81877f4a2eaceedbd90e2cdab83e53c074d4987c9d55008d5923b6b685615e6dd8171b888860405180806020018281038252848482818152602001925080828437600083820152604051601f909101601f19169092018290039550909350505050a3604051849083907fba178fea2b2a0da9245d1ca0f08e3939a15603598e172c4c13449f36a41f6a0090600090a350505050505050565b6000828152600160205260409020548290600160a060020a031633146107c95760408051600080516020610b67833981519152815260206004820152601b60248201527f4f6e6c7920646f6d61696e206f776e65722063616e2063616c6c2e0000000000604482015290519081900360640190fd5b604051829084907fba178fea2b2a0da9245d1ca0f08e3939a15603598e172c4c13449f36a41f6a0090600090a3505050565b60008282604051602001808383808284376040805191909301818103601f1901825283528051602091820120600081815260019092529290205491955050600160a060020a03161592506108a19150505760408051600080516020610b67833981519152815260206004820152601860248201527f446f6d61696e20697320616c7265616479206f776e65642e0000000000000000604482015290519081900360640190fd5b600081815260016020908152604091829020805473ffffffffffffffffffffffffffffffffffffffff19163390811790915582518281529182018590529183917fed90ece6faf918d7ecf69f4ec4db7f96b3eb8ac536b7bdc46e507523eab90905918791879181908101848480828437600083820152604051601f909101601f19169092018290039550909350505050a3505050565b60016020819052600091825260409091208054910154600160a060020a039091169082565b60008054600160a060020a031633146109c45760408051600080516020610b67833981519152815260206004820152601760248201527f4f6e6c7920476f7665726e6f722063616e2063616c6c2e000000000000000000604482015290519081900360640190fd5b5060008054600160a060020a03831673ffffffffffffffffffffffffffffffffffffffff199091161790556001919050565b604051819033907fc4df041d25ce185716aff03205e2861e0ca951e1f2eaae5b77fb57996481996490600090a350565b6000818152600160205260409020548190600160a060020a03163314610a9b5760408051600080516020610b67833981519152815260206004820152601b60248201527f4f6e6c7920646f6d61696e206f776e65722063616e2063616c6c2e0000000000604482015290519081900360640190fd5b6000828152600160208190526040808320805473ffffffffffffffffffffffffffffffffffffffff191681559091018290555183917f5339054985a591175de3988181fcbc0672415783739761dfb850a01876975db291a2505056fe496620796f752077616e7420746f20726573657420746865206f776e65722c2063616c6c2064656c657465537562646f6d61696e2e496620796f752077616e7420746f2072657365742074686520737562677261706849442c2063616c6c2064656c657465537562646f6d61696e2e08c379a000000000000000000000000000000000000000000000000000000000536f6d656f6e6520616c7265616479206f776e73207468697320737562646f6d61696e2ea165627a7a72305820e0a6d766a21ab1a78166ff4077ceba06ef739c3c135fc9664a3b8ce08b5bbfff0029",
  "source": "pragma solidity ^0.5.2;\n\nimport \"./Governed.sol\";\n\ncontract GNS is Governed {\n\n    /*\n    * @title Graph Name Service (GNS) contract\n    *\n    * @author Bryant Eisenbach\n    * @author Reuven Etzion\n    * @author Ashoka Finley\n    * @notice Contract Specification:\n    *\n    * Subgraph IDs : Subgraph definitions are immutable, even though the actual\n    * data ingested may grow -- each subgraph manifest is hashed in its IPLD\n    * canonical serialized form, to produce a unique Id. Nodes in the peer-to-peer\n    * network use this Id to communicate who is indexing and caching what data, as\n    * well as route queries through the network. The self-certifying nature of\n    * subgraph IDs also make them useful for providing attestations and filing disputes.\n    *\n    * Domains : Subgraph IDs can also be associated with a domain name in the Graph\n    * Name Service (GNS) to provide a mutable reference to a subgraph. This can be\n    * useful for writing more human readable queries, always querying the latest version\n    * of a subgraph, specifying relationships between subgraphs or mutably referencing a\n    * subgraph in smart contracts. A domain can be registered with registerDomain(),\n    * and can be considered as a top level domain, where subdomains can be registered\n    * under.\n    *\n    * Subdomains : An owner of a domain in the GNS may wish to deploy multiple subgraphs\n    * to a single domain, and have them exist in separate namespaces. Sub-domains enable\n    * this use case, and add an optional additional layer of namespacing beyond that\n    * already provided by the top level domains. Subdomains and Domains are both stored\n    * in the domains mapping under the hash of their strings.\n    *\n    * Account metadata and subgraph metadata : Data that doesn't need to be stored on\n    * chain, such as descriptions of subgraphs or account images are stored on IPFS.\n    * This data can be retrieved from the IPFS hashes that are emitted through the\n    * metadata events.\n    *\n    */\n\n    /* Events */\n    event DomainAdded(\n        bytes32 indexed topLevelDomainHash,\n        address indexed owner,\n        string domainName\n    );\n    event DomainTransferred(bytes32 indexed domainHash, address indexed newOwner);\n    event SubgraphCreated(\n        bytes32 indexed topLevelDomainHash,\n        bytes32 indexed registeredHash,\n        string subdomainName\n    );\n    event SubgraphIDUpdated(bytes32 indexed domainHash, bytes32 indexed subgraphID);\n    event DomainDeleted(bytes32 indexed domainHash);\n    event AccountMetadataChanged(address indexed account, bytes32 indexed ipfsHash);\n    event SubgraphMetadataChanged(bytes32 indexed domainHash, bytes32 indexed ipfsHash);\n\n    /* TYPES */\n    struct Domain {\n        address owner;\n        bytes32 subgraphID;\n    }\n\n    /* STATE VARIABLES */\n    // Storage of a hashed top level domain to owners.\n    mapping(bytes32 => Domain) public domains;\n\n    /* Contract Constructor */\n    /* @param _governor <address> - Address of the multisig contract as Governor */\n    constructor (address _governor) public Governed(_governor) {}\n\n    /* Graph Protocol Functions */\n\n    modifier onlyDomainOwner (bytes32 _domainHash) {\n        require(msg.sender == domains[_domainHash].owner, \"Only domain owner can call.\");\n        _;\n    }\n\n    /*\n     * @notice Register a domain to an owner.\n     * @param _domainName <string> - Domain name, which is treated as a username.\n     */\n    function registerDomain(string calldata _domainName) external {\n        bytes32 hashedName = keccak256(abi.encodePacked(_domainName));\n        // Require that this domain is not yet owned by anyone.\n        require(domains[hashedName].owner == address(0), \"Domain is already owned.\");\n        domains[hashedName].owner = msg.sender;\n        emit DomainAdded(hashedName, msg.sender, _domainName);\n    }\n\n    /*\n     * @notice Create a subgraph by registering a subdomain, or registering the top level\n     * domain as a subgraph.\n     * @notice To register to the top level domain, pass _subdomainName as a blank string.\n     * @dev Only the domain owner may do this.\n     *\n     * @param _topLevelDomainHash <bytes32> - Hash of the top level domain name.\n     * @param _subdomainName <string> - Name of the Subdomain. If you were\n     * registering 'david.thegraph', _subdomainName would be just 'david'.\n     * @param _ipfsHash <bytes32> - Hash of the subgraph metadata, such as description.\n    */\n    function createSubgraph(\n        bytes32 _topLevelDomainHash,\n        string calldata _subdomainName,\n        bytes32 _ipfsHash\n    ) external onlyDomainOwner(_topLevelDomainHash) {\n        bytes32 domainHash;\n        bytes32 subdomainHash = keccak256(abi.encodePacked(_subdomainName));\n\n        // Subdomain is blank, therefore we are setting the subgraphID of the top level domain\n        if (subdomainHash == keccak256(\"\")) {\n            // The domain hash ends up being the top level domain hash.\n            domainHash = _topLevelDomainHash;\n        } else {\n            // The domain hash becomes the subdomain concatenated with the top level domain hash.\n            domainHash = keccak256(abi.encodePacked(subdomainHash, _topLevelDomainHash));\n            require(\n                domains[domainHash].owner == address(0),\n                \"Someone already owns this subdomain.\"\n            );\n            domains[domainHash].owner = msg.sender;\n        }\n\n        // Note - subdomain name and IPFS hash are only emitted through the events.\n        // Note - if the subdomain is blank, the domain hash ends up being the top level\n        // domain hash, not the hash of a blank string.\n        emit SubgraphCreated(_topLevelDomainHash, domainHash, _subdomainName);\n        emit SubgraphMetadataChanged(domainHash, _ipfsHash);\n    }\n\n    /*\n     * @notice Update an existing subdomain with a subgraph ID.\n     * @dev Only the domain owner may do this.\n     *\n     * @param _domainHash <bytes32> - Hash of the domain name.\n     * @param _subgraphID <bytes32> - IPLD subgraph ID of the domain.\n     */\n    function updateDomainSubgraphID(\n        bytes32 _domainHash,\n        bytes32 _subgraphID\n    ) external onlyDomainOwner(_domainHash) {\n        require(\n            _subgraphID != bytes32(0),\n            \"If you want to reset the subgraphID, call deleteSubdomain.\"\n        );\n        domains[_domainHash].subgraphID = _subgraphID;\n        emit SubgraphIDUpdated(_domainHash, _subgraphID);\n    }\n\n    /*\n     * @notice Remove an existing domain owner and subgraphID\n     * @dev Only the domain owner may do this.\n     *\n     * @param _domainHash <bytes32> - Hash of the domain name.\n     */\n    function deleteSubdomain(bytes32 _domainHash) external onlyDomainOwner(_domainHash) {\n        delete domains[_domainHash];\n        emit DomainDeleted(_domainHash);\n    }\n\n    /*\n     * @notice Transfer ownership of domain by existing domain owner.\n     * @dev Only the domain owner may do this.\n     *\n     * @param _domainHash <bytes32> - Hash of the domain name.\n     * @param _newOwner <address> - New owner of the domain.\n     */\n    function transferDomainOwnership(\n        bytes32 _domainHash,\n        address _newOwner\n    ) external onlyDomainOwner(_domainHash) {\n        require(_newOwner != address(0), \"If you want to reset the owner, call deleteSubdomain.\");\n        domains[_domainHash].owner = _newOwner;\n        emit DomainTransferred(_domainHash, _newOwner);\n    }\n\n    /*\n     * @notice Change or initalize the Account Metadata, which is stored in a schema on IPFS.\n     * @dev Only the msg.sender can do this.\n     *\n     * @param _ipfsHash <bytes32> - Hash of the IPFS file that stores the account metadata.\n     * @param _account <address> - msg.sender.\n     */\n    function changeAccountMetadata(bytes32 _ipfsHash) external {\n        emit AccountMetadataChanged(msg.sender, _ipfsHash);\n    }\n\n    /*\n    * @notice Change or initalize the Account Metadata, which is stored in a schema on IPFS.\n    * @dev Only the msg.sender can do this.\n    *\n    * @param _ipfsHash <bytes32> - Hash of the IPFS file that stores the subgraph metadata.\n    * @param _domainHash <bytes32> - Hash of the domain name.\n    */\n    function changeSubgraphMetadata(\n        bytes32 _domainHash,\n        bytes32 _ipfsHash\n    ) public onlyDomainOwner(_domainHash) {\n        emit SubgraphMetadataChanged(_domainHash, _ipfsHash);\n    }\n\n}\n",
  "sourcePath": "/Users/davidkajpust/coding-no-icloud-backup/thegraph/dave/contracts/contracts/GNS.sol",
  "compiler": {
    "name": "solc",
    "version": "0.5.2+commit.1df8f40c.Emscripten.clang"
  },
  "schemaVersion": "3.0.10",
  "updatedAt": "2019-08-08T18:31:30.389Z",
  "devdoc": {
    "methods": {
      "transferGovernance(address)": {
        "details": "The current `governor` can assign a new `governor`",
        "params": {
          "_newGovernor": "<address> Address of new `governor`"
        }
      }
    }
  },
  "userdoc": {
    "methods": {}
  }
}