{
  "contractName": "GNS",
  "abi": [
    {
      "constant": true,
      "inputs": [],
      "name": "governor",
      "outputs": [
        {
          "name": "",
          "type": "address"
        }
      ],
      "payable": false,
      "stateMutability": "view",
      "type": "function"
    },
    {
      "constant": true,
      "inputs": [
        {
          "name": "",
          "type": "bytes32"
        }
      ],
      "name": "domainOwners",
      "outputs": [
        {
          "name": "",
          "type": "address"
        }
      ],
      "payable": false,
      "stateMutability": "view",
      "type": "function"
    },
    {
      "constant": true,
      "inputs": [
        {
          "name": "",
          "type": "bytes32"
        },
        {
          "name": "",
          "type": "bytes32"
        }
      ],
      "name": "subDomains",
      "outputs": [
        {
          "name": "",
          "type": "bool"
        }
      ],
      "payable": false,
      "stateMutability": "view",
      "type": "function"
    },
    {
      "constant": false,
      "inputs": [
        {
          "name": "_newGovernor",
          "type": "address"
        }
      ],
      "name": "transferGovernance",
      "outputs": [
        {
          "name": "",
          "type": "bool"
        }
      ],
      "payable": false,
      "stateMutability": "nonpayable",
      "type": "function"
    },
    {
      "constant": true,
      "inputs": [
        {
          "name": "",
          "type": "bytes32"
        }
      ],
      "name": "domainsToSubgraphIDs",
      "outputs": [
        {
          "name": "",
          "type": "bytes32"
        }
      ],
      "payable": false,
      "stateMutability": "view",
      "type": "function"
    },
    {
      "inputs": [
        {
          "name": "_governor",
          "type": "address"
        }
      ],
      "payable": false,
      "stateMutability": "nonpayable",
      "type": "constructor"
    },
    {
      "anonymous": false,
      "inputs": [
        {
          "indexed": true,
          "name": "topLevelDomainHash",
          "type": "bytes32"
        },
        {
          "indexed": true,
          "name": "owner",
          "type": "address"
        },
        {
          "indexed": false,
          "name": "domainName",
          "type": "string"
        }
      ],
      "name": "DomainAdded",
      "type": "event"
    },
    {
      "anonymous": false,
      "inputs": [
        {
          "indexed": true,
          "name": "topLevelDomainHash",
          "type": "bytes32"
        },
        {
          "indexed": true,
          "name": "newOwner",
          "type": "address"
        }
      ],
      "name": "DomainTransferred",
      "type": "event"
    },
    {
      "anonymous": false,
      "inputs": [
        {
          "indexed": true,
          "name": "topLevelDomainHash",
          "type": "bytes32"
        },
        {
          "indexed": true,
          "name": "subdomainHash",
          "type": "bytes32"
        },
        {
          "indexed": true,
          "name": "subgraphId",
          "type": "bytes32"
        },
        {
          "indexed": false,
          "name": "subdomainName",
          "type": "string"
        },
        {
          "indexed": false,
          "name": "ipfsHash",
          "type": "bytes32"
        }
      ],
      "name": "SubgraphIdAdded",
      "type": "event"
    },
    {
      "anonymous": false,
      "inputs": [
        {
          "indexed": true,
          "name": "topLevelDomainHash",
          "type": "bytes32"
        },
        {
          "indexed": true,
          "name": "subdomainHash",
          "type": "bytes32"
        },
        {
          "indexed": true,
          "name": "subgraphId",
          "type": "bytes32"
        }
      ],
      "name": "SubgraphIdChanged",
      "type": "event"
    },
    {
      "anonymous": false,
      "inputs": [
        {
          "indexed": true,
          "name": "topLevelDomainHash",
          "type": "bytes32"
        },
        {
          "indexed": true,
          "name": "subdomainHash",
          "type": "bytes32"
        }
      ],
      "name": "SubgraphIdDeleted",
      "type": "event"
    },
    {
      "anonymous": false,
      "inputs": [
        {
          "indexed": true,
          "name": "account",
          "type": "address"
        },
        {
          "indexed": true,
          "name": "ipfsHash",
          "type": "bytes32"
        }
      ],
      "name": "AccountMetadataChanged",
      "type": "event"
    },
    {
      "anonymous": false,
      "inputs": [
        {
          "indexed": true,
          "name": "topLevelDomainHash",
          "type": "bytes32"
        },
        {
          "indexed": true,
          "name": "subdomainHash",
          "type": "bytes32"
        },
        {
          "indexed": true,
          "name": "ipfsHash",
          "type": "bytes32"
        }
      ],
      "name": "SubgraphMetadataChanged",
      "type": "event"
    },
    {
      "anonymous": false,
      "inputs": [
        {
          "indexed": true,
          "name": "_from",
          "type": "address"
        },
        {
          "indexed": true,
          "name": "_to",
          "type": "address"
        }
      ],
      "name": "GovernanceTransferred",
      "type": "event"
    },
    {
      "constant": false,
      "inputs": [
        {
          "name": "_domainName",
          "type": "string"
        }
      ],
      "name": "registerDomain",
      "outputs": [],
      "payable": false,
      "stateMutability": "nonpayable",
      "type": "function"
    },
    {
      "constant": false,
      "inputs": [
        {
          "name": "_topLevelDomainHash",
          "type": "bytes32"
        },
        {
          "name": "_subdomainName",
          "type": "string"
        },
        {
          "name": "_subgraphId",
          "type": "bytes32"
        },
        {
          "name": "_ipfsHash",
          "type": "bytes32"
        }
      ],
      "name": "addSubgraphToDomain",
      "outputs": [],
      "payable": false,
      "stateMutability": "nonpayable",
      "type": "function"
    },
    {
      "constant": false,
      "inputs": [
        {
          "name": "_topLevelDomainHash",
          "type": "bytes32"
        },
        {
          "name": "_subdomainHash",
          "type": "bytes32"
        },
        {
          "name": "_subgraphId",
          "type": "bytes32"
        }
      ],
      "name": "changeDomainSubgraphId",
      "outputs": [],
      "payable": false,
      "stateMutability": "nonpayable",
      "type": "function"
    },
    {
      "constant": false,
      "inputs": [
        {
          "name": "_topLevelDomainHash",
          "type": "bytes32"
        },
        {
          "name": "_subdomainHash",
          "type": "bytes32"
        }
      ],
      "name": "deleteSubdomain",
      "outputs": [],
      "payable": false,
      "stateMutability": "nonpayable",
      "type": "function"
    },
    {
      "constant": false,
      "inputs": [
        {
          "name": "_topLevelDomainHash",
          "type": "bytes32"
        },
        {
          "name": "_newOwner",
          "type": "address"
        }
      ],
      "name": "transferDomainOwnership",
      "outputs": [],
      "payable": false,
      "stateMutability": "nonpayable",
      "type": "function"
    },
    {
      "constant": false,
      "inputs": [
        {
          "name": "_ipfsHash",
          "type": "bytes32"
        }
      ],
      "name": "changeAccountMetadata",
      "outputs": [],
      "payable": false,
      "stateMutability": "nonpayable",
      "type": "function"
    },
    {
      "constant": false,
      "inputs": [
        {
          "name": "_ipfsHash",
          "type": "bytes32"
        },
        {
          "name": "_topLevelDomainHash",
          "type": "bytes32"
        },
        {
          "name": "_subdomainHash",
          "type": "bytes32"
        }
      ],
      "name": "changeSubgraphMetadata",
      "outputs": [],
      "payable": false,
      "stateMutability": "nonpayable",
      "type": "function"
    }
  ],
  "bytecode": "0x608060405234801561001057600080fd5b50604051602080610c5c8339810180604052602081101561003057600080fd5b505160008054600160a060020a03909216600160a060020a0319909216919091179055610bfa806100626000396000f3fe608060405234801561001057600080fd5b50600436106100f1576000357c010000000000000000000000000000000000000000000000000000000090048063a5cad08a1161009e578063d899b2ab11610078578063d899b2ab146102fb578063e3f9ab7014610324578063fe4ea7a614610341576100f1565b8063a5cad08a1461022e578063a876d63b1461029e578063d38bfff4146102d5576100f1565b806344ea0dbe116100cf57806344ea0dbe146101c5578063666542e1146101ee57806367a0560114610211576100f1565b80630c340a24146100f65780631dc9a3b91461011a5780633a46d5a514610148575b600080fd5b6100fe610370565b60408051600160a060020a039092168252519081900360200190f35b6101466004803603604081101561013057600080fd5b5080359060200135600160a060020a031661037f565b005b6101466004803603608081101561015e57600080fd5b8135919081019060408101602082013564010000000081111561018057600080fd5b82018360208201111561019257600080fd5b803590602001918460018302840111640100000000831117156101b457600080fd5b91935091508035906020013561045b565b610146600480360360608110156101db57600080fd5b50803590602081013590604001356105fb565b6101466004803603604081101561020457600080fd5b50803590602001356106a5565b6100fe6004803603602081101561022757600080fd5b5035610791565b6101466004803603602081101561024457600080fd5b81019060208101813564010000000081111561025f57600080fd5b82018360208201111561027157600080fd5b8035906020019184600183028401116401000000008311171561029357600080fd5b5090925090506107ac565b6102c1600480360360408110156102b457600080fd5b5080359060200135610950565b604080519115158252519081900360200190f35b6102c1600480360360208110156102eb57600080fd5b5035600160a060020a0316610970565b6101466004803603606081101561031157600080fd5b50803590602081013590604001356109ba565b6101466004803603602081101561033a57600080fd5b5035610ac5565b61035e6004803603602081101561035757600080fd5b5035610af5565b60408051918252519081900360200190f35b600054600160a060020a031681565b6000828152600160205260409020548290600160a060020a031633146103f45760408051600080516020610b6d833981519152815260206004820152601a60248201527f4f6e6c7920446f6d61696e206f776e65722063616e2063616c6c000000000000604482015290519081900360640190fd5b600083815260016020526040808220805473ffffffffffffffffffffffffffffffffffffffff1916600160a060020a0386169081179091559051909185917f526d3ede5b34aceac4e5820c0e9730fc09a7c9135c20ff6ac2522628413eb3839190a3505050565b6000858152600160205260409020548590600160a060020a031633146104d05760408051600080516020610b6d833981519152815260206004820152601a60248201527f4f6e6c7920446f6d61696e206f776e65722063616e2063616c6c000000000000604482015290519081900360640190fd5b60008585604051602001808383808284376040805191909301818103601f190182528352805160209182012060008181526003909252929020549195505015925061055791505057604051600080516020610b6d8339815191528152600401808060200182810382526042815260200180610b2b6042913960600191505060405180910390fd5b60008781526002602090815260408083208484528252808320805460ff19166001179055600382529182902086905581519081018590528181529081018690528490829089907fa821a49fe7ab545d8d48ff1463851de2f142c94a27e14ead9e54ef0ce61888df908a908a9089908060608101858580828437600083820152604051601f909101601f1916909201829003965090945050505050a450505050505050565b6000828152600160205260409020548290600160a060020a031633146106705760408051600080516020610b6d833981519152815260206004820152601a60248201527f4f6e6c7920446f6d61696e206f776e65722063616e2063616c6c000000000000604482015290519081900360640190fd5b8382847f895b09e07955848caaf9ed757e10d71d4109a288954e450700b21863b9fd74eb60405160405180910390a450505050565b6000828152600160205260409020548290600160a060020a0316331461071a5760408051600080516020610b6d833981519152815260206004820152601a60248201527f4f6e6c7920446f6d61696e206f776e65722063616e2063616c6c000000000000604482015290519081900360640190fd5b600082815260036020526040902054151561073457600080fd5b600082815260036020908152604080832083905585835260028252808320858452909152808220805460ff1916905551839185917f08ce5acb4b8c03f4150b9935bfe9ae6b176a007658a955d70ba1bc5eb0eb55869190a3505050565b600160205260009081526040902054600160a060020a031681565b6000600160a060020a0316600160008484604051602001808383808284376040805191909301818103601f190182528352805160209182012087528601969096529390930160002054600160a060020a031694909414935061084b9250505057604051600080516020610b6d8339815191528152600401808060200182810382526023815260200180610b086023913960400191505060405180910390fd5b3360016000848460405160200180838380828437808301925050509250505060405160208183030381529060405280519060200120815260200190815260200160002060006101000a815481600160a060020a030219169083600160a060020a0316021790555033600160a060020a03168282604051602001808383808284378083019250505092505050604051602081830303815290604052805190602001207fed90ece6faf918d7ecf69f4ec4db7f96b3eb8ac536b7bdc46e507523eab90905848460405180806020018281038252848482818152602001925080828437600083820152604051601f909101601f19169092018290039550909350505050a35050565b600260209081526000928352604080842090915290825290205460ff1681565b60008054600160a060020a0316331461098857600080fd5b5060008054600160a060020a03831673ffffffffffffffffffffffffffffffffffffffff199091161790556001919050565b6000838152600160205260409020548390600160a060020a03163314610a2f5760408051600080516020610b6d833981519152815260206004820152601a60248201527f4f6e6c7920446f6d61696e206f776e65722063616e2063616c6c000000000000604482015290519081900360640190fd5b6000838152600360205260409020541515610a8357604051600080516020610b6d8339815191528152600401808060200182810382526042815260200180610b8d6042913960600191505060405180910390fd5b600083815260036020526040808220849055518391859187917f43d09e217ddeaf2a830cadb8ccfd10d5794fd962699cfe425bdeed3f5467d47391a450505050565b604051819033907fc4df041d25ce185716aff03205e2861e0ca951e1f2eaae5b77fb57996481996490600090a350565b6003602052600090815260409020548156fe546869732061646472657373206d75737420616c7265616479206265206f776e65642e5468652073756267726170684944206d757374206e6f74206265207365742079657420696e206f7264657220746f2063616c6c20746869732066756e6374696f6e2e08c379a00000000000000000000000000000000000000000000000000000000054686520737562646f6d61696e206d75737420616c7265616479206265207265676973746572656420696e206f7264657220746f206368616e676520746865204944a165627a7a723058209233c50aa8d79832547ecf05ea5bddbad62c28196e840e0a69fc804ba9bcaf3c0029",
  "source": "pragma solidity ^0.5.2;\n\nimport \"./Governed.sol\";\n\ncontract GNS is Governed {\n\n    /*\n    * @title Graph Name Service (GNS) contract\n    *\n    * @author Bryant Eisenbach\n    * @author Reuven Etzion\n    * @author Ashoka Finley\n    * @notice Contract Specification:\n    *\n    * Subgraph Ids : Subgraph definitions are immutable, even though the actual\n    * data ingested may grow -- each subgraph manifest is hashed in its IPLD\n    * canonical serialized form, to produce a unique Id. Nodes in the peer-to-peer\n    * network use this Id to communicate who is indexing and caching what data, as\n    * well as route queries through the network. The self-certifying nature of\n    * subgraph Ids also make them useful for providing attestations and filing disputes.\n    *\n    * Domains : Subgraph Ids can also be associated with a domain name in the Graph\n    * Name Service (GNS) to provide a mutable reference to a subgraph. This can be\n    * useful for writing more human readable queries, always querying the latest version\n    * of a subgraph, specifying relationships between subgraphs or mutably referencing a\n    * subgraph in smart contracts.\n    *\n    * Deploying a subgraph to a domain also enables discoverability, as explorer UIs will\n    * be built on top of the GNS.\n    *\n    * Subdomains : An owner of a domain in the GNS may wish to deploy multiple subgraphs\n    * to a single domain, and have them exist in separate namespaces. Sub-domains enable\n    * this use case, and add an optional additional layer of namespacing beyond that\n    * already provided by the top level domains.\n    *\n    * See: https://github.com/graphprotocol/specs/tree/master/data-model for details.\n    *\n    * The SubgraphIds are emitted in events. Only the owners can emit this events\n    * This means SubgraphIds are not stored in this contract anywhere\n    * Therefore, subgraphIds are mapped to domain names only through events (see requirements below)\n    *\n    * Requirements (\"GNS\" contract):\n    * req 01 Maps domains to owners\n    * req 02 Emit events that connect domain names to subgraphIds\n    * req 03 Emit events that connect subdomain names to subgraphId\n    * ...\n    */\n\n    /* Events */\n    event DomainAdded(bytes32 indexed topLevelDomainHash, address indexed owner, string domainName);\n    event DomainTransferred(bytes32 indexed topLevelDomainHash, address indexed newOwner);\n    event SubgraphIdAdded(\n        bytes32 indexed topLevelDomainHash,\n        bytes32 indexed subdomainHash,\n        bytes32 indexed subgraphId,\n        string subdomainName,\n        bytes32 ipfsHash\n    );\n    event SubgraphIdChanged(\n        bytes32 indexed topLevelDomainHash,\n        bytes32 indexed subdomainHash,\n        bytes32 indexed subgraphId\n    );\n    event SubgraphIdDeleted(bytes32 indexed topLevelDomainHash, bytes32 indexed subdomainHash);\n\n    event AccountMetadataChanged(address indexed account, bytes32 indexed ipfsHash);\n    event SubgraphMetadataChanged(bytes32 indexed topLevelDomainHash, bytes32 indexed subdomainHash, bytes32 indexed ipfsHash);\n\n    /* STATE VARIABLES */\n    // Storage of a Hashed Top Level Domain to owners\n    mapping(bytes32 => address) public domainOwners;\n\n    // Storage of a Hashed Top Level Domain mapped to an a subdomain that maps to a boolean. True it is registered\n    mapping(bytes32 => mapping(bytes32 => bool)) public subDomains;\n\n    // Top Level Domain or Subdomain Hash to SubgraphID\n    mapping(bytes32 => bytes32) public domainsToSubgraphIDs;\n\n    /* Contract Constructor */\n    /* @param _governor <address> - Address of the multisig contract as Governor of this contract */\n    constructor (address _governor) public Governed(_governor) {}\n\n    /* Graph Protocol Functions */\n\n    modifier onlyDomainOwner (bytes32 _topLevelDomainHash) {\n        require(msg.sender == domainOwners[_topLevelDomainHash], \"Only Domain owner can call\");\n        _;\n    }\n\n    /*\n     * @notice Register a Domain to an owner\n     * @dev Only registrar may do this\n     *\n     * @param _domainName <string> - Domain name. In The Explorer, it is treated as username\n     */\n    function registerDomain(string calldata _domainName) external {\n        // require this domain is not yet owned\n        require(domainOwners[keccak256(abi.encodePacked(_domainName))] == address(0), 'This address must already be owned.');\n\n        domainOwners[keccak256(abi.encodePacked(_domainName))] = msg.sender;\n        emit DomainAdded(keccak256(abi.encodePacked(_domainName)), msg.sender, _domainName);\n    }\n\n    /*\n     * @notice Register a subgraphId to a subdomain. Only works for the first time registering. Updates done through changeDomainSubgraphID\n     * @notice To only register to the top level domain, pass _subdomainName as the top level domain.\n     * @dev Only the domain owner may do this\n     *\n     * @param _topLevelDomainHash <bytes32> - Hash of the domain name\n     * @param _subdomainName <string> - Name of the Subdomain - the full name, such as \"david.thegraph.com\"\n     * @param _subgraphId <bytes32> - IPLD SubgraphId of the subdomain\n     */\n    function addSubgraphToDomain(\n        bytes32 _topLevelDomainHash,\n        string calldata _subdomainName,\n        bytes32 _subgraphId,\n        bytes32 _ipfsHash\n    ) external onlyDomainOwner(_topLevelDomainHash) {\n\n        bytes32 domainHash = keccak256(abi.encodePacked(_subdomainName));\n        require(domainsToSubgraphIDs[domainHash] == bytes32(0), 'The subgraphID must not be set yet in order to call this function.');\n\n        // Domain has never been registered, we need to add it to the dynamic array\n        subDomains[_topLevelDomainHash][domainHash] = true;\n\n        // Store the subgraphID to the domain hash\n        domainsToSubgraphIDs[domainHash] = _subgraphId;\n\n        // SubdomainName and IpfsHash are only emitted through the event\n        emit SubgraphIdAdded(_topLevelDomainHash, domainHash, _subgraphId, _subdomainName, _ipfsHash);\n    }\n\n    /*\n     * @notice Update an existing subdomain with a different subgraphId\n     * @dev Only the domain owner may do this\n     *\n     * @param _topLevelDomainHash <bytes32> - Hash of the domain name\n     * @param _subdomainHash <bytes32> - Hash of the Name of the subdomain\n     * @param _subgraphId <bytes32> - IPLD SubgraphId of the subdomain\n     */\n    function changeDomainSubgraphId(\n        bytes32 _topLevelDomainHash,\n        bytes32 _subdomainHash,\n        bytes32 _subgraphId\n    ) external onlyDomainOwner(_topLevelDomainHash) {\n\n        require(domainsToSubgraphIDs[_subdomainHash] != bytes32(0), 'The subdomain must already be registered in order to change the ID');\n        domainsToSubgraphIDs[_subdomainHash] = _subgraphId;\n\n        emit SubgraphIdChanged(_topLevelDomainHash, _subdomainHash, _subgraphId);\n    }\n\n    /*\n     * @notice Remove an existing subdomain from the provided subdomainName\n     * @dev Only the domain owner may do this\n     *\n     * @param _topLevelDomainHash <bytes32> - Hash of the domain name\n     * @param _subdomainHash <bytes32> - Hash of the name of the subdomain\n     */\n    function deleteSubdomain(bytes32 _topLevelDomainHash, bytes32 _subdomainHash) external onlyDomainOwner(_topLevelDomainHash) {\n        require(domainsToSubgraphIDs[_subdomainHash] != bytes32(0));\n        delete domainsToSubgraphIDs[_subdomainHash];\n        delete subDomains[_topLevelDomainHash][_subdomainHash];\n        emit SubgraphIdDeleted(_topLevelDomainHash, _subdomainHash);\n    }\n\n    /*\n     * @notice Transfer ownership of domain by existing domain owner\n     * @dev Only the domain owner may do this\n     *\n     * @param _topLevelDomainHash <bytes32> - Hash of the domain name\n     * @param _newOwner <address> - New owner of the domain\n     */\n    function transferDomainOwnership(bytes32 _topLevelDomainHash, address _newOwner) external onlyDomainOwner(_topLevelDomainHash) {\n        domainOwners[_topLevelDomainHash] = _newOwner;\n        emit DomainTransferred(_topLevelDomainHash, _newOwner);\n    }\n\n    /*\n     * @notice Change or initalize the Account Metadata, which is stored in a schema on IPFS\n     * @dev Only the msg.sender can do this\n     *\n     * @param _ipfsHash <bytes32> - Hash of the IPFS file that stores the account metadata\n     * @param _account <address> - msg.sender\n     */\n    function changeAccountMetadata(bytes32 _ipfsHash) external {\n        emit AccountMetadataChanged(msg.sender, _ipfsHash);\n    }\n\n    /*\n    * @notice Change or initalize the Account Metadata, which is stored in a schema on IPFS\n    * @dev Only the msg.sender can do this\n    *\n    * @param _ipfsHash <bytes32> - Hash of the IPFS file that stores the subgraph metadata\n    * @param _topLevelDomainHash <bytes32> - Hash of the domain name\n    * @param _subdomainHash <bytes32> - Hash of the name of the subdomain\n    */\n    function changeSubgraphMetadata(bytes32 _ipfsHash, bytes32 _topLevelDomainHash, bytes32 _subdomainHash) external onlyDomainOwner(_topLevelDomainHash) {\n        emit SubgraphMetadataChanged(_topLevelDomainHash, _subdomainHash, _ipfsHash);\n    }\n\n}\n",
  "sourcePath": "/Users/davidkajpust/coding-no-icloud-backup/thegraph/research/soho-token-contracts/contracts/contracts/GNS.sol",
  "compiler": {
    "name": "solc",
    "version": "0.5.2+commit.1df8f40c.Emscripten.clang"
  },
  "schemaVersion": "3.0.10",
  "updatedAt": "2019-07-19T00:13:37.008Z",
  "devdoc": {
    "methods": {
      "transferGovernance(address)": {
        "details": "The current `governor` can assign a new `governor`",
        "params": {
          "_newGovernor": "<address> Address of new `governor`"
        }
      }
    }
  },
  "userdoc": {
    "methods": {}
  }
}