{
  "contractName": "GNS",
  "abi": [
    {
      "constant": true,
      "inputs": [],
      "name": "governor",
      "outputs": [
        {
          "name": "",
          "type": "address"
        }
      ],
      "payable": false,
      "stateMutability": "view",
      "type": "function"
    },
    {
      "constant": false,
      "inputs": [
        {
          "name": "_newGovernor",
          "type": "address"
        }
      ],
      "name": "transferGovernance",
      "outputs": [
        {
          "name": "",
          "type": "bool"
        }
      ],
      "payable": false,
      "stateMutability": "nonpayable",
      "type": "function"
    },
    {
      "inputs": [
        {
          "name": "_governor",
          "type": "address"
        }
      ],
      "payable": false,
      "stateMutability": "nonpayable",
      "type": "constructor"
    },
    {
      "anonymous": false,
      "inputs": [
        {
          "indexed": true,
          "name": "topLevelDomainHash",
          "type": "bytes32"
        },
        {
          "indexed": true,
          "name": "owner",
          "type": "address"
        },
        {
          "indexed": false,
          "name": "domainName",
          "type": "string"
        }
      ],
      "name": "DomainAdded",
      "type": "event"
    },
    {
      "anonymous": false,
      "inputs": [
        {
          "indexed": true,
          "name": "topLevelDomainHash",
          "type": "bytes32"
        },
        {
          "indexed": true,
          "name": "newOwner",
          "type": "address"
        }
      ],
      "name": "DomainTransferred",
      "type": "event"
    },
    {
      "anonymous": false,
      "inputs": [
        {
          "indexed": true,
          "name": "topLevelDomainHash",
          "type": "bytes32"
        },
        {
          "indexed": true,
          "name": "subdomainHash",
          "type": "bytes32"
        },
        {
          "indexed": true,
          "name": "subgraphId",
          "type": "bytes32"
        },
        {
          "indexed": false,
          "name": "subdomainName",
          "type": "string"
        },
        {
          "indexed": false,
          "name": "ipfsHash",
          "type": "bytes32"
        }
      ],
      "name": "SubgraphIdAdded",
      "type": "event"
    },
    {
      "anonymous": false,
      "inputs": [
        {
          "indexed": true,
          "name": "topLevelDomainHash",
          "type": "bytes32"
        },
        {
          "indexed": true,
          "name": "subdomainHash",
          "type": "bytes32"
        },
        {
          "indexed": true,
          "name": "subgraphId",
          "type": "bytes32"
        }
      ],
      "name": "SubgraphIdChanged",
      "type": "event"
    },
    {
      "anonymous": false,
      "inputs": [
        {
          "indexed": true,
          "name": "topLevelDomainHash",
          "type": "bytes32"
        },
        {
          "indexed": true,
          "name": "subdomainHash",
          "type": "bytes32"
        }
      ],
      "name": "SubgraphIdDeleted",
      "type": "event"
    },
    {
      "anonymous": false,
      "inputs": [
        {
          "indexed": true,
          "name": "account",
          "type": "address"
        },
        {
          "indexed": true,
          "name": "ipfsHash",
          "type": "bytes32"
        }
      ],
      "name": "AccountMetadataChanged",
      "type": "event"
    },
    {
      "anonymous": false,
      "inputs": [
        {
          "indexed": true,
          "name": "topLevelDomainHash",
          "type": "bytes32"
        },
        {
          "indexed": true,
          "name": "subdomainHash",
          "type": "bytes32"
        },
        {
          "indexed": true,
          "name": "ipfsHash",
          "type": "bytes32"
        }
      ],
      "name": "SubgraphMetadataChanged",
      "type": "event"
    },
    {
      "anonymous": false,
      "inputs": [
        {
          "indexed": true,
          "name": "_from",
          "type": "address"
        },
        {
          "indexed": true,
          "name": "_to",
          "type": "address"
        }
      ],
      "name": "GovernanceTransferred",
      "type": "event"
    },
    {
      "constant": false,
      "inputs": [
        {
          "name": "_domainName",
          "type": "string"
        },
        {
          "name": "_owner",
          "type": "address"
        }
      ],
      "name": "registerDomain",
      "outputs": [],
      "payable": false,
      "stateMutability": "nonpayable",
      "type": "function"
    },
    {
      "constant": true,
      "inputs": [
        {
          "name": "_topLevelDomainHash",
          "type": "bytes32"
        }
      ],
      "name": "getDomainOwner",
      "outputs": [
        {
          "name": "owner",
          "type": "address"
        }
      ],
      "payable": false,
      "stateMutability": "view",
      "type": "function"
    },
    {
      "constant": false,
      "inputs": [
        {
          "name": "_topLevelDomainHash",
          "type": "bytes32"
        },
        {
          "name": "_subdomainName",
          "type": "string"
        },
        {
          "name": "_subgraphId",
          "type": "bytes32"
        },
        {
          "name": "_ipfsHash",
          "type": "bytes32"
        }
      ],
      "name": "addSubgraphToDomain",
      "outputs": [],
      "payable": false,
      "stateMutability": "nonpayable",
      "type": "function"
    },
    {
      "constant": false,
      "inputs": [
        {
          "name": "_topLevelDomainHash",
          "type": "bytes32"
        },
        {
          "name": "_subdomainHash",
          "type": "bytes32"
        },
        {
          "name": "_subgraphId",
          "type": "bytes32"
        }
      ],
      "name": "changeDomainSubgraphId",
      "outputs": [],
      "payable": false,
      "stateMutability": "nonpayable",
      "type": "function"
    },
    {
      "constant": false,
      "inputs": [
        {
          "name": "_topLevelDomainHash",
          "type": "bytes32"
        },
        {
          "name": "_subdomainHash",
          "type": "bytes32"
        }
      ],
      "name": "deleteSubdomain",
      "outputs": [],
      "payable": false,
      "stateMutability": "nonpayable",
      "type": "function"
    },
    {
      "constant": false,
      "inputs": [
        {
          "name": "_topLevelDomainHash",
          "type": "bytes32"
        },
        {
          "name": "_newOwner",
          "type": "address"
        }
      ],
      "name": "transferDomainOwnership",
      "outputs": [],
      "payable": false,
      "stateMutability": "nonpayable",
      "type": "function"
    },
    {
      "constant": false,
      "inputs": [
        {
          "name": "_ipfsHash",
          "type": "bytes32"
        }
      ],
      "name": "changeAccountMetadata",
      "outputs": [],
      "payable": false,
      "stateMutability": "nonpayable",
      "type": "function"
    },
    {
      "constant": false,
      "inputs": [
        {
          "name": "_ipfsHash",
          "type": "bytes32"
        },
        {
          "name": "_topLevelDomainHash",
          "type": "bytes32"
        },
        {
          "name": "_subdomainHash",
          "type": "bytes32"
        }
      ],
      "name": "changeSubgraphMetadata",
      "outputs": [],
      "payable": false,
      "stateMutability": "nonpayable",
      "type": "function"
    }
  ],
  "bytecode": "0x608060405234801561001057600080fd5b50604051602080610bf28339810180604052602081101561003057600080fd5b810190808051906020019092919050505080806000806101000a81548173ffffffffffffffffffffffffffffffffffffffff021916908373ffffffffffffffffffffffffffffffffffffffff1602179055505050610b5f806100936000396000f3fe608060405234801561001057600080fd5b506004361061009e5760003560e01c8063666542e111610066578063666542e114610282578063d38bfff4146102ba578063d899b2ab14610316578063e3f9ab7014610358578063f52433cb146103865761009e565b80630c340a24146100a357806311d4c3a2146100ed5780631dc9a3b91461015b5780633a46d5a5146101a957806344ea0dbe14610240575b600080fd5b6100ab61041f565b604051808273ffffffffffffffffffffffffffffffffffffffff1673ffffffffffffffffffffffffffffffffffffffff16815260200191505060405180910390f35b6101196004803603602081101561010357600080fd5b8101908080359060200190929190505050610444565b604051808273ffffffffffffffffffffffffffffffffffffffff1673ffffffffffffffffffffffffffffffffffffffff16815260200191505060405180910390f35b6101a76004803603604081101561017157600080fd5b8101908080359060200190929190803573ffffffffffffffffffffffffffffffffffffffff169060200190929190505050610484565b005b61023e600480360360808110156101bf57600080fd5b8101908080359060200190929190803590602001906401000000008111156101e657600080fd5b8201836020820111156101f857600080fd5b8035906020019184600183028401116401000000008311171561021a57600080fd5b90919293919293908035906020019092919080359060200190929190505050610591565b005b6102806004803603606081101561025657600080fd5b810190808035906020019092919080359060200190929190803590602001909291905050506106a5565b005b6102b86004803603604081101561029857600080fd5b810190808035906020019092919080359060200190929190505050610749565b005b6102fc600480360360208110156102d057600080fd5b81019080803573ffffffffffffffffffffffffffffffffffffffff1690602001909291905050506107eb565b604051808215151515815260200191505060405180910390f35b6103566004803603606081101561032c57600080fd5b8101908080359060200190929190803590602001909291908035906020019092919050505061088f565b005b6103846004803603602081101561036e57600080fd5b8101908080359060200190929190505050610933565b005b61041d6004803603604081101561039c57600080fd5b81019080803590602001906401000000008111156103b957600080fd5b8201836020820111156103cb57600080fd5b803590602001918460018302840111640100000000831117156103ed57600080fd5b9091929391929390803573ffffffffffffffffffffffffffffffffffffffff16906020019092919050505061097a565b005b6000809054906101000a900473ffffffffffffffffffffffffffffffffffffffff1681565b60006001600083815260200190815260200160002060000160009054906101000a900473ffffffffffffffffffffffffffffffffffffffff169050919050565b816001600082815260200190815260200160002060000160009054906101000a900473ffffffffffffffffffffffffffffffffffffffff1673ffffffffffffffffffffffffffffffffffffffff163373ffffffffffffffffffffffffffffffffffffffff16146104f357600080fd5b816001600085815260200190815260200160002060000160006101000a81548173ffffffffffffffffffffffffffffffffffffffff021916908373ffffffffffffffffffffffffffffffffffffffff1602179055508173ffffffffffffffffffffffffffffffffffffffff16837f526d3ede5b34aceac4e5820c0e9730fc09a7c9135c20ff6ac2522628413eb38360405160405180910390a3505050565b846001600082815260200190815260200160002060000160009054906101000a900473ffffffffffffffffffffffffffffffffffffffff1673ffffffffffffffffffffffffffffffffffffffff163373ffffffffffffffffffffffffffffffffffffffff161461060057600080fd5b82858560405160200180838380828437808301925050509250505060405160208183030381529060405280519060200120877fa821a49fe7ab545d8d48ff1463851de2f142c94a27e14ead9e54ef0ce61888df88888760405180806020018381526020018281038252858582818152602001925080828437600081840152601f19601f82011690508083019250505094505050505060405180910390a4505050505050565b816001600082815260200190815260200160002060000160009054906101000a900473ffffffffffffffffffffffffffffffffffffffff1673ffffffffffffffffffffffffffffffffffffffff163373ffffffffffffffffffffffffffffffffffffffff161461071457600080fd5b8382847f895b09e07955848caaf9ed757e10d71d4109a288954e450700b21863b9fd74eb60405160405180910390a450505050565b816001600082815260200190815260200160002060000160009054906101000a900473ffffffffffffffffffffffffffffffffffffffff1673ffffffffffffffffffffffffffffffffffffffff163373ffffffffffffffffffffffffffffffffffffffff16146107b857600080fd5b81837f08ce5acb4b8c03f4150b9935bfe9ae6b176a007658a955d70ba1bc5eb0eb558660405160405180910390a3505050565b60008060009054906101000a900473ffffffffffffffffffffffffffffffffffffffff1673ffffffffffffffffffffffffffffffffffffffff163373ffffffffffffffffffffffffffffffffffffffff161461084657600080fd5b816000806101000a81548173ffffffffffffffffffffffffffffffffffffffff021916908373ffffffffffffffffffffffffffffffffffffffff16021790555060019050919050565b826001600082815260200190815260200160002060000160009054906101000a900473ffffffffffffffffffffffffffffffffffffffff1673ffffffffffffffffffffffffffffffffffffffff163373ffffffffffffffffffffffffffffffffffffffff16146108fe57600080fd5b8183857f43d09e217ddeaf2a830cadb8ccfd10d5794fd962699cfe425bdeed3f5467d47360405160405180910390a450505050565b803373ffffffffffffffffffffffffffffffffffffffff167fc4df041d25ce185716aff03205e2861e0ca951e1f2eaae5b77fb57996481996460405160405180910390a350565b6000809054906101000a900473ffffffffffffffffffffffffffffffffffffffff1673ffffffffffffffffffffffffffffffffffffffff163373ffffffffffffffffffffffffffffffffffffffff16146109d357600080fd5b60405180602001604052808273ffffffffffffffffffffffffffffffffffffffff1681525060016000858560405160200180838380828437808301925050509250505060405160208183030381529060405280519060200120815260200190815260200160002060008201518160000160006101000a81548173ffffffffffffffffffffffffffffffffffffffff021916908373ffffffffffffffffffffffffffffffffffffffff1602179055509050508073ffffffffffffffffffffffffffffffffffffffff168383604051602001808383808284378083019250505092505050604051602081830303815290604052805190602001207fed90ece6faf918d7ecf69f4ec4db7f96b3eb8ac536b7bdc46e507523eab90905858560405180806020018281038252848482818152602001925080828437600081840152601f19601f820116905080830192505050935050505060405180910390a350505056fea165627a7a72305820319071b5c1719a18ca0351813b54b051312175cff274b6c959d581830cfb05060029",
  "source": "pragma solidity ^0.5.2;\n\nimport \"./Governed.sol\";\n\ncontract GNS is Governed {\n\n    /*\n    * @title Graph Name Service (GNS) contract\n    *\n    * @author Bryant Eisenbach\n    * @author Reuven Etzion\n    * @author Ashoka Finley\n    * @notice Contract Specification:\n    *\n    * Subgraph Ids : Subgraph definitions are immutable, even though the actual\n    * data ingested may grow -- each subgraph manifest is hashed in its IPLD\n    * canonical serialized form, to produce a unique Id. Nodes in the peer-to-peer\n    * network use this Id to communicate who is indexing and caching what data, as\n    * well as route queries through the network. The self-certifying nature of\n    * subgraph Ids also make them useful for providing attestations and filing disputes.\n    *\n    * Domains : Subgraph Ids can also be associated with a domain name in the Graph\n    * Name Service (GNS) to provide a mutable reference to a subgraph. This can be\n    * useful for writing more human readable queries, always querying the latest version\n    * of a subgraph, specifying relationships between subgraphs or mutably referencing a\n    * subgraph in smart contracts.\n    *\n    * Deploying a subgraph to a domain also enables discoverability, as explorer UIs will\n    * be built on top of the GNS.\n    *\n    * Subdomains : An owner of a domain in the GNS may wish to deploy multiple subgraphs\n    * to a single domain, and have them exist in separate namespaces. Sub-domains enable\n    * this use case, and add an optional additional layer of namespacing beyond that\n    * already provided by the top level domains.\n    *\n    * See: https://github.com/graphprotocol/specs/tree/master/data-model for details.\n    *\n    * The SubgraphIds are emitted in events. Only the owners can emit this events\n    * This means SubgraphIds are not stored in this contract anywhere\n    * Therefore, subgraphIds are mapped to domain names only through events (see requirements below)\n    *\n    * Requirements (\"GNS\" contract):\n    * req 01 Maps domains to owners\n    * req 02 Emit events that connect domain names to subgraphIds\n    * req 03 Emit events that connect subdomain names to subgraphId\n    * ...\n    */\n\n    /* Events */\n    event DomainAdded(bytes32 indexed topLevelDomainHash, address indexed owner, string domainName);\n    event DomainTransferred(bytes32 indexed topLevelDomainHash, address indexed newOwner);\n    event SubgraphIdAdded(\n        bytes32 indexed topLevelDomainHash,\n        bytes32 indexed subdomainHash,\n        bytes32 indexed subgraphId,\n        string subdomainName,\n        bytes32 ipfsHash\n    );\n    event SubgraphIdChanged(\n        bytes32 indexed topLevelDomainHash,\n        bytes32 indexed subdomainHash,\n        bytes32 indexed subgraphId\n    );\n    event SubgraphIdDeleted(bytes32 indexed topLevelDomainHash, bytes32 indexed subdomainHash);\n\n    event AccountMetadataChanged(address indexed account, bytes32 indexed ipfsHash);\n    event SubgraphMetadataChanged(bytes32 indexed topLevelDomainHash, bytes32 indexed subdomainHash, bytes32 indexed ipfsHash);\n\n    /* Structs */\n    struct Domain {\n        address owner;\n    }\n\n    /* STATE VARIABLES */\n    // Storage of a Hashed Domain Name mapped to its owner\n    mapping (bytes32 => Domain) internal gnsDomains;\n\n    /* Contract Constructor */\n    /* @param _governor <address> - Address of the multisig contract as Governor of this contract */\n    constructor (address _governor) public Governed (_governor) {}\n\n    /* Graph Protocol Functions */\n\n    modifier onlyDomainOwner (bytes32 _topLevelDomainHash) {\n        require(msg.sender == gnsDomains[_topLevelDomainHash].owner);\n        _;\n    }\n\n    /*\n     * @notice Register a Domain to an owner\n     * @dev Only registrar may do this\n     *\n     * @param _domainName <string> - Domain name\n     * @param _owner <address> - Address of domain owner\n     */\n    function registerDomain (string calldata _domainName, address _owner) external onlyGovernance {\n        gnsDomains[keccak256(abi.encodePacked(_domainName))] = Domain({owner: _owner});\n        emit DomainAdded(keccak256(abi.encodePacked(_domainName)), _owner, _domainName);  // 3rd field will automatically be hashed by EVM\n    }\n\n    /*\n     * @notice Get the owner of an existing domain\n     * @param _topLevelDomainHash <bytes32> - Hash of the domain name\n     */\n    function getDomainOwner (bytes32 _topLevelDomainHash) external view returns (address owner) {\n        return gnsDomains[_topLevelDomainHash].owner;\n    }\n\n    /*\n     * @notice Register a subgraphId to a subdomain\n     * @notice To only register to the top level domain, pass _subdomainName as a blank string (which is c5d2460186f7233c927e7db2dcc703c0e500b653ca82273b7bfad8045d85a470 when hashed)\n     * @dev Only the domain owner may do this\n     *\n     * @param _topLevelDomainHash <bytes32> - Hash of the domain name\n     * @param _subdomainName <string> - Name of the Subdomain\n     * @param _subgraphId <bytes32> - IPLD SubgraphId of the subdomain\n     */\n    function addSubgraphToDomain (\n        bytes32 _topLevelDomainHash,\n        string calldata _subdomainName,\n        bytes32 _subgraphId,\n        bytes32 _ipfsHash\n    ) external onlyDomainOwner(_topLevelDomainHash) {\n        emit SubgraphIdAdded(_topLevelDomainHash, keccak256(abi.encodePacked(_subdomainName)), _subgraphId, _subdomainName, _ipfsHash); // 2nd field will automatically be hashed by EVM\n    }\n\n    /*\n     * @notice Update an existing subdomain with a different subgraphId\n     * @dev Only the domain owner may do this\n     *\n     * @param _topLevelDomainHash <bytes32> - Hash of the domain name\n     * @param _subdomainHash <bytes32> - Hash of the Name of the subdomain\n     * @param _subgraphId <bytes32> - IPLD SubgraphId of the subdomain\n     */\n    function changeDomainSubgraphId (\n        bytes32 _topLevelDomainHash,\n        bytes32 _subdomainHash,\n        bytes32 _subgraphId\n    ) external onlyDomainOwner(_topLevelDomainHash) {\n        emit SubgraphIdChanged(_topLevelDomainHash, _subdomainHash, _subgraphId);\n    }\n\n    /*\n     * @notice Remove an existing subdomain from the provided subdomainName\n     * @dev Only the domain owner may do this\n     *\n     * @param _topLevelDomainHash <bytes32> - Hash of the domain name\n     * @param _subdomainHash <bytes32> - Hash of the name of the subdomain\n     */\n    function deleteSubdomain (bytes32 _topLevelDomainHash, bytes32 _subdomainHash) external onlyDomainOwner(_topLevelDomainHash) {\n        emit SubgraphIdDeleted(_topLevelDomainHash, _subdomainHash);\n    }\n\n    /*\n     * @notice Transfer ownership of domain by existing domain owner\n     * @dev Only the domain owner may do this\n     *\n     * @param _topLevelDomainHash <bytes32> - Hash of the domain name\n     * @param _newOwner <address> - New owner of the domain\n     */\n    function transferDomainOwnership (bytes32 _topLevelDomainHash, address _newOwner) external onlyDomainOwner(_topLevelDomainHash) {\n        gnsDomains[_topLevelDomainHash].owner = _newOwner;\n        emit DomainTransferred(_topLevelDomainHash, _newOwner);\n    }\n\n    /*\n     * @notice Change or initalize the Account Metadata, which is stored in a schema on IPFS\n     * @dev Only the msg.sender can do this\n     *\n     * @param _ipfsHash <bytes32> - Hash of the IPFS file that stores the account metadata\n     * @param _account <address> - msg.sender\n     */\n    function changeAccountMetadata (bytes32 _ipfsHash) external {\n        emit AccountMetadataChanged(msg.sender, _ipfsHash);\n    }\n\n    /*\n    * @notice Change or initalize the Account Metadata, which is stored in a schema on IPFS\n    * @dev Only the msg.sender can do this\n    *\n    * @param _ipfsHash <bytes32> - Hash of the IPFS file that stores the subgraph metadata\n    * @param _topLevelDomainHash <bytes32> - Hash of the domain name\n    * @param _subdomainHash <bytes32> - Hash of the name of the subdomain\n    */\n    function changeSubgraphMetadata (bytes32 _ipfsHash, bytes32 _topLevelDomainHash, bytes32 _subdomainHash) external onlyDomainOwner(_topLevelDomainHash) {\n        emit SubgraphMetadataChanged(_topLevelDomainHash, _subdomainHash, _ipfsHash);\n    }\n\n}\n",
  "sourcePath": "/Users/davidkajpust/coding-no-icloud-backup/thegraph/explorer-dapp/contracts/GNS.sol",
  "compiler": {
    "name": "solc",
    "version": "0.5.8+commit.23d335f2.Emscripten.clang"
  },
  "schemaVersion": "3.0.10",
  "updatedAt": "2019-06-24T19:44:54.188Z",
  "devdoc": {
    "methods": {
      "transferGovernance(address)": {
        "details": "The current `governor` can assign a new `governor`",
        "params": {
          "_newGovernor": "<address> Address of new `governor`"
        }
      }
    }
  },
  "userdoc": {
    "methods": {}
  }
}