{
  "contractName": "GraphToken",
  "abi": [
    {
      "constant": true,
      "inputs": [],
      "name": "name",
      "outputs": [
        {
          "name": "",
          "type": "string"
        }
      ],
      "payable": false,
      "stateMutability": "view",
      "type": "function"
    },
    {
      "constant": false,
      "inputs": [
        {
          "name": "spender",
          "type": "address"
        },
        {
          "name": "value",
          "type": "uint256"
        }
      ],
      "name": "approve",
      "outputs": [
        {
          "name": "",
          "type": "bool"
        }
      ],
      "payable": false,
      "stateMutability": "nonpayable",
      "type": "function"
    },
    {
      "constant": true,
      "inputs": [],
      "name": "governor",
      "outputs": [
        {
          "name": "",
          "type": "address"
        }
      ],
      "payable": false,
      "stateMutability": "view",
      "type": "function"
    },
    {
      "constant": true,
      "inputs": [],
      "name": "totalSupply",
      "outputs": [
        {
          "name": "",
          "type": "uint256"
        }
      ],
      "payable": false,
      "stateMutability": "view",
      "type": "function"
    },
    {
      "constant": false,
      "inputs": [
        {
          "name": "sender",
          "type": "address"
        },
        {
          "name": "recipient",
          "type": "address"
        },
        {
          "name": "amount",
          "type": "uint256"
        }
      ],
      "name": "transferFrom",
      "outputs": [
        {
          "name": "",
          "type": "bool"
        }
      ],
      "payable": false,
      "stateMutability": "nonpayable",
      "type": "function"
    },
    {
      "constant": true,
      "inputs": [],
      "name": "decimals",
      "outputs": [
        {
          "name": "",
          "type": "uint8"
        }
      ],
      "payable": false,
      "stateMutability": "view",
      "type": "function"
    },
    {
      "constant": false,
      "inputs": [
        {
          "name": "spender",
          "type": "address"
        },
        {
          "name": "addedValue",
          "type": "uint256"
        }
      ],
      "name": "increaseAllowance",
      "outputs": [
        {
          "name": "",
          "type": "bool"
        }
      ],
      "payable": false,
      "stateMutability": "nonpayable",
      "type": "function"
    },
    {
      "constant": false,
      "inputs": [
        {
          "name": "account",
          "type": "address"
        },
        {
          "name": "amount",
          "type": "uint256"
        }
      ],
      "name": "mint",
      "outputs": [
        {
          "name": "",
          "type": "bool"
        }
      ],
      "payable": false,
      "stateMutability": "nonpayable",
      "type": "function"
    },
    {
      "constant": false,
      "inputs": [
        {
          "name": "amount",
          "type": "uint256"
        }
      ],
      "name": "burn",
      "outputs": [],
      "payable": false,
      "stateMutability": "nonpayable",
      "type": "function"
    },
    {
      "constant": true,
      "inputs": [
        {
          "name": "account",
          "type": "address"
        }
      ],
      "name": "balanceOf",
      "outputs": [
        {
          "name": "",
          "type": "uint256"
        }
      ],
      "payable": false,
      "stateMutability": "view",
      "type": "function"
    },
    {
      "constant": false,
      "inputs": [
        {
          "name": "account",
          "type": "address"
        },
        {
          "name": "amount",
          "type": "uint256"
        }
      ],
      "name": "burnFrom",
      "outputs": [],
      "payable": false,
      "stateMutability": "nonpayable",
      "type": "function"
    },
    {
      "constant": true,
      "inputs": [],
      "name": "symbol",
      "outputs": [
        {
          "name": "",
          "type": "string"
        }
      ],
      "payable": false,
      "stateMutability": "view",
      "type": "function"
    },
    {
      "constant": false,
      "inputs": [
        {
          "name": "account",
          "type": "address"
        }
      ],
      "name": "addMinter",
      "outputs": [],
      "payable": false,
      "stateMutability": "nonpayable",
      "type": "function"
    },
    {
      "constant": false,
      "inputs": [],
      "name": "renounceMinter",
      "outputs": [],
      "payable": false,
      "stateMutability": "nonpayable",
      "type": "function"
    },
    {
      "constant": false,
      "inputs": [
        {
          "name": "spender",
          "type": "address"
        },
        {
          "name": "subtractedValue",
          "type": "uint256"
        }
      ],
      "name": "decreaseAllowance",
      "outputs": [
        {
          "name": "",
          "type": "bool"
        }
      ],
      "payable": false,
      "stateMutability": "nonpayable",
      "type": "function"
    },
    {
      "constant": false,
      "inputs": [
        {
          "name": "recipient",
          "type": "address"
        },
        {
          "name": "amount",
          "type": "uint256"
        }
      ],
      "name": "transfer",
      "outputs": [
        {
          "name": "",
          "type": "bool"
        }
      ],
      "payable": false,
      "stateMutability": "nonpayable",
      "type": "function"
    },
    {
      "constant": true,
      "inputs": [
        {
          "name": "account",
          "type": "address"
        }
      ],
      "name": "isMinter",
      "outputs": [
        {
          "name": "",
          "type": "bool"
        }
      ],
      "payable": false,
      "stateMutability": "view",
      "type": "function"
    },
    {
      "constant": false,
      "inputs": [
        {
          "name": "_newGovernor",
          "type": "address"
        }
      ],
      "name": "transferGovernance",
      "outputs": [
        {
          "name": "",
          "type": "bool"
        }
      ],
      "payable": false,
      "stateMutability": "nonpayable",
      "type": "function"
    },
    {
      "constant": true,
      "inputs": [
        {
          "name": "owner",
          "type": "address"
        },
        {
          "name": "spender",
          "type": "address"
        }
      ],
      "name": "allowance",
      "outputs": [
        {
          "name": "",
          "type": "uint256"
        }
      ],
      "payable": false,
      "stateMutability": "view",
      "type": "function"
    },
    {
      "inputs": [
        {
          "name": "_governor",
          "type": "address"
        },
        {
          "name": "_initialSupply",
          "type": "uint256"
        }
      ],
      "payable": false,
      "stateMutability": "nonpayable",
      "type": "constructor"
    },
    {
      "anonymous": false,
      "inputs": [
        {
          "indexed": true,
          "name": "account",
          "type": "address"
        }
      ],
      "name": "MinterAdded",
      "type": "event"
    },
    {
      "anonymous": false,
      "inputs": [
        {
          "indexed": true,
          "name": "account",
          "type": "address"
        }
      ],
      "name": "MinterRemoved",
      "type": "event"
    },
    {
      "anonymous": false,
      "inputs": [
        {
          "indexed": true,
          "name": "from",
          "type": "address"
        },
        {
          "indexed": true,
          "name": "to",
          "type": "address"
        },
        {
          "indexed": false,
          "name": "value",
          "type": "uint256"
        }
      ],
      "name": "Transfer",
      "type": "event"
    },
    {
      "anonymous": false,
      "inputs": [
        {
          "indexed": true,
          "name": "owner",
          "type": "address"
        },
        {
          "indexed": true,
          "name": "spender",
          "type": "address"
        },
        {
          "indexed": false,
          "name": "value",
          "type": "uint256"
        }
      ],
      "name": "Approval",
      "type": "event"
    },
    {
      "anonymous": false,
      "inputs": [
        {
          "indexed": true,
          "name": "_from",
          "type": "address"
        },
        {
          "indexed": true,
          "name": "_to",
          "type": "address"
        }
      ],
      "name": "GovernanceTransferred",
      "type": "event"
    },
    {
      "constant": false,
      "inputs": [
        {
          "name": "_account",
          "type": "address"
        }
      ],
      "name": "removeMinter",
      "outputs": [],
      "payable": false,
      "stateMutability": "nonpayable",
      "type": "function"
    },
    {
      "constant": false,
      "inputs": [
        {
          "name": "_to",
          "type": "address"
        },
        {
          "name": "_amount",
          "type": "uint256"
        }
      ],
      "name": "transferWithData",
      "outputs": [
        {
          "name": "success",
          "type": "bool"
        }
      ],
      "payable": false,
      "stateMutability": "nonpayable",
      "type": "function"
    }
  ],
  "bytecode": "0x60806040523480156200001157600080fd5b50604051604080620018ff833981018060405260408110156200003357600080fd5b508051602091820151604080518082018252600b81527f477261706820546f6b656e0000000000000000000000000000000000000000008186019081528251808401909352600383527f47525400000000000000000000000000000000000000000000000000000000009583019590955260008054600160a060020a031916600160a060020a0386161790558051939492939092601291620000d8916001916200055e565b508151620000ee9060029060208501906200055e565b506003805460ff191660ff92909216919091179055506200011a9050336401000000006200015f810204565b6200012e826401000000006200015f810204565b6200014233640100000000620001b1810204565b62000157828264010000000062000203810204565b505062000603565b6200017a600782640100000000620010e26200032682021704565b604051600160a060020a038216907f6ae172837ea30b801fbfcdd4108aa1d5bf8ff775444fd70256b44e6bf3dfc3f690600090a250565b620001cc60078264010000000062001071620003cd82021704565b604051600160a060020a038216907fe94479a9f7e1952cc78f2d6baab678adc1b772d936c6583def489e524cb6669290600090a250565b600160a060020a03821615156200027b57604080517f08c379a000000000000000000000000000000000000000000000000000000000815260206004820152601f60248201527f45524332303a206d696e7420746f20746865207a65726f206164647265737300604482015290519081900360640190fd5b60065462000298908264010000000062000d296200045d82021704565b600655600160a060020a038216600090815260046020526040902054620002ce908264010000000062000d296200045d82021704565b600160a060020a03831660008181526004602090815260408083209490945583518581529351929391927fddf252ad1be2c89b69c2b068fc378daa952ba7f163c4a11628f55a4df523b3ef9281900390910190a35050565b6200033b8282640100000000620004d9810204565b15620003a857604080517f08c379a000000000000000000000000000000000000000000000000000000000815260206004820152601f60248201527f526f6c65733a206163636f756e7420616c72656164792068617320726f6c6500604482015290519081900360640190fd5b600160a060020a0316600090815260209190915260409020805460ff19166001179055565b620003e28282640100000000620004d9810204565b15156200043b576040517f08c379a0000000000000000000000000000000000000000000000000000000008152600401808060200182810382526021815260200180620018bc6021913960400191505060405180910390fd5b600160a060020a0316600090815260209190915260409020805460ff19169055565b600082820183811015620004d257604080517f08c379a000000000000000000000000000000000000000000000000000000000815260206004820152601b60248201527f536166654d6174683a206164646974696f6e206f766572666c6f770000000000604482015290519081900360640190fd5b9392505050565b6000600160a060020a03821615156200053e576040517f08c379a0000000000000000000000000000000000000000000000000000000008152600401808060200182810382526022815260200180620018dd6022913960400191505060405180910390fd5b50600160a060020a03166000908152602091909152604090205460ff1690565b828054600181600116156101000203166002900490600052602060002090601f016020900481019282601f10620005a157805160ff1916838001178555620005d1565b82800160010185558215620005d1579182015b82811115620005d1578251825591602001919060010190620005b4565b50620005df929150620005e3565b5090565b6200060091905b80821115620005df5760008155600101620005ea565b90565b6112a980620006136000396000f3fe608060405234801561001057600080fd5b5060043610610164576000357c01000000000000000000000000000000000000000000000000000000009004806370a08231116100e5578063a457c2d7116100a9578063c36ab38011610083578063c36ab3801461045b578063d38bfff414610487578063dd62ed3e146104ad57610164565b8063a457c2d7146103dd578063a9059cbb14610409578063aa271e1a1461043557610164565b806370a082311461035557806379cc67901461037b57806395d89b41146103a7578063983b2d56146103af57806398650275146103d557610164565b80633092afd51161012c5780633092afd51461029a578063313ce567146102c257806339509351146102e057806340c10f191461030c57806342966c681461033857610164565b806306fdde0314610169578063095ea7b3146101e65780630c340a241461022657806318160ddd1461024a57806323b872dd14610264575b600080fd5b6101716104db565b6040805160208082528351818301528351919283929083019185019080838360005b838110156101ab578181015183820152602001610193565b50505050905090810190601f1680156101d85780820380516001836020036101000a031916815260200191505b509250505060405180910390f35b610212600480360360408110156101fc57600080fd5b50600160a060020a038135169060200135610570565b604080519115158252519081900360200190f35b61022e610586565b60408051600160a060020a039092168252519081900360200190f35b610252610595565b60408051918252519081900360200190f35b6102126004803603606081101561027a57600080fd5b50600160a060020a0381358116916020810135909116906040013561059b565b6102c0600480360360208110156102b057600080fd5b5035600160a060020a03166105f2565b005b6102ca610665565b6040805160ff9092168252519081900360200190f35b610212600480360360408110156102f657600080fd5b50600160a060020a03813516906020013561066e565b6102126004803603604081101561032257600080fd5b50600160a060020a0381351690602001356106aa565b6102c06004803603602081101561034e57600080fd5b503561072f565b6102526004803603602081101561036b57600080fd5b5035600160a060020a0316610739565b6102c06004803603604081101561039157600080fd5b50600160a060020a038135169060200135610754565b610171610762565b6102c0600480360360208110156103c557600080fd5b5035600160a060020a03166107c0565b6102c0610842565b610212600480360360408110156103f357600080fd5b50600160a060020a03813516906020013561084d565b6102126004803603604081101561041f57600080fd5b50600160a060020a038135169060200135610889565b6102126004803603602081101561044b57600080fd5b5035600160a060020a0316610896565b6102126004803603604081101561047157600080fd5b50600160a060020a0381351690602001356108af565b6102126004803603602081101561049d57600080fd5b5035600160a060020a031661095f565b610252600480360360408110156104c357600080fd5b50600160a060020a03813581169160200135166109f9565b60018054604080516020601f600260001961010087891615020190951694909404938401819004810282018101909252828152606093909290918301828280156105665780601f1061053b57610100808354040283529160200191610566565b820191906000526020600020905b81548152906001019060200180831161054957829003601f168201915b5050505050905090565b600061057d338484610a24565b50600192915050565b600054600160a060020a031681565b60065490565b60006105a8848484610b24565b600160a060020a0384166000908152600560209081526040808320338085529252909120546105e89186916105e3908663ffffffff610c7c16565b610a24565b5060019392505050565b600054600160a060020a0316331461065957604080516000805160206111d2833981519152815260206004820152601760248201527f4f6e6c7920476f7665726e6f722063616e2063616c6c2e000000000000000000604482015290519081900360640190fd5b61066281610ce1565b50565b60035460ff1690565b336000818152600560209081526040808320600160a060020a0387168452909152812054909161057d9185906105e3908663ffffffff610d2916565b60006106b533610896565b806106ca5750600054600160a060020a031633145b151561072557604080516000805160206111d2833981519152815260206004820152601560248201527f4f6e6c79206d696e7465722063616e2063616c6c2e0000000000000000000000604482015290519081900360640190fd5b61057d8383610d92565b6106623382610e8e565b600160a060020a031660009081526004602052604090205490565b61075e8282610f73565b5050565b60028054604080516020601f60001961010060018716150201909416859004938401819004810282018101909252828152606093909290918301828280156105665780601f1061053b57610100808354040283529160200191610566565b6107c933610896565b806107de5750600054600160a060020a031633145b151561083957604080516000805160206111d2833981519152815260206004820152601560248201527f4f6e6c79206d696e7465722063616e2063616c6c2e0000000000000000000000604482015290519081900360640190fd5b61066281610fb8565b61084b33610ce1565b565b336000818152600560209081526040808320600160a060020a0387168452909152812054909161057d9185906105e3908663ffffffff610c7c16565b600061057d338484610b24565b60006108a960078363ffffffff61100016565b92915050565b60006108bb8383610889565b15156108c357fe5b604080517f24a756d1000000000000000000000000000000000000000000000000000000008152336004820152602481018490529051600160a060020a038516916324a756d19160448083019260209291908290030181600087803b15801561092b57600080fd5b505af115801561093f573d6000803e3d6000fd5b505050506040513d602081101561095557600080fd5b5051151561057d57fe5b60008054600160a060020a031633146109c757604080516000805160206111d2833981519152815260206004820152601760248201527f4f6e6c7920476f7665726e6f722063616e2063616c6c2e000000000000000000604482015290519081900360640190fd5b5060008054600160a060020a03831673ffffffffffffffffffffffffffffffffffffffff199091161790556001919050565b600160a060020a03918216600090815260056020908152604080832093909416825291909152205490565b600160a060020a0383161515610a73576040516000805160206111d2833981519152815260040180806020018281038252602481526020018061125a6024913960400191505060405180910390fd5b600160a060020a0382161515610ac2576040516000805160206111d2833981519152815260040180806020018281038252602281526020018061118f6022913960400191505060405180910390fd5b600160a060020a03808416600081815260056020908152604080832094871680845294825291829020859055815185815291517f8c5be1e5ebec7d5bd14f71427d1e84f3dd0314c0f7b2291e5b200ac8c7c3b9259281900390910190a3505050565b600160a060020a0383161515610b73576040516000805160206111d283398151915281526004018080602001828103825260258152602001806112356025913960400191505060405180910390fd5b600160a060020a0382161515610bc2576040516000805160206111d2833981519152815260040180806020018281038252602381526020018061116c6023913960400191505060405180910390fd5b600160a060020a038316600090815260046020526040902054610beb908263ffffffff610c7c16565b600160a060020a038085166000908152600460205260408082209390935590841681522054610c20908263ffffffff610d2916565b600160a060020a0380841660008181526004602090815260409182902094909455805185815290519193928716927fddf252ad1be2c89b69c2b068fc378daa952ba7f163c4a11628f55a4df523b3ef92918290030190a3505050565b600082821115610cdb57604080516000805160206111d2833981519152815260206004820152601e60248201527f536166654d6174683a207375627472616374696f6e206f766572666c6f770000604482015290519081900360640190fd5b50900390565b610cf260078263ffffffff61107116565b604051600160a060020a038216907fe94479a9f7e1952cc78f2d6baab678adc1b772d936c6583def489e524cb6669290600090a250565b600082820183811015610d8b57604080516000805160206111d2833981519152815260206004820152601b60248201527f536166654d6174683a206164646974696f6e206f766572666c6f770000000000604482015290519081900360640190fd5b9392505050565b600160a060020a0382161515610df757604080516000805160206111d2833981519152815260206004820152601f60248201527f45524332303a206d696e7420746f20746865207a65726f206164647265737300604482015290519081900360640190fd5b600654610e0a908263ffffffff610d2916565b600655600160a060020a038216600090815260046020526040902054610e36908263ffffffff610d2916565b600160a060020a03831660008181526004602090815260408083209490945583518581529351929391927fddf252ad1be2c89b69c2b068fc378daa952ba7f163c4a11628f55a4df523b3ef9281900390910190a35050565b600160a060020a0382161515610edd576040516000805160206111d283398151915281526004018080602001828103825260218152602001806112146021913960400191505060405180910390fd5b600654610ef0908263ffffffff610c7c16565b600655600160a060020a038216600090815260046020526040902054610f1c908263ffffffff610c7c16565b600160a060020a0383166000818152600460209081526040808320949094558351858152935191937fddf252ad1be2c89b69c2b068fc378daa952ba7f163c4a11628f55a4df523b3ef929081900390910190a35050565b610f7d8282610e8e565b600160a060020a03821660009081526005602090815260408083203380855292529091205461075e9184916105e3908563ffffffff610c7c16565b610fc960078263ffffffff6110e216565b604051600160a060020a038216907f6ae172837ea30b801fbfcdd4108aa1d5bf8ff775444fd70256b44e6bf3dfc3f690600090a250565b6000600160a060020a0382161515611051576040516000805160206111d283398151915281526004018080602001828103825260228152602001806111f26022913960400191505060405180910390fd5b50600160a060020a03166000908152602091909152604090205460ff1690565b61107b8282611000565b15156110c0576040516000805160206111d283398151915281526004018080602001828103825260218152602001806111b16021913960400191505060405180910390fd5b600160a060020a0316600090815260209190915260409020805460ff19169055565b6110ec8282611000565b1561114657604080516000805160206111d2833981519152815260206004820152601f60248201527f526f6c65733a206163636f756e7420616c72656164792068617320726f6c6500604482015290519081900360640190fd5b600160a060020a0316600090815260209190915260409020805460ff1916600117905556fe45524332303a207472616e7366657220746f20746865207a65726f206164647265737345524332303a20617070726f766520746f20746865207a65726f2061646472657373526f6c65733a206163636f756e7420646f6573206e6f74206861766520726f6c6508c379a000000000000000000000000000000000000000000000000000000000526f6c65733a206163636f756e7420697320746865207a65726f206164647265737345524332303a206275726e2066726f6d20746865207a65726f206164647265737345524332303a207472616e736665722066726f6d20746865207a65726f206164647265737345524332303a20617070726f76652066726f6d20746865207a65726f2061646472657373a165627a7a72305820ac727c72e98a47d01a4e78071bf5f6703cf7b78aeae2183712f0f3ac711aa7040029526f6c65733a206163636f756e7420646f6573206e6f74206861766520726f6c65526f6c65733a206163636f756e7420697320746865207a65726f2061646472657373",
  "source": "pragma solidity ^0.5.2;\n/*\n * @title GraphToken contract\n *\n * @author Bryant Eisenbach\n * @author Reuven Etzion\n *\n * Requirements\n * @req 01 The Graph Token shall implement the ERC20 Token Standard\n * @req 02 The Graph Token shall allow tokens staked in the protocol to be burned\n * @req 03 The Graph Token shall allow tokens to be minted to reward protocol participants\n * @req 04 The Graph Token shall only allow designated accounts the authority to mint\n *         Note: for example, the Payment Channel Hub and Rewards Manager contracts\n * @req 05 The Graph Token shall allow the protocol Governance to modify the accounts that have\n *         minting authority\n * @req 06 The Graph Token shall allow the protocol Governance to mint new tokens\n * @req 07 The Graph Token shall mint an inital distribution of tokens\n * @req 08 The Graph Token shall allow a token holder to stake in the protocol for indexing or\n *         curation markets for a particular Subgraph\n *\n */\n\nimport \"./Governed.sol\";\nimport \"openzeppelin-solidity/contracts/token/ERC20/ERC20Burnable.sol\";\nimport \"openzeppelin-solidity/contracts/token/ERC20/ERC20Mintable.sol\";\nimport \"openzeppelin-solidity/contracts/token/ERC20/ERC20Detailed.sol\";\n\n// @imp 08 target _to of transfer(_to, _amount, _data) in Token must implement this interface\n// NOTE: This is based off of ERC777TokensRecipient interface, but does not fully implement it\ncontract TokenReceiver\n{\n    function tokensReceived(\n        address _from,\n        uint256 _amount\n    )\n        external\n        returns (bool);\n}\n\ncontract GraphToken is\n    Governed,\n    ERC20Detailed, // @imp 01\n    ERC20Burnable, // @imp 01, 02\n    ERC20Mintable  // @imp 01, 03, 04\n{\n    // @imp 05, 06 Override so Governor can set Minters or mint tokens\n    modifier onlyMinter() {\n        require(isMinter(msg.sender) || msg.sender == governor, \"Only minter can call.\");\n        _;\n    }\n\n    /*\n     * @dev Init Graph Token contract\n     * @param _governor <address> Address of the multisig contract as Governor of this contract\n     * @param _initialSupply <uint256> Initial supply of Graph Tokens\n     */\n    constructor (address _governor, uint256 _initialSupply) public\n        ERC20Detailed(\"Graph Token\", \"GRT\", 18)\n        Governed(_governor)\n    {\n        // @imp 06 Governor is initially the sole treasurer\n        _addMinter(_governor);\n        _removeMinter(msg.sender); // Zep automagically does this, so remove...\n\n        // @imp 07 The Governer has the initial supply of tokens\n        _mint(_governor, _initialSupply); // Deployment address holds all tokens\n\n    }\n\n    /**\n     * @dev Method to expose `removeToken` while using the `onlyGovernor` modifier\n     * @param _account <address> Address of account to remove from `_minters`\n     */\n    function removeMinter(address _account) public onlyGovernance {\n        _removeMinter(_account);\n    }\n\n    /*\n     * @dev Transfer Graph tokens to the Staking interface\n     * @notice Interacts with Staking contract\n     * @notice Overriding `transfer` was not working with web3.js so we renamed to `transferWithData`\n     */\n    function transferWithData(\n        address _to,\n        uint256 _amount\n    )\n        public\n        returns (bool success)\n    {\n        assert(super.transfer(_to, _amount)); // Handle basic transfer functionality\n        // @imp 08 Have staking contract receive the token and handle the data\n        assert(TokenReceiver(_to).tokensReceived(msg.sender, _amount));\n        success = true;\n    }\n}\n",
  "sourcePath": "/Users/davidkajpust/coding-no-icloud-backup/thegraph/dave/contracts/contracts/GraphToken.sol",
  "compiler": {
    "name": "solc",
    "version": "0.5.2+commit.1df8f40c.Emscripten.clang"
  },
  "schemaVersion": "3.0.10",
  "updatedAt": "2019-09-04T17:42:45.468Z",
  "devdoc": {
    "methods": {
      "allowance(address,address)": {
        "details": "See `IERC20.allowance`."
      },
      "approve(address,uint256)": {
        "details": "See `IERC20.approve`.     * Requirements:     * - `spender` cannot be the zero address."
      },
      "balanceOf(address)": {
        "details": "See `IERC20.balanceOf`."
      },
      "burn(uint256)": {
        "details": "Destoys `amount` tokens from the caller.     * See `ERC20._burn`."
      },
      "burnFrom(address,uint256)": {
        "details": "See `ERC20._burnFrom`."
      },
      "decimals()": {
        "details": "Returns the number of decimals used to get its user representation. For example, if `decimals` equals `2`, a balance of `505` tokens should be displayed to a user as `5,05` (`505 / 10 ** 2`).     * Tokens usually opt for a value of 18, imitating the relationship between Ether and Wei.     * > Note that this information is only used for _display_ purposes: it in no way affects any of the arithmetic of the contract, including `IERC20.balanceOf` and `IERC20.transfer`."
      },
      "decreaseAllowance(address,uint256)": {
        "details": "Atomically decreases the allowance granted to `spender` by the caller.     * This is an alternative to `approve` that can be used as a mitigation for problems described in `IERC20.approve`.     * Emits an `Approval` event indicating the updated allowance.     * Requirements:     * - `spender` cannot be the zero address. - `spender` must have allowance for the caller of at least `subtractedValue`."
      },
      "increaseAllowance(address,uint256)": {
        "details": "Atomically increases the allowance granted to `spender` by the caller.     * This is an alternative to `approve` that can be used as a mitigation for problems described in `IERC20.approve`.     * Emits an `Approval` event indicating the updated allowance.     * Requirements:     * - `spender` cannot be the zero address."
      },
      "mint(address,uint256)": {
        "details": "See `ERC20._mint`.     * Requirements:     * - the caller must have the `MinterRole`."
      },
      "name()": {
        "details": "Returns the name of the token."
      },
      "removeMinter(address)": {
        "details": "Method to expose `removeToken` while using the `onlyGovernor` modifier",
        "params": {
          "_account": "<address> Address of account to remove from `_minters`"
        }
      },
      "symbol()": {
        "details": "Returns the symbol of the token, usually a shorter version of the name."
      },
      "totalSupply()": {
        "details": "See `IERC20.totalSupply`."
      },
      "transfer(address,uint256)": {
        "details": "See `IERC20.transfer`.     * Requirements:     * - `recipient` cannot be the zero address. - the caller must have a balance of at least `amount`."
      },
      "transferFrom(address,address,uint256)": {
        "details": "See `IERC20.transferFrom`.     * Emits an `Approval` event indicating the updated allowance. This is not required by the EIP. See the note at the beginning of `ERC20`;     * Requirements: - `sender` and `recipient` cannot be the zero address. - `sender` must have a balance of at least `value`. - the caller must have allowance for `sender`'s tokens of at least `amount`."
      },
      "transferGovernance(address)": {
        "details": "The current `governor` can assign a new `governor`",
        "params": {
          "_newGovernor": "<address> Address of new `governor`"
        }
      }
    }
  },
  "userdoc": {
    "methods": {}
  }
}