{
  "contractName": "ServiceRegistry",
  "abi": [
    {
      "constant": true,
      "inputs": [],
      "name": "governor",
      "outputs": [
        {
          "name": "",
          "type": "address"
        }
      ],
      "payable": false,
      "stateMutability": "view",
      "type": "function"
    },
    {
      "constant": false,
      "inputs": [
        {
          "name": "_newGovernor",
          "type": "address"
        }
      ],
      "name": "transferGovernance",
      "outputs": [
        {
          "name": "",
          "type": "bool"
        }
      ],
      "payable": false,
      "stateMutability": "nonpayable",
      "type": "function"
    },
    {
      "constant": true,
      "inputs": [
        {
          "name": "",
          "type": "address"
        }
      ],
      "name": "urls",
      "outputs": [
        {
          "name": "",
          "type": "bytes"
        }
      ],
      "payable": false,
      "stateMutability": "view",
      "type": "function"
    },
    {
      "inputs": [
        {
          "name": "_governor",
          "type": "address"
        }
      ],
      "payable": false,
      "stateMutability": "nonpayable",
      "type": "constructor"
    },
    {
      "anonymous": false,
      "inputs": [
        {
          "indexed": true,
          "name": "serviceProvider",
          "type": "address"
        },
        {
          "indexed": false,
          "name": "urlString",
          "type": "string"
        },
        {
          "indexed": false,
          "name": "urlBytes",
          "type": "bytes"
        }
      ],
      "name": "ServiceUrlSet",
      "type": "event"
    },
    {
      "anonymous": false,
      "inputs": [
        {
          "indexed": true,
          "name": "_from",
          "type": "address"
        },
        {
          "indexed": true,
          "name": "_to",
          "type": "address"
        }
      ],
      "name": "GovernanceTransferred",
      "type": "event"
    },
    {
      "constant": false,
      "inputs": [
        {
          "name": "_serviceProvider",
          "type": "address"
        },
        {
          "name": "_url",
          "type": "string"
        }
      ],
      "name": "setUrl",
      "outputs": [],
      "payable": false,
      "stateMutability": "nonpayable",
      "type": "function"
    }
  ],
  "bytecode": "0x608060405234801561001057600080fd5b506040516020806106898339810180604052602081101561003057600080fd5b505160008054600160a060020a03909216600160a060020a0319909216919091179055610627806100626000396000f3fe608060405234801561001057600080fd5b5060043610610068577c0100000000000000000000000000000000000000000000000000000000600035046305a22660811461006d5780630c340a24146100fc578063d38bfff41461012d578063d888e61414610174575b600080fd5b6100fa6004803603604081101561008357600080fd5b73ffffffffffffffffffffffffffffffffffffffff82351691908101906040810160208201356401000000008111156100bb57600080fd5b8201836020820111156100cd57600080fd5b803590602001918460018302840111640100000000831117156100ef57600080fd5b50909250905061021c565b005b6101046103e4565b6040805173ffffffffffffffffffffffffffffffffffffffff9092168252519081900360200190f35b6101606004803603602081101561014357600080fd5b503573ffffffffffffffffffffffffffffffffffffffff16610400565b604080519115158252519081900360200190f35b6101a76004803603602081101561018a57600080fd5b503573ffffffffffffffffffffffffffffffffffffffff166104c6565b6040805160208082528351818301528351919283929083019185019080838360005b838110156101e15781810151838201526020016101c9565b50505050905090810190601f16801561020e5780820380516001836020036101000a031916815260200191505b509250505060405180910390f35b3373ffffffffffffffffffffffffffffffffffffffff8416146102a057604080517f08c379a000000000000000000000000000000000000000000000000000000000815260206004820152601460248201527f6d73672e73656e646572206d7573742063616c6c000000000000000000000000604482015290519081900360640190fd5b606082828080601f016020809104026020016040519081016040528093929190818152602001838380828437600092018290525033815260016020908152604090912085519596506102fb9590945090860192509050610560565b508373ffffffffffffffffffffffffffffffffffffffff167ff0e891387313306f4cfd492429a61617047b7d34bebffc4303710cfd2d66bc9a84848460405180806020018060200183810383528686828181526020019250808284376000838201819052601f909101601f191690920185810384528651815286516020918201939188019250908190849084905b838110156103a1578181015183820152602001610389565b50505050905090810190601f1680156103ce5780820380516001836020036101000a031916815260200191505b509550505050505060405180910390a250505050565b60005473ffffffffffffffffffffffffffffffffffffffff1681565b6000805473ffffffffffffffffffffffffffffffffffffffff16331461048757604080517f08c379a000000000000000000000000000000000000000000000000000000000815260206004820152601760248201527f4f6e6c7920476f7665726e6f722063616e2063616c6c2e000000000000000000604482015290519081900360640190fd5b506000805473ffffffffffffffffffffffffffffffffffffffff831673ffffffffffffffffffffffffffffffffffffffff199091161790556001919050565b60016020818152600092835260409283902080548451600294821615610100026000190190911693909304601f81018390048302840183019094528383529192908301828280156105585780601f1061052d57610100808354040283529160200191610558565b820191906000526020600020905b81548152906001019060200180831161053b57829003601f168201915b505050505081565b828054600181600116156101000203166002900490600052602060002090601f016020900481019282601f106105a157805160ff19168380011785556105ce565b828001600101855582156105ce579182015b828111156105ce5782518255916020019190600101906105b3565b506105da9291506105de565b5090565b6105f891905b808211156105da57600081556001016105e4565b9056fea165627a7a7230582094f1cc883fdeeccc1327be7a2ae089f9758bcabce54da26fe69a37b40fee9bda0029",
  "source": "pragma solidity ^0.5.2;\n\nimport \"./Governed.sol\";\n\ncontract ServiceRegistry is Governed {\n\n    /*\n    * @title Graph Protocol Service Registry contract\n    *\n    * @author Bryant Eisenbach\n    * @author Reuven Etzion\n    *\n    * @notice Contract Specification:\n    *\n    * Requirements (\"Service Registry\" contract):\n    * req 01 Maps Ethereum Addresses to URLs\n    * req 02 No other contracts depend on this, rather is consumed by users of The Graph.\n    * ...\n    * @question - Who sets registeredUrls? Staking? (need interface)\n    */\n\n    /* EVENTS */\n    event ServiceUrlSet (address indexed serviceProvider, string urlString, bytes urlBytes);\n\n    /* Contract Constructor */\n    /* @param _governor <address> - Address of the multisig contract as Governor of this contract */\n    constructor (address _governor) public Governed(_governor) {}\n\n    /* STATE VARIABLES */\n    // Storage of a hashed top level domain to owners\n    mapping(address => bytes) public urls;\n\n    /* Graph Protocol Functions */\n\n    /*\n     * @notice Set service provider url from their address\n     * @dev Only msg.sender may do this\n     *\n     * @param _serviceProvider <address> - Address of the service provider\n     * @param _url <string> - URL of the service provider\n     */\n    function setUrl(address _serviceProvider, string calldata _url) external {\n        require(msg.sender == _serviceProvider, \"msg.sender must call\");\n        bytes memory url = bytes(_url);\n        urls[msg.sender] = url;\n        emit ServiceUrlSet(_serviceProvider, _url, url);\n    }\n}\n",
  "sourcePath": "/Users/davidkajpust/coding-no-icloud-backup/thegraph/dave/contracts/contracts/ServiceRegistry.sol",
  "compiler": {
    "name": "solc",
    "version": "0.5.2+commit.1df8f40c.Emscripten.clang"
  },
  "schemaVersion": "3.0.10",
  "updatedAt": "2019-09-04T17:42:45.491Z",
  "devdoc": {
    "methods": {
      "transferGovernance(address)": {
        "details": "The current `governor` can assign a new `governor`",
        "params": {
          "_newGovernor": "<address> Address of new `governor`"
        }
      }
    }
  },
  "userdoc": {
    "methods": {}
  }
}