{
  "contractName": "Staking",
  "abi": [
    {
      "constant": true,
      "inputs": [],
      "name": "minimumCurationStakingAmount",
      "outputs": [
        {
          "name": "",
          "type": "uint256"
        }
      ],
      "payable": false,
      "stateMutability": "view",
      "type": "function"
    },
    {
      "constant": true,
      "inputs": [],
      "name": "governor",
      "outputs": [
        {
          "name": "",
          "type": "address"
        }
      ],
      "payable": false,
      "stateMutability": "view",
      "type": "function"
    },
    {
      "constant": true,
      "inputs": [],
      "name": "maximumIndexers",
      "outputs": [
        {
          "name": "",
          "type": "uint256"
        }
      ],
      "payable": false,
      "stateMutability": "view",
      "type": "function"
    },
    {
      "constant": true,
      "inputs": [],
      "name": "graphSubgraphID",
      "outputs": [
        {
          "name": "",
          "type": "bytes32"
        }
      ],
      "payable": false,
      "stateMutability": "view",
      "type": "function"
    },
    {
      "constant": true,
      "inputs": [
        {
          "name": "",
          "type": "bytes32"
        }
      ],
      "name": "subgraphs",
      "outputs": [
        {
          "name": "reserveRatio",
          "type": "uint256"
        },
        {
          "name": "totalCurationStake",
          "type": "uint256"
        },
        {
          "name": "totalCurationShares",
          "type": "uint256"
        },
        {
          "name": "totalIndexingStake",
          "type": "uint256"
        },
        {
          "name": "totalIndexers",
          "type": "uint256"
        }
      ],
      "payable": false,
      "stateMutability": "view",
      "type": "function"
    },
    {
      "constant": true,
      "inputs": [
        {
          "name": "",
          "type": "address"
        }
      ],
      "name": "thawingTokens",
      "outputs": [
        {
          "name": "",
          "type": "uint256"
        }
      ],
      "payable": false,
      "stateMutability": "view",
      "type": "function"
    },
    {
      "constant": true,
      "inputs": [],
      "name": "version",
      "outputs": [
        {
          "name": "",
          "type": "string"
        }
      ],
      "payable": false,
      "stateMutability": "view",
      "type": "function"
    },
    {
      "constant": true,
      "inputs": [
        {
          "name": "",
          "type": "bytes32"
        },
        {
          "name": "",
          "type": "address"
        }
      ],
      "name": "indexingNodes",
      "outputs": [
        {
          "name": "amountStaked",
          "type": "uint256"
        },
        {
          "name": "feesAccrued",
          "type": "uint256"
        },
        {
          "name": "logoutStarted",
          "type": "uint256"
        }
      ],
      "payable": false,
      "stateMutability": "view",
      "type": "function"
    },
    {
      "constant": true,
      "inputs": [],
      "name": "arbitrator",
      "outputs": [
        {
          "name": "",
          "type": "address"
        }
      ],
      "payable": false,
      "stateMutability": "view",
      "type": "function"
    },
    {
      "constant": true,
      "inputs": [],
      "name": "minimumIndexingStakingAmount",
      "outputs": [
        {
          "name": "",
          "type": "uint256"
        }
      ],
      "payable": false,
      "stateMutability": "view",
      "type": "function"
    },
    {
      "constant": true,
      "inputs": [
        {
          "name": "",
          "type": "uint256"
        }
      ],
      "name": "graphIndexingNodeAddresses",
      "outputs": [
        {
          "name": "",
          "type": "address"
        }
      ],
      "payable": false,
      "stateMutability": "view",
      "type": "function"
    },
    {
      "constant": true,
      "inputs": [
        {
          "name": "",
          "type": "bytes32"
        },
        {
          "name": "",
          "type": "address"
        }
      ],
      "name": "curators",
      "outputs": [
        {
          "name": "subgraphShares",
          "type": "uint256"
        }
      ],
      "payable": false,
      "stateMutability": "view",
      "type": "function"
    },
    {
      "constant": true,
      "inputs": [
        {
          "name": "",
          "type": "address"
        }
      ],
      "name": "standbyTokens",
      "outputs": [
        {
          "name": "",
          "type": "uint256"
        }
      ],
      "payable": false,
      "stateMutability": "view",
      "type": "function"
    },
    {
      "constant": true,
      "inputs": [],
      "name": "thawingPeriod",
      "outputs": [
        {
          "name": "",
          "type": "uint256"
        }
      ],
      "payable": false,
      "stateMutability": "view",
      "type": "function"
    },
    {
      "constant": false,
      "inputs": [
        {
          "name": "_newGovernor",
          "type": "address"
        }
      ],
      "name": "transferGovernance",
      "outputs": [
        {
          "name": "",
          "type": "bool"
        }
      ],
      "payable": false,
      "stateMutability": "nonpayable",
      "type": "function"
    },
    {
      "constant": true,
      "inputs": [],
      "name": "defaultReserveRatio",
      "outputs": [
        {
          "name": "",
          "type": "uint256"
        }
      ],
      "payable": false,
      "stateMutability": "view",
      "type": "function"
    },
    {
      "constant": true,
      "inputs": [],
      "name": "token",
      "outputs": [
        {
          "name": "",
          "type": "address"
        }
      ],
      "payable": false,
      "stateMutability": "view",
      "type": "function"
    },
    {
      "constant": true,
      "inputs": [],
      "name": "slashingPercent",
      "outputs": [
        {
          "name": "",
          "type": "uint256"
        }
      ],
      "payable": false,
      "stateMutability": "view",
      "type": "function"
    },
    {
      "inputs": [
        {
          "name": "_governor",
          "type": "address"
        },
        {
          "name": "_minimumCurationStakingAmount",
          "type": "uint256"
        },
        {
          "name": "_defaultReserveRatio",
          "type": "uint256"
        },
        {
          "name": "_minimumIndexingStakingAmount",
          "type": "uint256"
        },
        {
          "name": "_maximumIndexers",
          "type": "uint256"
        },
        {
          "name": "_slashingPercent",
          "type": "uint256"
        },
        {
          "name": "_thawingPeriod",
          "type": "uint256"
        },
        {
          "name": "_token",
          "type": "address"
        }
      ],
      "payable": false,
      "stateMutability": "nonpayable",
      "type": "constructor"
    },
    {
      "anonymous": false,
      "inputs": [
        {
          "indexed": true,
          "name": "user",
          "type": "address"
        },
        {
          "indexed": false,
          "name": "amount",
          "type": "uint256"
        }
      ],
      "name": "Deposit",
      "type": "event"
    },
    {
      "anonymous": false,
      "inputs": [
        {
          "indexed": true,
          "name": "user",
          "type": "address"
        },
        {
          "indexed": false,
          "name": "amount",
          "type": "uint256"
        }
      ],
      "name": "Withdraw",
      "type": "event"
    },
    {
      "anonymous": false,
      "inputs": [
        {
          "indexed": true,
          "name": "staker",
          "type": "address"
        },
        {
          "indexed": false,
          "name": "subgraphID",
          "type": "bytes32"
        },
        {
          "indexed": false,
          "name": "curatorShares",
          "type": "uint256"
        },
        {
          "indexed": false,
          "name": "subgraphTotalCurationShares",
          "type": "uint256"
        },
        {
          "indexed": false,
          "name": "subgraphTotalCurationStake",
          "type": "uint256"
        }
      ],
      "name": "CuratorStaked",
      "type": "event"
    },
    {
      "anonymous": false,
      "inputs": [
        {
          "indexed": true,
          "name": "staker",
          "type": "address"
        },
        {
          "indexed": false,
          "name": "subgraphID",
          "type": "bytes32"
        },
        {
          "indexed": false,
          "name": "subgraphTotalCurationShares",
          "type": "uint256"
        },
        {
          "indexed": false,
          "name": "subgraphTotalCurationStake",
          "type": "uint256"
        }
      ],
      "name": "CuratorLogout",
      "type": "event"
    },
    {
      "anonymous": false,
      "inputs": [
        {
          "indexed": true,
          "name": "staker",
          "type": "address"
        },
        {
          "indexed": false,
          "name": "amountStaked",
          "type": "uint256"
        },
        {
          "indexed": false,
          "name": "subgraphID",
          "type": "bytes32"
        },
        {
          "indexed": false,
          "name": "subgraphTotalIndexingStake",
          "type": "uint256"
        }
      ],
      "name": "IndexingNodeStaked",
      "type": "event"
    },
    {
      "anonymous": false,
      "inputs": [
        {
          "indexed": true,
          "name": "staker",
          "type": "address"
        },
        {
          "indexed": false,
          "name": "subgraphID",
          "type": "bytes32"
        },
        {
          "indexed": false,
          "name": "unstakedAmount",
          "type": "uint256"
        },
        {
          "indexed": false,
          "name": "fees",
          "type": "uint256"
        }
      ],
      "name": "IndexingNodeBeginLogout",
      "type": "event"
    },
    {
      "anonymous": false,
      "inputs": [
        {
          "indexed": true,
          "name": "staker",
          "type": "address"
        },
        {
          "indexed": false,
          "name": "subgraphID",
          "type": "bytes32"
        }
      ],
      "name": "IndexingNodeFinalizeLogout",
      "type": "event"
    },
    {
      "anonymous": false,
      "inputs": [
        {
          "indexed": true,
          "name": "_subgraphId",
          "type": "bytes32"
        },
        {
          "indexed": true,
          "name": "_indexingNode",
          "type": "address"
        },
        {
          "indexed": true,
          "name": "_fisherman",
          "type": "address"
        },
        {
          "indexed": false,
          "name": "_disputeId",
          "type": "bytes32"
        },
        {
          "indexed": false,
          "name": "_attestation",
          "type": "bytes"
        }
      ],
      "name": "DisputeCreated",
      "type": "event"
    },
    {
      "anonymous": false,
      "inputs": [
        {
          "indexed": true,
          "name": "_disputeId",
          "type": "bytes32"
        },
        {
          "indexed": true,
          "name": "_subgraphId",
          "type": "bytes32"
        },
        {
          "indexed": true,
          "name": "_indexingNode",
          "type": "address"
        },
        {
          "indexed": false,
          "name": "_amount",
          "type": "uint256"
        }
      ],
      "name": "DisputeAccepted",
      "type": "event"
    },
    {
      "anonymous": false,
      "inputs": [
        {
          "indexed": true,
          "name": "_disputeId",
          "type": "bytes32"
        },
        {
          "indexed": true,
          "name": "_subgraphId",
          "type": "bytes32"
        },
        {
          "indexed": true,
          "name": "_fisherman",
          "type": "address"
        },
        {
          "indexed": false,
          "name": "_amount",
          "type": "uint256"
        }
      ],
      "name": "DisputeRejected",
      "type": "event"
    },
    {
      "anonymous": false,
      "inputs": [
        {
          "indexed": true,
          "name": "_from",
          "type": "address"
        },
        {
          "indexed": true,
          "name": "_to",
          "type": "address"
        }
      ],
      "name": "GovernanceTransferred",
      "type": "event"
    },
    {
      "constant": false,
      "inputs": [
        {
          "name": "_minimumCurationStakingAmount",
          "type": "uint256"
        }
      ],
      "name": "setMinimumCurationStakingAmount",
      "outputs": [
        {
          "name": "success",
          "type": "bool"
        }
      ],
      "payable": false,
      "stateMutability": "nonpayable",
      "type": "function"
    },
    {
      "constant": false,
      "inputs": [
        {
          "name": "_defaultReserveRatio",
          "type": "uint256"
        }
      ],
      "name": "updateDefaultReserveRatio",
      "outputs": [
        {
          "name": "success",
          "type": "bool"
        }
      ],
      "payable": false,
      "stateMutability": "nonpayable",
      "type": "function"
    },
    {
      "constant": false,
      "inputs": [
        {
          "name": "_minimumIndexingStakingAmount",
          "type": "uint256"
        }
      ],
      "name": "setMinimumIndexingStakingAmount",
      "outputs": [
        {
          "name": "success",
          "type": "bool"
        }
      ],
      "payable": false,
      "stateMutability": "nonpayable",
      "type": "function"
    },
    {
      "constant": false,
      "inputs": [
        {
          "name": "_maximumIndexers",
          "type": "uint256"
        }
      ],
      "name": "setMaximumIndexers",
      "outputs": [
        {
          "name": "success",
          "type": "bool"
        }
      ],
      "payable": false,
      "stateMutability": "nonpayable",
      "type": "function"
    },
    {
      "constant": false,
      "inputs": [
        {
          "name": "_slashingPercent",
          "type": "uint256"
        }
      ],
      "name": "updateSlashingPercentage",
      "outputs": [
        {
          "name": "success",
          "type": "bool"
        }
      ],
      "payable": false,
      "stateMutability": "nonpayable",
      "type": "function"
    },
    {
      "constant": false,
      "inputs": [
        {
          "name": "_thawingPeriod",
          "type": "uint256"
        }
      ],
      "name": "updateThawingPeriod",
      "outputs": [
        {
          "name": "success",
          "type": "bool"
        }
      ],
      "payable": false,
      "stateMutability": "nonpayable",
      "type": "function"
    },
    {
      "constant": false,
      "inputs": [
        {
          "name": "_arbitrator",
          "type": "address"
        }
      ],
      "name": "setArbitrator",
      "outputs": [
        {
          "name": "success",
          "type": "bool"
        }
      ],
      "payable": false,
      "stateMutability": "nonpayable",
      "type": "function"
    },
    {
      "constant": false,
      "inputs": [
        {
          "name": "_subgraphID",
          "type": "bytes32"
        },
        {
          "name": "_newIndexers",
          "type": "address[]"
        }
      ],
      "name": "setGraphSubgraphID",
      "outputs": [
        {
          "name": "success",
          "type": "bool"
        }
      ],
      "payable": false,
      "stateMutability": "nonpayable",
      "type": "function"
    },
    {
      "constant": true,
      "inputs": [],
      "name": "numberOfGraphIndexingNodeAddresses",
      "outputs": [
        {
          "name": "count",
          "type": "uint256"
        }
      ],
      "payable": false,
      "stateMutability": "view",
      "type": "function"
    },
    {
      "constant": false,
      "inputs": [
        {
          "name": "_from",
          "type": "address"
        },
        {
          "name": "_value",
          "type": "uint256"
        }
      ],
      "name": "tokensReceived",
      "outputs": [
        {
          "name": "success",
          "type": "bool"
        }
      ],
      "payable": false,
      "stateMutability": "nonpayable",
      "type": "function"
    },
    {
      "constant": false,
      "inputs": [
        {
          "name": "_value",
          "type": "uint256"
        },
        {
          "name": "_data",
          "type": "bytes"
        }
      ],
      "name": "stake",
      "outputs": [
        {
          "name": "success",
          "type": "bool"
        }
      ],
      "payable": false,
      "stateMutability": "nonpayable",
      "type": "function"
    },
    {
      "constant": false,
      "inputs": [
        {
          "name": "_value",
          "type": "uint256"
        }
      ],
      "name": "tokensWithdrawn",
      "outputs": [
        {
          "name": "success",
          "type": "bool"
        }
      ],
      "payable": false,
      "stateMutability": "nonpayable",
      "type": "function"
    },
    {
      "constant": true,
      "inputs": [
        {
          "name": "_purchaseTokens",
          "type": "uint256"
        },
        {
          "name": "_currentTokens",
          "type": "uint256"
        },
        {
          "name": "_currentShares",
          "type": "uint256"
        },
        {
          "name": "_reserveRatio",
          "type": "uint256"
        }
      ],
      "name": "stakeToShares",
      "outputs": [
        {
          "name": "issuedShares",
          "type": "uint256"
        }
      ],
      "payable": false,
      "stateMutability": "view",
      "type": "function"
    },
    {
      "constant": true,
      "inputs": [
        {
          "name": "_returnedShares",
          "type": "uint256"
        },
        {
          "name": "_currentTokens",
          "type": "uint256"
        },
        {
          "name": "_currentShares",
          "type": "uint256"
        },
        {
          "name": "_reserveRatio",
          "type": "uint256"
        }
      ],
      "name": "sharesToStake",
      "outputs": [
        {
          "name": "refundTokens",
          "type": "uint256"
        }
      ],
      "payable": false,
      "stateMutability": "view",
      "type": "function"
    },
    {
      "constant": false,
      "inputs": [
        {
          "name": "_subgraphId",
          "type": "bytes32"
        },
        {
          "name": "_numShares",
          "type": "uint256"
        }
      ],
      "name": "curatorLogout",
      "outputs": [],
      "payable": false,
      "stateMutability": "nonpayable",
      "type": "function"
    },
    {
      "constant": false,
      "inputs": [
        {
          "name": "_subgraphId",
          "type": "bytes32"
        }
      ],
      "name": "beginLogout",
      "outputs": [],
      "payable": false,
      "stateMutability": "nonpayable",
      "type": "function"
    },
    {
      "constant": false,
      "inputs": [
        {
          "name": "_subgraphId",
          "type": "bytes32"
        }
      ],
      "name": "finalizeLogout",
      "outputs": [],
      "payable": false,
      "stateMutability": "nonpayable",
      "type": "function"
    },
    {
      "constant": true,
      "inputs": [
        {
          "name": "_value",
          "type": "uint256"
        }
      ],
      "name": "getRewardForValue",
      "outputs": [
        {
          "name": "",
          "type": "uint256"
        }
      ],
      "payable": false,
      "stateMutability": "view",
      "type": "function"
    },
    {
      "constant": false,
      "inputs": [
        {
          "name": "_disputeId",
          "type": "bytes32"
        }
      ],
      "name": "verifyDispute",
      "outputs": [
        {
          "name": "success",
          "type": "bool"
        }
      ],
      "payable": false,
      "stateMutability": "nonpayable",
      "type": "function"
    },
    {
      "constant": false,
      "inputs": [
        {
          "name": "_disputeId",
          "type": "bytes32"
        }
      ],
      "name": "rejectDispute",
      "outputs": [
        {
          "name": "success",
          "type": "bool"
        }
      ],
      "payable": false,
      "stateMutability": "nonpayable",
      "type": "function"
    },
    {
      "constant": false,
      "inputs": [
        {
          "name": "_subgraphId",
          "type": "bytes32"
        }
      ],
      "name": "unlockFees",
      "outputs": [],
      "payable": false,
      "stateMutability": "nonpayable",
      "type": "function"
    }
  ],
  "bytecode": "0x60c0604052600360808190527f302e33000000000000000000000000000000000000000000000000000000000060a0908152620000409160019190620008a5565b503480156200004e57600080fd5b5060405161010080620040fb83398101806040526101008110156200007257600080fd5b508051602082015160408084015160608086015160808088015160a089015160c08a015160e0909a015160008054600160a060020a039b8c16600160a060020a031991821617918290556001606060020a641c35fedd1502036022556001605e60020a646c3390ecc902036023556001606160020a640cf801476102036024556001605f60020a6431bdb23e1d02036025556001605b60020a6502fb1d8fe08302036026556001605a60020a6505b771955b3702036027556001605960020a650af67a93bb5102036028556001605860020a6515060c256cb302036029556001605860020a651428a2f98d730203602a556001605660020a654d51566397090203602b556001605560020a65944620b0e70f0203602c557011c592761c666fffffffffffffffffffff602d5570110a688680a757ffffffffffffffffffff602e55701056f1b5bedf77ffffffffffffffffffff602f55700faadceceeff8bffffffffffffffffffff603055700f05dc6b27edadffffffffffffffffffff603155700e67a5a25da4107fffffffffffffffffff603255700dcff115b14eedffffffffffffffffffff603355700d3e7a392431239fffffffffffffffffff603455700cb2ff529eb71e4fffffffffffffffffff603555700c2d415c3db974afffffffffffffffffff603655700bad03e7d883f69bffffffffffffffffff603755700b320d03b2c343d5ffffffffffffffffff603855700abc25204e02828dffffffffffffffffff603955700a4b16f74ee4bb207fffffffffffffffff603a557009deaf736ac1f569ffffffffffffffffff603b55700976bd9952c7aa957fffffffffffffffff603c557009131271922eaa606fffffffffffffffff603d557008b380f3558668c46fffffffffffffffff603e55700857ddf0117efa215bffffffffffffffff603f556001608360020a039099557007abbf6f6abb9d087fffffffffffffffff60415570075af62cbac95f7dfa7fffffffffffffff60425570070d7fb7452e187ac13fffffffffffffff6043557006c3390ecc8af379295fffffffffffffff60445570067c00a3b07ffc01fd6fffffffffffffff604555700637b647c39cbb9d3d27ffffffffffffff6046557005f63b1fc104dbd39587ffffffffffffff6047557005b771955b36e12f7235ffffffffffffff60485570057b3d49dda84556d6f6ffffffffffffff60495570054183095b2c8ececf30ffffffffffffff604a5570050a28be635ca2b888f77fffffffffffff604b557004d5156639708c9db33c3fffffffffffff604c557004a23105873875bd52dfdfffffffffffff604d55700471649d87199aa990756fffffffffffff604e557004429a21a029d4c1457cfbffffffffffff604f55700415bc6d6fb7dd71af2cb3ffffffffffff6050557003eab73b3bbfe282243ce1ffffffffffff6051557003c1771ac9fb6b4c18e229ffffffffffff605255700399e96897690418f785257fffffffffff605355700373fc456c53bb779bf0ea9fffffffffff60545570034f9e8e490c48e67e6ab8bfffffffffff60555570032cbfd4a7adc790560b3337ffffffffff60565570030b50570f6e5d2acca94613ffffffffff6057557002eb40f9f620fda6b56c2861ffffffffff6058557002cc8340ecb0d0f520a6af58ffffffffff6059557002af09481380a0a35cf1ba02ffffffffff605a55700292c5bdd3b92ec810287b1b3fffffffff605b55700277abdcdab07d5a77ac6d6b9fffffffff605c5570025daf6654b1eaa55fd64df5efffffffff605d55700244c49c648baa98192dce88b7ffffffff605e5570022ce03cd5619a311b2471268bffffffff605f55700215f77c045fbe885654a44a0fffffffff9096556001608160020a036061557001eaefdbdaaee7421fc4d3ede5ffffffff6062557001d6bd8b2eb257df7e8ca57b09bfffffff6063557001c35fedd14b861eb0443f7f133fffffff6064557001b0ce43b322bcde4a56e8ada5afffffff60655570019f0028ec1fff007f5a195a39dfffffff60665570018ded91f0e72ee74f49b15ba527ffffff60675570017d8ec7f04136f4e5615fd41a63ffffff60685570016ddc6556cdb84bdc8d12d22e6fffffff60695570015ecf52776a1155b5bd8395814f7fffff606a5570015060c256cb23b3b3cc3754cf40ffffff606b557001428a2f98d728ae223ddab715be3fffff606c5570013545598e5c23276ccf0ede68034fffff606d557001288c4161ce1d6f54b7f61081194fffff606e5570011c592761c666aa641d5a01a40f17ffff606f55700110a688680a7530515f3e6e6cfdcdffff6070557001056f1b5bedf75c6bcb2ce8aed428ffff6071556ffaadceceeff8a0890f3875f008277fff6072556ff05dc6b27edad306388a600f6ba0bfff6073556fe67a5a25da41063de1495d5b18cdbfff6074556fdcff115b14eedde6fc3aa5353f2e4fff6075556fd3e7a3924312399f9aae2e0f868f8fff6076556fcb2ff529eb71e41582cccd5a1ee26fff6077556fc2d415c3db974ab32a51840c0b67edff6078556fbad03e7d883f69ad5b0a186184e06bff6079556fb320d03b2c343d4829abd6075f0cc5ff607a556fabc25204e02828d73c6e80bcdb1a95bf607b556fa4b16f74ee4bb2040a1ec6c15fbbf2df607c556f9deaf736ac1f569deb1b5ae3f36c130f607d556f976bd9952c7aa957f5937d790ef65037607e556f9131271922eaa6064b73a22d0bd4f2bf607f556f8b380f3558668c46c91c49a2f8e967b99093556f857ddf0117efa215952912839f6473e660815560829790975560839490945560849190915560859290925560869390935560879490945560908054821692841692909217909155609180549290931691161790556200094a565b828054600181600116156101000203166002900490600052602060002090601f016020900481019282601f10620008e857805160ff191683800117855562000918565b8280016001018555821562000918579182015b8281111562000918578251825591602001919060010190620008fb565b50620009269291506200092a565b5090565b6200094791905b8082111562000926576000815560010162000931565b90565b6137a1806200095a6000396000f3fe608060405234801561001057600080fd5b506004361061025a576000357c0100000000000000000000000000000000000000000000000000000000900480636ee8523211610158578063bf6ed02b116100d5578063dcbbee9d11610099578063dcbbee9d146107ad578063dddab01d146107ca578063eba0c8a1146107e7578063fc0c546a146107ef578063ff2b3136146107f75761025a565b8063bf6ed02b1461071f578063c010da1d1461073c578063cdc747dd14610762578063cf428f231461076a578063d38bfff4146107875761025a565b8063a1374fb51161011c578063a1374fb514610664578063a216c5c914610681578063ac6082e9146106b0578063b0eefabe146106cd578063b64cfd31146106f35761025a565b80636ee85232146105fd578063765990391461061a578063950b87dc146106375780639779a878146106545780639d9cec4a1461065c5761025a565b80633a6b238c116101e65780634a1ab093116101aa5780634a1ab093146104e357806354fd4d5014610509578063574a36fc146105865780635929ec8d146105ab5780636cc6cde1146105f55761025a565b80633a6b238c1461043f5780633cf6b52b146104475780634476a5dc1461044f578063491c928e1461047e5780634986594f1461049b5761025a565b806312281ebe1161022d57806312281ebe1461034557806318c836321461036257806324a756d11461037f5780632f483128146103ab57806336167e03146104225761025a565b806306e2bd321461025f578063080b5958146102905780630c340a24146102aa5780630e89439b146102ce575b600080fd5b61027c6004803603602081101561027557600080fd5b50356107ff565b604080519115158252519081900360200190f35b610298610863565b60408051918252519081900360200190f35b6102b2610869565b60408051600160a060020a039092168252519081900360200190f35b61027c600480360360408110156102e457600080fd5b8135919081019060408101602082013564010000000081111561030657600080fd5b82018360208201111561031857600080fd5b8035906020019184600183028401116401000000008311171561033a57600080fd5b509092509050610878565b6102986004803603602081101561035b57600080fd5b5035610abc565b61027c6004803603602081101561037857600080fd5b5035610ac9565b61027c6004803603604081101561039557600080fd5b50600160a060020a038135169060200135610b28565b61027c600480360360408110156103c157600080fd5b813591908101906040810160208201356401000000008111156103e357600080fd5b8201836020820111156103f557600080fd5b8035906020019184602083028401116401000000008311171561041757600080fd5b509092509050610b9f565b61027c6004803603602081101561043857600080fd5b5035610c11565b610298610cf8565b610298610cfe565b6102986004803603608081101561046557600080fd5b5080359060208101359060408101359060600135610d04565b61027c6004803603602081101561049457600080fd5b5035610d1b565b6104b8600480360360208110156104b157600080fd5b5035610d97565b6040805195865260208601949094528484019290925260608401526080830152519081900360a00190f35b610298600480360360208110156104f957600080fd5b5035600160a060020a0316610dc6565b610511610dd8565b6040805160208082528351818301528351919283929083019185019080838360005b8381101561054b578181015183820152602001610533565b50505050905090810190601f1680156105785780820380516001836020036101000a031916815260200191505b509250505060405180910390f35b6105a96004803603604081101561059c57600080fd5b5080359060200135610e65565b005b6105d7600480360360408110156105c157600080fd5b5080359060200135600160a060020a0316610ff0565b60408051938452602084019290925282820152519081900360600190f35b6102b261101c565b6105a96004803603602081101561061357600080fd5b503561102b565b61027c6004803603602081101561063057600080fd5b5035611084565b6105a96004803603602081101561064d57600080fd5b5035611197565b61029861131b565b610298611321565b61027c6004803603602081101561067a57600080fd5b5035611328565b6102986004803603608081101561069757600080fd5b5080359060208101359060408101359060600135611387565b6102b2600480360360208110156106c657600080fd5b5035611395565b61027c600480360360208110156106e357600080fd5b5035600160a060020a03166113bd565b6102986004803603604081101561070957600080fd5b5080359060200135600160a060020a0316611445565b61027c6004803603602081101561073557600080fd5b5035611462565b6102986004803603602081101561075257600080fd5b5035600160a060020a03166114c1565b6102986114d3565b61027c6004803603602081101561078057600080fd5b50356114d9565b61027c6004803603602081101561079d57600080fd5b5035600160a060020a0316611556565b6105a9600480360360208110156107c357600080fd5b50356115de565b61027c600480360360208110156107e057600080fd5b503561169f565b61029861193f565b6102b2611945565b610298611954565b60008054600160a060020a03163314610855576040805160008051602061364e833981519152815260206004820152601760248201526000805160206135e2833981519152604482015290519081900360640190fd5b50608781905560015b919050565b60825481565b600054600160a060020a031681565b6000602182101561088857600080fd5b60006108e860006108dc6000600188888080601f01602080910402602001604051908101604052809392919081815260200183838082843760009201919091525092949392505063ffffffff61195a169050565b9063ffffffff6119dc16565b60ff1660038111156108f657fe5b90506000610958600061094c6001602089898080601f01602080910402602001604051908101604052809392919081815260200183838082843760009201919091525092949392505063ffffffff61195a169050565b9063ffffffff611a0016565b9050600082600381111561096857fe5b141561097e57610979813388611a1e565b610ab0565b600182600381111561098c57fe5b141561099d57610979813388611bd1565b60028260038111156109ab57fe5b1415610a215760e684146109be57600080fd5b6060610a0d602160c588888080601f01602080910402602001604051908101604052809392919081815260200183838082843760009201919091525092949392505063ffffffff61195a169050565b9050610a1b8183338a611d80565b50610ab0565b6003826003811115610a2f57fe5b141561025a576035841015610a4357600080fd5b6000610aa36000610a97604160148a8a8080601f01602080910402602001604051908101604052809392919081815260200183838082843760009201919091525092949392505063ffffffff61195a169050565b9063ffffffff61222716565b9050610a1b828289612255565b50600195945050505050565b608654620f424091020490565b60008054600160a060020a03163314610b1f576040805160008051602061364e833981519152815260206004820152601760248201526000805160206135e2833981519152604482015290519081900360640190fd5b50608555600190565b609154600090600160a060020a03163314610b4257600080fd5b50600160a060020a0382166000818152608a602090815260409182902080548501905581518481529151600193927fe1fffcc4923d04b559f4d29a8bfc6cda04eb5b0d3c460751c2402c5c5cc9109c92908290030190a292915050565b60008054600160a060020a03163314610bf5576040805160008051602061364e833981519152815260206004820152601760248201526000805160206135e2833981519152604482015290519081900360640190fd5b608d849055610c06608c8484613540565b506001949350505050565b609054600090600160a060020a03163314610c2b57600080fd5b6000828152608f6020526040812060030154908111610c4957600080fd5b6000838152608f60209081526040808320600281018054825486845560018401805473ffffffffffffffffffffffffffffffffffffffff19908116909155821690925560039092018590558454600160a060020a039081168652608a85529483902080548701905582518681529251949091169390928492849289927fe7fff7c32c5a94f1c3a59c21e0b61709520606a997fd483fe7df08873afeeb97928290030190a4506001949350505050565b60855481565b608d5481565b6000610d12838584886122c4565b95945050505050565b60008054600160a060020a03163314610d71576040805160008051602061364e833981519152815260206004820152601760248201526000805160206135e2833981519152604482015290519081900360640190fd5b60008211610d7e57600080fd5b620f4240821115610d8e57600080fd5b50608355600190565b608e60205260009081526040902080546001820154600283015460038401546004909401549293919290919085565b608b6020526000908152604090205481565b60018054604080516020600284861615610100026000190190941693909304601f81018490048402820184019092528181529291830182828015610e5d5780601f10610e3257610100808354040283529160200191610e5d565b820191906000526020600020905b815481529060010190602001808311610e4057829003601f168201915b505050505081565b6000828152608860209081526040808320338452909152902054811115610e8b57600080fd5b6000828152608e60205260408120600181015460028201549154610eb192859291611387565b6000848152608860209081526040808320338085529083528184208054898652608e8552838620600181018054899003905582548a9003909255600290910180548990039055908452608a90925290912080548301905590915082148015610f74576000848152608e6020908152604091829020600281015460019091015483518881529283019190915281830152905133917f3cf8210940110eec0dc0aaf12dc1c21326f12f7cf91c308a50933cfe7c6c404c919081900360600190a2610fea565b60008481526088602090815260408083203380855290835281842054888552608e845293829020600281015460019091015483518a815294850195909552838301526060830193909352517f78ce8d7e6ebc748e1ac3e6732fe2553aff9ac8078ae2a4cb4d7d98fffef6d4e79181900360800190a25b50505050565b608960209081526000928352604080842090915290825290208054600182015460029092015490919083565b609054600160a060020a031681565b600081815260896020908152604080832033845290915281206001015490811161105457600080fd5b60009182526089602090815260408084203385528252808420600101849055608a90915290912080549091019055565b336000908152608a60205260408120548211156110a057600080fd5b50336000818152608a602090815260408083208054869003905560915481517fa9059cbb0000000000000000000000000000000000000000000000000000000081526004810195909552602485018690529051600194600160a060020a039092169363a9059cbb93604480850194919392918390030190829087803b15801561112857600080fd5b505af115801561113c573d6000803e3d6000fd5b505050506040513d602081101561115257600080fd5b5051151561115c57fe5b60408051838152905133917f884edad9ce6fa2440d8a54cc123490eb96d2768479d49ff9c7366125a9424364919081900360200190a2919050565b6000818152608960209081526040808320338452909152812054116111bb57600080fd5b6000818152608960209081526040808320338452909152902060020154156111e257600080fd5b60008181526089602090815260408083203384529091528120426002820155805482825560019091018054929055608d549091908314156112ab57600080611229336123a3565b90925090508115156112745760405160008051602061364e833981519152815260040180806020018281038252604c815260200180613602604c913960600191505060405180910390fd5b608c80548290811061128257fe5b6000918252602090912001805473ffffffffffffffffffffffffffffffffffffffff1916905550505b6000838152608e602090815260408083206003018054869003905533808452608b83529281902080548587010190558051868152918201859052818101849052517fa2c6dba7fc952eb84f410e7326b541a087b97c75f5add36e7235aef05f4961869181900360600190a2505050565b60845481565b608c545b90565b60008054600160a060020a0316331461137e576040805160008051602061364e833981519152815260206004820152601760248201526000805160206135e2833981519152604482015290519081900360640190fd5b50608255600190565b6000610d1283858488612401565b608c8054829081106113a357fe5b600091825260209091200154600160a060020a0316905081565b60008054600160a060020a03163314611413576040805160008051602061364e833981519152815260206004820152601760248201526000805160206135e2833981519152604482015290519081900360640190fd5b5060908054600160a060020a03831673ffffffffffffffffffffffffffffffffffffffff199091161790556001919050565b608860209081526000928352604080842090915290825290205481565b60008054600160a060020a031633146114b8576040805160008051602061364e833981519152815260206004820152601760248201526000805160206135e2833981519152604482015290519081900360640190fd5b50608455600190565b608a6020526000908152604090205481565b60875481565b60008054600160a060020a0316331461152f576040805160008051602061364e833981519152815260206004820152601760248201526000805160206135e2833981519152604482015290519081900360640190fd5b600082101561153d57600080fd5b620f424082111561154d57600080fd5b50608655600190565b60008054600160a060020a031633146115ac576040805160008051602061364e833981519152815260206004820152601760248201526000805160206135e2833981519152604482015290519081900360640190fd5b5060008054600160a060020a03831673ffffffffffffffffffffffffffffffffffffffff199091161790556001919050565b6087546000828152608960209081526040808320338452909152902060020154429101111561160c57600080fd5b60008181526089602090815260408083203380855290835281842084815560018101859055600201849055848452608e83528184206004018054600019019055808452608b8352818420805490859055608a8452938290208054850190558151858152915190927f7ea570f09208d0f5a8d98d571e49d635a15e925fdd3c1f89c69db89b73809545928290030190a25050565b609054600090600160a060020a031633146116b957600080fd5b6000828152608f60205260408120600301549081116116d757600080fd5b6000838152608f60209081526040808320600280820180546001808501805486548a885573ffffffffffffffffffffffffffffffffffffffff19808316909355918416909455600390950188905584885260898752858820600160a060020a03938416808a529752948720805495810180548983559089905593018790551694919291821161176257fe5b600061176d83610abc565b90508281111561177957fe5b608d548414156118115760008061178f876123a3565b90925090508115156117da5760405160008051602061364e833981519152815260040180806020018281038252604c815260200180613602604c913960600191505060405180910390fd5b608c8054829081106117e857fe5b6000918252602090912001805473ffffffffffffffffffffffffffffffffffffffff1916905550505b6000848152608e60209081526040918290206003810180548790039055600401805460001901905581518681529081018590528082018490529051600160a060020a038716917fa2c6dba7fc952eb84f410e7326b541a087b97c75f5add36e7235aef05f496186919081900360600190a2604080518581529051600160a060020a038716917f7ea570f09208d0f5a8d98d571e49d635a15e925fdd3c1f89c69db89b73809545919081900360200190a260008054600160a060020a039081168252608a602090815260408084208054868903880101905589831684529283902080548b8601019055825184815292519188169287928d927f81880dae5e2afe447b6f84038e1c8ca8564e3b5df81b01a0cc395b0e8d1ab29c928290030190a450600198975050505050505050565b60835481565b609154600160a060020a031681565b60865481565b606081830184511015151561196e57600080fd5b606082158015611989576040519150602082016040526119d3565b6040519150601f8416801560200281840101858101878315602002848b0101015b818310156119c25780518352602092830192016119aa565b5050858452601f01601f1916604052505b50949350505050565b6000816001018351101515156119f157600080fd5b50818101600101515b92915050565b600081602001835110151515611a1557600080fd5b50016020015190565b608d54831415611a98576000611a33836123a3565b509050801515611a9657608c80546001810182556000919091527f5f2f2dca1d951c7429b52007f396328c64c25e226c1867318158f7f2cbdd40a901805473ffffffffffffffffffffffffffffffffffffffff1916600160a060020a0385161790555b505b600083815260896020908152604080832033845290915290206002015415611abf57600080fd5b6084546000848152608960209081526040808320600160a060020a038716845290915290205482011015611af257600080fd5b6000838152608960209081526040808320600160a060020a03861684529091529020541515611b34576000838152608e60205260409020600401805460010190555b6000838152608960209081526040808320600160a060020a038616808552908352818420805486018155878552608e808552838620600301805488018155838752608a8652848720805489900390559154958990528452548251948552928401879052838201929092525190917fa146e0a8c028b26627488d5687d7e865a62c7a470057c134540302ffd85a2599919081900360600190a2505050565b6000838152608e602052604090206001015481810111611bf057600080fd5b6000838152608e602052604090206001015481901515611c6457608254811015611c1957600080fd5b6083546000858152608e6020818152604080842094855560888252808420600160a060020a038916855282528320600190819055928890525260028201819055608254910181905590035b6000811115611cfc576000848152608e60205260408120600181015460028201549154611c9392859291610d04565b6000868152608e602081815260408084206001810180548901905560888352818520600160a060020a038b1686528352818520805487019055600201805486018155608a8352908420805489900390559289905252549091506127101015611cfa57600080fd5b505b6000848152608860209081526040808320600160a060020a03871680855290835281842054888552608e845293829020600281015460019091015483518a815294850195909552838301526060830193909352517f78ce8d7e6ebc748e1ac3e6732fe2553aff9ac8078ae2a4cb4d7d98fffef6d4e79181900360800190a250505050565b600060408051808061368f605f91396040805191829003605f0182207f47726170682050726f746f636f6c0000000000000000000000000000000000008352815192839003600e0183207f302e31000000000000000000000000000000000000000000000000000000000084528251938490036003018420602080860193909352848401919091526060840152600160808401523060a084015260c08084018a90528251808503909101815260e090930191829052825192019190912091508060886136ee82396040519081900360880190209050611e68886000608463ffffffff61195a16565b6040805160208082018581528284019384528451606084015284519093926080019185019080838360005b83811015611eab578181015183820152602001611e93565b50505050905090810190601f168015611ed85780820380516001836020036101000a031916815260200191505b5093505050506040516020818303038152906040528051906020012060405160200180806020018560ff1681526020018481526020018381526020018281038252601a8152602001807f19457468657265756d205369676e6564204d6573736167653a0a0000000000008152506020019450505050506040516020818303038152906040528051906020012090506000806000611f85604160c50360418a61195a9092919063ffffffff16565b8060200190516060811015611f9957600080fd5b508051602080830151604093840151845160008082528185018088528b905260ff86168288015260608201849052608082018390529551949850919650945060019260a08083019392601f198301929081900390910190855afa158015612004573d6000803e3d6000fd5b505060408051601f19015160008b815260896020908152838220600160a060020a03841683529052918220549093509150811161204057600080fd5b61204981610abc565b87101561205557600080fd5b6000868152608f6020526040902060020154600160a060020a03161561207a57600080fd5b6080604051908101604052808a815260200183600160a060020a0316815260200189600160a060020a0316815260200188815250608f60008881526020019081526020016000206000820151816000015560208201518160010160006101000a815481600160a060020a030219169083600160a060020a0316021790555060408201518160020160006101000a815481600160a060020a030219169083600160a060020a031602179055506060820151816003015590505086608a600033600160a060020a0316600160a060020a031681526020019081526020016000206000828254039250508190555087600160a060020a031682600160a060020a03168a7f0ce4a35106ce44a02ec4cb56d058ed68f324486438c0cbb879d975e635f4f361898e6040518083815260200180602001828103825283818151815260200191508051906020019080838360005b838110156121e05781810151838201526020016121c8565b50505050905090810190601f16801561220d5780820380516001836020036101000a031916815260200191505b50935050505060405180910390a450505050505050505050565b60008160140183511015151561223c57600080fd5b5001602001516c01000000000000000000000000900490565b6000838152608e6020526040902060020154606402620f4240811061227657fe5b6000848152608960209081526040808320338452825280832060019081018054620f42409688029690960496879003909501909455958252608e905293909320909201805490920190915550565b600080851180156122d55750600084115b80156122e7575060008363ffffffff16115b80156122fc5750620f424063ffffffff841611155b151561230757600080fd5b8115156123165750600061239b565b63ffffffff8316620f424014156123495783612338868463ffffffff6124e316565b81151561234157fe5b04905061239b565b6000808061235d858863ffffffff61254f16565b905061236e818888620f42406125b1565b9093509150600060ff83166123898a8663ffffffff6124e316565b60029190910a90048990039450505050505b949350505050565b60008060005b608c548110156123fb5783600160a060020a0316608c828154811015156123cc57fe5b600091825260209091200154600160a060020a031614156123f357809150600192506123fb565b6001016123a9565b50915091565b600080851180156124125750600084115b8015612424575060008363ffffffff16115b80156124395750620f424063ffffffff841611155b80156124455750848211155b151561245057600080fd5b81151561245f5750600061239b565b8482141561246e57508261239b565b63ffffffff8316620f424014156124905784612338858463ffffffff6124e316565b6000808387036124a58882620f4240896125b1565b909350915060006124bc888563ffffffff6124e316565b905060ff831660020a8802848183038115156124d457fe5b049a9950505050505050505050565b60008215156124f4575060006119fa565b82820282848281151561250357fe5b04146125485760405160008051602061364e833981519152815260040180806020018281038252602181526020018061366e6021913960400191505060405180910390fd5b9392505050565b600082820183811015612548576040805160008051602061364e833981519152815260206004820152601b60248201527f536166654d6174683a206164646974696f6e206f766572666c6f770000000000604482015290519081900360640190fd5b60008070020000000000000000000000000000000086106125d157600080fd5b60008086607f60020a89028115156125e557fe5b04905070015bf0a8b1457695355fb8ac404e7a79e38110156126115761260a816126a4565b915061261d565b61261a81612ac9565b91505b60008563ffffffff168763ffffffff16840281151561263857fe5b04905070080000000000000000000000000000000081101561266b5761265d81612b97565b607f9450945050505061269b565b600061267682612fa4565b905061268e60ff607f8390031660020a830482613034565b9550935061269b92505050565b94509492505050565b6000808080806fd3094c70f034de4b96ff7d5b6f99fcd886106126f3576f4000000000000000000000000000000093909301926fd3094c70f034de4b96ff7d5b6f99fcd8607f60020a87020495505b6fa45af1e1f40c333b3de1db4dd55f29a7861061273c576f2000000000000000000000000000000093909301926fa45af1e1f40c333b3de1db4dd55f29a7607f60020a87020495505b6f910b022db7ae67ce76b441c27035c6a18610612785576f1000000000000000000000000000000093909301926f910b022db7ae67ce76b441c27035c6a1607f60020a87020495505b6f88415abbe9a76bead8d00cf112e4d4a886106127ce576f0800000000000000000000000000000093909301926f88415abbe9a76bead8d00cf112e4d4a8607f60020a87020495505b6f84102b00893f64c705e841d5d4064bd38610612817576f0400000000000000000000000000000093909301926f84102b00893f64c705e841d5d4064bd3607f60020a87020495505b6f8204055aaef1c8bd5c3259f4822735a28610612860576f0200000000000000000000000000000093909301926f8204055aaef1c8bd5c3259f4822735a2607f60020a87020495505b6f810100ab00222d861931c15e39b44e9986106128a9576f0100000000000000000000000000000093909301926f810100ab00222d861931c15e39b44e99607f60020a87020495505b6f808040155aabbbe9451521693554f73386106128f1576e80000000000000000000000000000093909301926f808040155aabbbe9451521693554f733607f60020a87020495505b6f7fffffffffffffffffffffffffffffff1986019250829150607f60020a8280020490507001000000000000000000000000000000008381038302049390930192607f60020a8282020491507002000000000000000000000000000000006faaaaaaaaaaaaaaaaaaaaaaaaaaaaaaaa8490038302049390930192607f60020a8282020491507003000000000000000000000000000000006f999999999999999999999999999999998490038302049390930192607f60020a8282020491507004000000000000000000000000000000006f924924924924924924924924924924928490038302049390930192607f60020a8282020491507005000000000000000000000000000000006f8e38e38e38e38e38e38e38e38e38e38e8490038302049390930192607f60020a8282020491507006000000000000000000000000000000006f8ba2e8ba2e8ba2e8ba2e8ba2e8ba2e8b8490038302049390930192607f60020a8282020491507007000000000000000000000000000000006f89d89d89d89d89d89d89d89d89d89d898490038302049390930192607f60020a8282020491507008000000000000000000000000000000006f888888888888888888888888888888888490038302049390930195945050505050565b6000807001000000000000000000000000000000008310612b0b576000612af5607f60020a85046134d6565b60ff16600281900a90940493607f60020a029150505b607f60020a831115612b6b57607f5b60008160ff161115612b6957607f60020a8480020493507001000000000000000000000000000000008410612b60576002938490049360ff600019830116900a91909101905b60001901612b1a565b505b6f05b9de1d10bf4103d647b0955897ba806f03f80fe03f80fe03f80fe03f80fe03f88202049392505050565b6000670168244fdac78000607f60020a6f0fffffffffffffffffffffffffffffff84168080028290048082028390048083028490049485026710e1b3be415a00009092026705a0913f6b1e000091909102010192909181830204905080664807432bc180000283019250607f60020a828202811515612c1257fe5b04905080660c0135dca040000283019250607f60020a828202811515612c3457fe5b049050806601b707b1cdc0000283019250607f60020a828202811515612c5657fe5b049050806536e0f639b8000283019250607f60020a828202811515612c7757fe5b04905080650618fee9f8000283019250607f60020a828202811515612c9857fe5b04905080649c197dcc000283019250607f60020a828202811515612cb857fe5b04905080640e30dce4000283019250607f60020a828202811515612cd857fe5b0490508064012ebd13000283019250607f60020a828202811515612cf857fe5b049050806317499f000283019250607f60020a828202811515612d1757fe5b049050806301a9d4800283019250607f60020a828202811515612d3657fe5b04905080621c63800283019250607f60020a828202811515612d5457fe5b049050806201c6380283019250607f60020a828202811515612d7257fe5b04905080611ab80283019250607f60020a828202811515612d8f57fe5b0490508061017c0283019250607f60020a828202811515612dac57fe5b0490508060140283019250607f60020a828202811515612dc857fe5b6721c3677c82b40000919004938401048201607f60020a019290506f10000000000000000000000000000000851615612e255770018ebef9eac820ae8682b9793ac6d1e7767001c3d6a24ed82218787d624d3e5eba95f984020492505b6f20000000000000000000000000000000851615612e67577001368b2fc6f9609fe7aceb46aa619baed470018ebef9eac820ae8682b9793ac6d1e77884020492505b6f40000000000000000000000000000000851615612ea8576fbc5ab1b16779be3575bd8f0520a9f21f7001368b2fc6f9609fe7aceb46aa619baed584020492505b607f60020a851615612edc576f454aaa8efe072e7f6ddbab84b40a55c96fbc5ab1b16779be3575bd8f0520a9f21e84020492505b700100000000000000000000000000000000851615612f1d576f0960aadc109e7a3bf4578099615711ea6f454aaa8efe072e7f6ddbab84b40a55c584020492505b700200000000000000000000000000000000851615612f5d576e2bf84208204f5977f9a8cf01fdce3d6f0960aadc109e7a3bf4578099615711d784020492505b700400000000000000000000000000000000851615612f9b576d03c6ab775dd0b95b4cbee7e65d116e2bf84208204f5977f9a8cf01fdc30784020492505b50909392505050565b60006020607f5b8060ff168260010160ff161015612ff3576000600260ff8484011604905084600260ff831660808110612fda57fe5b015410612fe957809250612fed565b8091505b50612fab565b83600260ff83166080811061300457fe5b01541061301457915061085e9050565b83600260ff84166080811061302557fe5b01541061025a5750905061085e565b60008083905060008090508360ff16858302908060020a82049150509150816f03442c4e6074a82f1797f72ac000000002810190508360ff16858302908060020a82049150509150816f0116b96f757c380fb287fd0e4000000002810190508360ff16858302908060020a82049150509150816e45ae5bdd5f0e03eca1ff439000000002810190508360ff16858302908060020a82049150509150816e0defabf91302cd95b9ffda5000000002810190508360ff16858302908060020a82049150509150816e02529ca9832b22439efff9b800000002810190508360ff16858302908060020a82049150509150816d54f1cf12bd04e516b6da8800000002810190508360ff16858302908060020a82049150509150816d0a9e39e257a09ca2d6db5100000002810190508360ff16858302908060020a82049150509150816d012e066e7b839fa050c30900000002810190508360ff16858302908060020a82049150509150816c1e33d7d926c329a1ad1a80000002810190508360ff16858302908060020a82049150509150816c02bee513bdb4a6b19b5f80000002810190508360ff16858302908060020a82049150509150816b3a9316fa79b88eccf2a0000002810190508360ff16858302908060020a82049150509150816b048177ebe1fa81237520000002810190508360ff16858302908060020a82049150509150816a5263fe90242dcbacf0000002810190508360ff16858302908060020a82049150509150816a057e22099c030d9410000002810190508360ff16858302908060020a82049150509150816957e22099c030d941000002810190508360ff16858302908060020a820491505091508169052b6b5456997631000002810190508360ff16858302908060020a8204915050915081684985f67696bf74800002810190508360ff16858302908060020a82049150509150816803dea12ea99e49800002810190508360ff16858302908060020a82049150509150816731880f2214b6e00002810190508360ff16858302908060020a820491505091508167025bcff56eb3600002810190508360ff16858302908060020a8204915050915081661b722e10ab100002810190508360ff16858302908060020a82049150509150816601317c7007700002810190508360ff16858302908060020a8204915050915081650cba84aafa0002810190508360ff16858302908060020a82049150509150816482573a0a0002810190508360ff16858302908060020a82049150509150816405035ad90002810190508360ff16858302908060020a8204915050915081632f881b0002810190508360ff16858302908060020a82049150509150816301b2934002810190508360ff16858302908060020a8204915050915081620efc4002810190508360ff16858302908060020a8204915050915081617fe002810190508360ff16858302908060020a820491505091508161042002810190508360ff16858302908060020a8204915050915081602102810190508360ff16858302908060020a8204915050915081600102810190508360ff1660019060020a02856f0688589cc0e9505e2f2fee5580000000838115156134ca57fe5b04010195945050505050565b600080610100831015613500575b60018311156134fb576002909204916001016134e4565b6119fa565b60805b60008160ff1611156135395760ff811660020a841061352c5760ff811660020a90930492908117905b600260ff90911604613503565b5092915050565b8280548282559060005260206000209081019282156135a0579160200282015b828111156135a057815473ffffffffffffffffffffffffffffffffffffffff1916600160a060020a03843516178255602090920191600190910190613560565b506135ac9291506135b0565b5090565b61132591905b808211156135ac57805473ffffffffffffffffffffffffffffffffffffffff191681556001016135b656fe4f6e6c7920476f7665726e6f722063616e2063616c6c2e000000000000000000546869732061646472657373206973206e6f74206120677261706820737562677261706820696e64657865722e2054686973206572726f722073686f756c64206e65766572206f636375722e08c379a000000000000000000000000000000000000000000000000000000000536166654d6174683a206d756c7469706c69636174696f6e206f766572666c6f77454950373132446f6d61696e28737472696e67206e616d652c737472696e672076657273696f6e2c75696e7432353620636861696e49642c6164647265737320766572696679696e67436f6e74726163742c627974657333322073616c74294174746573746174696f6e28497066734861736820726571756573744349442c497066734861736820726573706f6e73654349442c75696e7432353620676173557365642c75696e7432353620726573706f6e73654e756d4279746573294970667348617368286279746573333220686173682c75696e743136206861736846756e6374696f6e29a165627a7a72305820a150dc791b9e439cd24a33e631aed2d0a943f8976c926e9625c890dee7612b960029",
  "source": "pragma solidity ^0.5.2;\n\n/*\n * @title Staking contract\n *\n * @author Bryant Eisenbach\n * @author Reuven Etzion\n *\n * Curator Requirements\n * @req c01 Any User can stake Graph Tokens to be included as a Curator for a given subgraphId.\n * @req c02 The amount of tokens to stake required to become a Curator must be greater than or\n *          equal to the minimum curation staking amount.\n * @req c03 Only Governance can change the minimum curation staking amount.\n * @req c04 A Curator is issued shares according to a pre-defined bonding curve depending on\n *          equal to the total amount of Curation stake for a given subgraphId if they\n *          successfully stake on a given subgraphId.\n * @req c05 A Curator can add any amount of stake for a given subgraphId at any time, as long\n *          as their total amount remains more than minimumCurationStakingAmount.\n * @req c06 A Curator can remove any amount of their stake for a given subgraphId at any time,\n *          as long as their total amount remains more than minimumCurationStakingAmount.\n * @req c07 A Curator can remove all of their stake for a given subgraphId at any time.\n * @req c08 Curation shares accrue 1 basis point per share of any fees an Indexing Node would\n *          earn when a channel settlement occurs for a given subgraphId.\n *\n * Indexer Requirements\n * @req i01 Any User can stake Graph Tokens to be included as an Indexer for a given subgraphId.\n * @req i02 The amount of tokens to stake required to become an Indexer must be greater than or\n *          equal to the minimum indexing staking amount.\n * @req i03 Only Governance can change the minimum indexing staking amount.\n * @req i04 An Indexer can start the process of removing their stake for a given subgraphId at\n *          any time.\n * @req i05 An Indexer may withdraw their stake for a given subgraphId after the process has\n *          been started and a thawing period has elapsed.\n * @req i06 An Indexer can add any amount of stake for a given subgraphId at any time, as long\n *          as their total amount remains more than minimumIndexingStakingAmount.\n * @req i07 An Indexer earns a portion of all fees from the settlement a channel they were\n *          involved in.\n *\n * Slashing Requirements\n * @req s01 The Dispute Manager contract can burn the staked Tokens of any Indexer.\n * @req s02 Only Governance can change the Dispute Manager contract address.\n * @reg s03 Only Governance can update slashingPercent.\n *\n * Fisherman Requirements\n * @req f01 A fisherman can provide a bond, a valid read request and an invalid read\n *          response which has been signed by a current indexing node to create a\n *          dispute.\n * @req f02 If the dispute is accepted by arbitration, the fisherman should receive a\n *          reward proportional to the amount staked by the indexing node.\n *\n * Dispute Arbitrator Requirements\n * @req a01 The arbitrator can rule to accept a proposed dispute, which will trigger a\n *          slashing of the indexing node that the dispute concerns.\n * @req a02 The arbitrator can rule to reject a proposed dispute, which will slash the\n *          bond posted by the fisherman who proposed it.\n *\n * @notice Dispute resolution is handled through an on-chain dispute resolution\n *         process. In the v1 specification the outcome of a dispute will be decided\n *         by a centralized arbitrator (the contract owner / multisig contract)\n *         interacting with the on-chain dispute resolution process.\n *\n * ----------------------------------- TODO This may change -------------------------------------\n * @notice Indexing Nodes who have staked for a dataset, are not limited by the protocol in how\n *         many read requests they may process for that dataset. However, it may be assumed that\n *         Indexing Nodes with higher deposits will receive more read requests and thus collect\n *         more fees, all else being equal, as this represents a greater economic security margin\n *         to the end user.\n *\n */\n\n/*\n*/\n\nimport \"./GraphToken.sol\";\nimport \"./Governed.sol\";\nimport \"bytes/BytesLib.sol\";\nimport \"./bancor/BancorFormula.sol\";\n\ncontract Staking is Governed, TokenReceiver, BancorFormula\n{\n    using BytesLib for bytes;\n\n    /* Events */\n    event Deposit (\n        address indexed user,\n        uint256 amount\n    );\n\n    event Withdraw (\n        address indexed user,\n        uint256 amount\n    );\n\n    event CuratorStaked (\n        address indexed staker,\n        bytes32 subgraphID,\n        uint256 curatorShares,\n        uint256 subgraphTotalCurationShares,\n        uint256 subgraphTotalCurationStake\n    );\n\n    event CuratorLogout (\n        address indexed staker,\n        bytes32 subgraphID,\n        uint256 subgraphTotalCurationShares,\n        uint256 subgraphTotalCurationStake\n    );\n\n    event IndexingNodeStaked (\n        address indexed staker,\n        uint256 amountStaked,\n        bytes32 subgraphID,\n        uint256 subgraphTotalIndexingStake\n    );\n\n    event IndexingNodeBeginLogout (\n        address indexed staker,\n        bytes32 subgraphID,\n        uint256 unstakedAmount,\n        uint256 fees\n    );\n\n    event IndexingNodeFinalizeLogout (\n        address indexed staker,\n        bytes32 subgraphID\n    );\n\n\n    // @dev Dispute was created by fisherman\n    event DisputeCreated (\n        bytes32 indexed _subgraphId,\n        address indexed _indexingNode,\n        address indexed _fisherman,\n        bytes32 _disputeId,\n        bytes _attestation\n    );\n\n    // @dev Dispute was accepted, indexing node lost their stake\n    event DisputeAccepted (\n        bytes32 indexed _disputeId,\n        bytes32 indexed _subgraphId,\n        address indexed _indexingNode,\n        uint256 _amount\n    );\n\n    // @dev Dispute was rejected, fisherman lost the given bond amount\n    event DisputeRejected (\n        bytes32 indexed _disputeId,\n        bytes32 indexed _subgraphId,\n        address indexed _fisherman,\n        uint256 _amount\n    );\n\n    /* Structs */\n    struct Curator {\n        uint256 subgraphShares; // In subgraph factory pattern, Subgraph Token Balance\n    }\n\n    struct IndexingNode {\n        uint256 amountStaked;\n        uint256 feesAccrued;\n        uint256 logoutStarted;\n    }\n\n    struct Subgraph { // In subgraph factory pattern, these are just globals\n        uint256 reserveRatio;\n        uint256 totalCurationStake; // Reserve token\n        uint256 totalCurationShares; // In subgraph factory pattern, Subgraph Token total supply\n        uint256 totalIndexingStake;\n        uint256 totalIndexers;\n    }\n\n    // @dev Store IPFS hash as 32 byte hash and 2 byte hash function\n    struct IpfsHash {\n        bytes32 hash; // Note: Not future proof against IPFS planned updates to\n                      //       support multihash, which would require a len field\n        uint16 hashFunction; // 0x1220 is 'Qm', or SHA256 with 32 byte length\n    }\n\n    // @dev signed message sent from Indexing Node in response to a request\n    struct Attestation {\n        // Content Identifier for request message sent from user to indexing node\n        IpfsHash requestCID; // Note: Message is located at the given IPFS content addr\n        // Content Identifier for signed response message from indexing node\n        IpfsHash responseCID; // Note: Message is located at the given IPFS content addr\n        // Amount of computational account units (gas) used to process query\n        uint256 gasUsed;\n        // Amount of data sent in the response\n        uint256 responseNumBytes;\n        // ECDSA vrs signature (using secp256k1)\n        uint8 v;\n        bytes32 r;\n        bytes32 s;\n    }\n    uint256 private constant ATTESTATION_SIZE_BYTES = 197;\n\n    // EIP-712 constants\n    bytes32 private constant DOMAIN_TYPE_HASH = keccak256(\n        \"EIP712Domain(string name,string version,uint256 chainId,address verifyingContract,bytes32 salt)\"\n    );\n    bytes32 private constant ATTESTATION_TYPE_HASH = keccak256(\n        \"Attestation(IpfsHash requestCID,IpfsHash responseCID,uint256 gasUsed,uint256 responseNumBytes)IpfsHash(bytes32 hash,uint16 hashFunction)\"\n    );\n    bytes32 private constant DOMAIN_NAME_HASH = keccak256(\"Graph Protocol\");\n    bytes32 private constant DOMAIN_VERSION_HASH = keccak256(\"0.1\");\n\n    // TODO: EIP-1344 adds support for the Chain ID opcode\n    //       Use that instead\n    uint256 private constant CHAIN_ID = 1; // Mainnet\n\n    // @dev Disputes contain info neccessary for the arbitrator to verify and resolve\n    struct Dispute {\n        bytes32 subgraphId;\n        address indexingNode;\n        address fisherman;\n        uint256 depositAmount;\n    }\n\n    /* ENUMS */\n    enum TokenReceiptAction { Staking, Curation, Dispute, Settlement }\n\n    /* STATE VARIABLES */\n    // Minimum amount allowed to be staked by Market Curators\n    uint256 public minimumCurationStakingAmount;\n\n    // Default reserve ratio (for new subgraphs)\n    // Note: A subgraph that hasn't been curated yet sets it's reserve ratio to\n    //       this amount, which prevents changes from breaking the invariant. This\n    //       means that we cannot control active curation markets, only new ones.\n    // Note: In order to reset the reserveRatio of a subgraph to whatever this\n    //       number is updated to, the market must sell and buy-back all of it's\n    //       shares (taking advantage of the more attractive pricing). The trick\n    //       is to set this number conservatively at first, and narrow in on the\n    //       most optimal value, so that Curators are incentivized to perform this\n    //       \"upgrade\" against their shares.\n    // @dev Parts per million. (Allows for 4 decimal points, 999,999 = 99.9999%)\n    uint256 public defaultReserveRatio;\n\n    // Minimum amount allowed to be staked by Indexing Nodes\n    uint256 public minimumIndexingStakingAmount;\n\n    // Maximum number of Indexing Nodes staked higher than stake to consider\n    uint256 public maximumIndexers;\n\n    // Percent of stake to slash in successful dispute\n    // @dev Parts per million. (Allows for 4 decimal points, 999,999 = 99.9999%)\n    uint256 public slashingPercent;\n\n    // Amount of seconds to wait until indexer can finish stake logout\n    // @dev Thawing Period allows disputes to be processed during logout\n    uint256 public thawingPeriod;\n\n    // Mapping subgraphId to list of addresses to Curators\n    mapping (bytes32 => mapping (address => Curator)) public curators;\n\n    // Mapping subgraphId to list of addresses to Indexing Nodes\n    mapping (bytes32 => mapping (address => IndexingNode)) public indexingNodes;\n\n    // Mapping users to their standbyTokens (tokens deposited in the\n    // contract, but not yet staked\n    mapping (address => uint256) public standbyTokens;\n\n    // Mapping users to their thawing tokens (tokens not earning rewards, that are stuck until\n    // the thawing period is over\n    mapping (address => uint256) public thawingTokens;\n\n    // A dynamic array of index node addresses that bootstrap the graph subgraph\n    // Note: The graph subgraph bootstraps the network. It has no way to retrieve\n    //       the list of all indexers at the start of indexing. The indexingNodes\n    //       mapping can be retrieved for all other subgraphs, since they can\n    //       depend on the existing graph subgraph. Therefore, a single dynamic\n    //       array exists as its own variable graphIndexingNodeAddresses, along with the\n    //       graphSubgraphID public variable. The graphIndexing nodes are still stored\n    //       in indexingNodes, but with this array, and the graphSubgraphID as public\n    //       variables, the bootstrap indexing nodes can be retrieved without a subgraph.\n\n    // TODO - potentially implement a upper limit, say 100 indexers, for simplification\n    address[] public graphIndexingNodeAddresses;\n\n    // The graph subgraph ID\n    bytes32 public graphSubgraphID;\n\n    // Subgraphs mapping\n    mapping (bytes32 => Subgraph) public subgraphs;\n\n    // @dev Disputes created by the Fisherman or other authorized entites\n    // @key <bytes32> _disputeId - Hash of readIndex data + disputer data\n    mapping (bytes32 => Dispute) private disputes;\n\n    // The arbitrator is solely in control of arbitrating disputes\n    address public arbitrator;\n\n    // Graph Token address\n    GraphToken public token;\n\n    /* MODIFIERS */\n    // Disputes management only can be settled by arbitrator\n    modifier onlyArbitrator {\n        require(msg.sender == arbitrator);\n        _;\n    }\n\n    /* CONSTANTS */\n    // @dev 100% in parts per million.\n    uint256 private constant MAX_PPM = 1000000;\n\n    // @dev 1 basis point (0.01%) is 100 parts per million (PPM).\n    uint256 private constant BASIS_PT = 100;\n\n    /**\n     * @dev Staking Contract Constructor\n     * @param _governor <address> - Address of the multisig contract as Governor of this contract\n     * @param _token <address> - Address of the Graph Protocol token\n     */\n    constructor (\n        address _governor,\n        uint256 _minimumCurationStakingAmount,\n        uint256 _defaultReserveRatio,\n        uint256 _minimumIndexingStakingAmount,\n        uint256 _maximumIndexers,\n        uint256 _slashingPercent,\n        uint256 _thawingPeriod,\n        address _token\n    )\n        public\n        Governed(_governor)\n    {\n        // Governance Parameter Defaults\n        minimumCurationStakingAmount = _minimumCurationStakingAmount;  // @imp c03\n        defaultReserveRatio = _defaultReserveRatio;\n        minimumIndexingStakingAmount = _minimumIndexingStakingAmount;  // @imp i03\n        maximumIndexers = _maximumIndexers;\n        slashingPercent = _slashingPercent;\n        thawingPeriod = _thawingPeriod;\n        arbitrator = governor;\n        token = GraphToken(_token); // Question - do we need a function to upgrade this?\n    }\n\n    /**\n     * @dev Set the Minimum Staking Amount for Market Curators\n     * @param _minimumCurationStakingAmount <uint256> - Minimum amount allowed to be staked\n     * for Curation\n     */\n    function setMinimumCurationStakingAmount (\n        uint256 _minimumCurationStakingAmount\n    )\n        external\n        onlyGovernance\n        returns (bool success)\n    {\n        minimumCurationStakingAmount = _minimumCurationStakingAmount;  // @imp c03\n        return true;\n    }\n\n    /**\n     * @dev Set the percent that the default reserve ratio is for new subgraphs\n     * @param _defaultReserveRatio <uint256> - Reserve ratio (in percent)\n     */\n    function updateDefaultReserveRatio (\n        uint256 _defaultReserveRatio\n    )\n        external\n        onlyGovernance\n        returns (bool success)\n    {\n        // Reserve Ratio must be within 0% to 100% (exclusive)\n        require(_defaultReserveRatio > 0);\n        require(_defaultReserveRatio <= MAX_PPM);\n        defaultReserveRatio = _defaultReserveRatio;\n        return true;\n    }\n\n    /**\n     * @dev Set the Minimum Staking Amount for Indexing Nodes\n     * @param _minimumIndexingStakingAmount <uint256> - Minimum amount allowed to be staked\n     * for Indexing Nodes\n     */\n    function setMinimumIndexingStakingAmount (\n        uint256 _minimumIndexingStakingAmount\n    )\n        external\n        onlyGovernance\n        returns (bool success)\n    {\n        minimumIndexingStakingAmount = _minimumIndexingStakingAmount;  // @imp i03\n        return true;\n    }\n\n    /**\n     * @dev Set the maximum number of Indexing Nodes\n     * @param _maximumIndexers <uint256> - Maximum number of Indexing Nodes allowed\n     */\n    function setMaximumIndexers (\n        uint256 _maximumIndexers\n    )\n        external\n        onlyGovernance\n        returns (bool success)\n    {\n        maximumIndexers = _maximumIndexers;\n        return true;\n    }\n\n    /**\n     * @dev Set the percent that the fisherman gets when slashing occurs\n     * @param _slashingPercent <uint256> - Slashing percent\n     */\n    function updateSlashingPercentage (\n        uint256 _slashingPercent\n    )\n        external\n        onlyGovernance\n        returns (bool success)\n    {\n        // Slashing Percent must be within 0% to 100% (inclusive)\n        require(_slashingPercent >= 0);\n        require(_slashingPercent <= MAX_PPM);\n        slashingPercent = _slashingPercent;\n        return true;\n    }\n\n    /**\n     * @dev Set the thawing period for indexer logout\n     * @param _thawingPeriod <uint256> - Number of seconds for thawing period\n     */\n    function updateThawingPeriod (\n        uint256 _thawingPeriod\n    )\n        external\n        onlyGovernance\n        returns (bool success)\n    {\n        thawingPeriod = _thawingPeriod;\n        return true;\n    }\n\n    /**\n     * @dev Set the arbitrator address\n     * @param _arbitrator <address> - The address of the arbitration contract or party\n     */\n    function setArbitrator (\n        address _arbitrator\n    )\n        external\n        onlyGovernance\n        returns (bool success)\n    {\n        arbitrator = _arbitrator;\n        return true;\n    }\n\n    /**\n     * @dev Set the graph subgraph ID\n     * @param _subgraphID <bytes32> - The subgraph ID of the bootstrapping subgraph ID\n     * @param _newIndexers <Array<address>> - Array of new indexers that have coordinated outside\n     *        of the protocol, and pre-index the new subgraph before the switch happens\n     */\n    function setGraphSubgraphID (\n        bytes32 _subgraphID,\n        address[] calldata _newIndexers\n    )\n        external\n        onlyGovernance\n        returns (bool success)\n    {\n        graphSubgraphID = _subgraphID;\n        graphIndexingNodeAddresses = _newIndexers;\n        return true;\n    }\n\n    /**\n     * @dev Get the number of graph indexing nodes in the dynamic array\n     */\n    function numberOfGraphIndexingNodeAddresses() public view returns (uint count) {\n        return graphIndexingNodeAddresses.length;\n    }\n\n    /**\n     * @dev Accept tokens into standby pool\n     * @param _from <address> - Token holder's address\n     * @param _value <uint256> - Amount of Graph Tokens\n     */\n    function tokensReceived (\n        address _from,\n        uint256 _value\n    )\n        external\n        returns (bool success)\n    {\n        // Make sure the token is the caller of this function\n        require(msg.sender == address(token));\n        standbyTokens[_from] += _value;\n        success = true;\n\n        emit Deposit(_from, _value);\n    }\n\n\n    /**\n     * @dev Handle staking registration functions\n     * @param _value <uint256> - Amount of Graph Tokens\n     * @param _data <bytes> - Data to parse and handle registration functions\n     */\n    function stake (\n        uint256 _value,\n        bytes calldata _data\n    )\n        external\n        returns (bool success)\n    {\n        // Process _data to figure out the action to take (and which subgraph is involved)\n        require(_data.length >= 1+32); // Must be at least 33 bytes (Header)\n        TokenReceiptAction option = TokenReceiptAction(_data.slice(0, 1).toUint8(0));\n        bytes32 _subgraphId = _data.slice(1, 32).toBytes32(0); // In subgraph factory, not necessary\n\n        if (option == TokenReceiptAction.Staking) {\n            stakeGraphTokensForIndexing(_subgraphId, msg.sender, _value);\n        } else\n            if (option == TokenReceiptAction.Curation) {\n                // @imp c01 Handle internal call for Curation Staking\n                stakeGraphTokensForCuration(_subgraphId, msg.sender, _value);\n            } else\n                if (option == TokenReceiptAction.Dispute) {\n                    require(_data.length == 33 + ATTESTATION_SIZE_BYTES);\n                    bytes memory _attestation = _data.slice(33, ATTESTATION_SIZE_BYTES);\n                    // Inner call to createDispute\n                    createDispute(_attestation, _subgraphId, msg.sender, _value);\n                } else\n                    if (option == TokenReceiptAction.Settlement) {\n                        require(_data.length >= 33 + 20); // Header + _indexingNode\n                        address _indexingNode = _data.slice(65, 20).toAddress(0);\n                        distributeChannelFees(_subgraphId, _indexingNode, _value);\n                    } else {\n                        revert();\n                    }\n        success = true;\n    }\n\n\n    /**\n     * @dev Withdraw tokens from standby pool\n     * @param _value <uint256> - Amount of Graph Tokens\n     */\n    function tokensWithdrawn (\n        uint256 _value\n    )\n        external\n        returns (bool success)\n    {\n        require(standbyTokens[msg.sender] >= _value);\n        standbyTokens[msg.sender] -= _value;\n        success = true;\n\n        // Return the tokens to the curator\n        assert(token.transfer(msg.sender, _value));\n\n        emit Withdraw(msg.sender, _value);\n    }\n\n    /**\n     * @dev Calculate number of shares that should be issued in return for\n     *      staking of _purchaseAmount of tokens, along the given bonding curve\n     * @param _purchaseTokens <uint256> - Amount of tokens being staked (purchase amount)\n     * @param _currentTokens <uint256> - Total amount of tokens currently in reserves\n     * @param _currentShares <uint256> - Total amount of current shares issued\n     * @param _reserveRatio <uint256> - Desired reserve ratio to maintain (in PPM)\n     * @return issuedShares <uint256> - Amount of additional shares issued given the above\n     */\n    function stakeToShares (\n        uint256 _purchaseTokens,\n        uint256 _currentTokens,\n        uint256 _currentShares,\n        uint256 _reserveRatio\n    )\n        public\n        view\n        returns (uint256 issuedShares)\n    {\n        issuedShares = calculatePurchaseReturn(\n            _currentShares,\n            _currentTokens,\n            uint32(_reserveRatio),\n            _purchaseTokens\n        );\n    }\n\n    /**\n     * @dev Calculate number of tokens that should be returned for the proportion\n     *      of _returnedShares to _currentShares, along the given bonding curve\n     * @param _returnedShares <uint256> - Amount of shares being returned\n     * @param _currentTokens <uint256> - Total amount of tokens currently in reserves\n     * @param _currentShares <uint256> - Total amount of current shares issued\n     * @param _reserveRatio <uint256> - Desired reserve ratio to maintain (in PPM)\n     * @return refundTokens <uint256> - Amount of tokens to return given the above\n     */\n    function sharesToStake (\n        uint256 _returnedShares,\n        uint256 _currentTokens,\n        uint256 _currentShares,\n        uint256 _reserveRatio\n    )\n        public\n        view\n        returns (uint256 refundTokens)\n    {\n        refundTokens = calculateSaleReturn(\n            _currentShares,\n            _currentTokens,\n            uint32(_reserveRatio),\n            _returnedShares\n        );\n    }\n\n    /**\n     * @dev Stake Graph Tokens for Market Curation by subgraphId\n     * @param _subgraphId <bytes32> - Subgraph ID the Curator is staking Graph Tokens for\n     * @param _curator <address> - Address of Staking party\n     * @param _tokenAmount <uint256> - Amount of Graph Tokens to be staked\n     */\n    function stakeGraphTokensForCuration (\n        bytes32 _subgraphId,\n        address _curator,\n        uint256 _tokenAmount\n    )\n        private\n    {\n        // Overflow protection\n        require(subgraphs[_subgraphId].totalCurationStake + _tokenAmount > subgraphs[_subgraphId].totalCurationStake);\n        uint256 tokenAmount = _tokenAmount;\n        // If this subgraph hasn't been curated before...\n        // NOTE: We have to do this to initialize the curve or else it has\n        //       a discontinuity and cannot be computed. This method ensures\n        //       that this doesn't occur, and also sets the initial slope for\n        //       the curve (controlled by minimumCurationStake)\n        if (subgraphs[_subgraphId].totalCurationStake == 0) {\n\n            // Additional pre-condition check\n            require(tokenAmount >= minimumCurationStakingAmount);\n\n            // (Re)set the default reserve ratio to whatever governance has set\n            subgraphs[_subgraphId].reserveRatio = defaultReserveRatio;\n\n            // The first share costs minimumCurationStake amount of tokens\n            curators[_subgraphId][_curator].subgraphShares = 1;\n            subgraphs[_subgraphId].totalCurationShares = 1;\n            subgraphs[_subgraphId].totalCurationStake = minimumCurationStakingAmount;\n            tokenAmount -= minimumCurationStakingAmount;\n        }\n\n        if (tokenAmount > 0) { // Corner case if only minimum is staked on first stake\n            // Obtain the amount of shares to buy with the amount of tokens to sell\n            // according to the bonding curve\n            uint256 _newShares = stakeToShares(\n                tokenAmount,\n                subgraphs[_subgraphId].totalCurationStake,\n                subgraphs[_subgraphId].totalCurationShares,\n                subgraphs[_subgraphId].reserveRatio\n            );\n\n            // Update the amount of tokens _curator has, and overall amount staked\n            subgraphs[_subgraphId].totalCurationStake += tokenAmount;\n\n            // Update the amount of shares issued to _curator, and total amount issued\n            curators[_subgraphId][_curator].subgraphShares += _newShares;\n            subgraphs[_subgraphId].totalCurationShares += _newShares;\n\n            // Decrease standby tokens now that signaling has occured for curation\n            standbyTokens[_curator] -= _tokenAmount;\n\n            // Ensure curators cannot stake more than 100% in basis points\n            // Note: ensures that distributeChannelFees() does not revert\n            require(subgraphs[_subgraphId].totalCurationShares <= (MAX_PPM / BASIS_PT));\n        }\n\n        // Emit the CuratorStaked event (updating the running tally)\n        emit CuratorStaked(\n            _curator,\n            _subgraphId,\n            curators[_subgraphId][_curator].subgraphShares,\n            subgraphs[_subgraphId].totalCurationShares,\n            subgraphs[_subgraphId].totalCurationStake)\n        ;\n    }\n\n    /**\n     * @dev Return any amount of shares to get tokens back (above the minimum)\n     * @param _subgraphId <bytes32> - Subgraph ID the Curator is returning shares for\n     * @param _numShares <uint256> - Amount of shares to return\n     */\n    function curatorLogout (\n        bytes32 _subgraphId,\n        uint256 _numShares\n    )\n        external\n    {\n        // Underflow protection\n        require(curators[_subgraphId][msg.sender].subgraphShares >= _numShares);\n\n        // Obtain the amount of tokens to refunded with the amount of shares returned\n        // according to the bonding curve\n        uint256 _tokenRefund = sharesToStake(\n            _numShares,\n            subgraphs[_subgraphId].totalCurationStake,\n            subgraphs[_subgraphId].totalCurationShares,\n            subgraphs[_subgraphId].reserveRatio\n        );\n\n        // Keep track of whether this is a full logout\n        bool fullLogout = (curators[_subgraphId][msg.sender].subgraphShares == _numShares);\n\n        // Update the amount of tokens Curator has, and overall amount staked\n        subgraphs[_subgraphId].totalCurationStake -= _tokenRefund;\n\n        // Update the amount of shares Curator has, and overall amount of shares\n        curators[_subgraphId][msg.sender].subgraphShares -= _numShares;\n        subgraphs[_subgraphId].totalCurationShares -= _numShares;\n\n       // Increase standbyTokens to be able to withdraw\n        standbyTokens[msg.sender] += _tokenRefund;\n\n    if (fullLogout) {\n        // Emit the CuratorLogout event\n            emit CuratorLogout(\n                msg.sender,\n                _subgraphId,\n                subgraphs[_subgraphId].totalCurationShares,\n                subgraphs[_subgraphId].totalCurationStake\n            );\n        } else {\n            // Emit the CuratorStaked event (updating the running tally)\n            emit CuratorStaked(\n                msg.sender,\n                _subgraphId,\n                curators[_subgraphId][msg.sender].subgraphShares,\n                subgraphs[_subgraphId].totalCurationShares,\n                subgraphs[_subgraphId].totalCurationStake\n            );\n        }\n    }\n\n    /**\n     * @dev Stake Graph Tokens for Indexing Node data retrieval by subgraphId\n     * @param _subgraphId <bytes32> - Subgraph ID the Indexing Node is staking Graph Tokens for\n     * @param _indexer <address> - Address of Staking party\n     * @param _value <uint256> - Amount of Graph Tokens to be staked\n     */\n    function stakeGraphTokensForIndexing (\n        bytes32 _subgraphId,\n        address _indexer,\n        uint256 _value\n    )\n        private\n    {\n        // If we are dealing with the graph subgraph bootstrap index nodes\n        if (_subgraphId == graphSubgraphID) {\n            (bool found, ) = findGraphIndexerIndex(_indexer);\n            // If the user was never found, we must push them into the array\n            if (found == false){\n                graphIndexingNodeAddresses.push(_indexer);\n            }\n        }\n        require(indexingNodes[_subgraphId][msg.sender].logoutStarted == 0);\n        require(indexingNodes[_subgraphId][_indexer].amountStaked + _value >= minimumIndexingStakingAmount); // @imp i02\n        if (indexingNodes[_subgraphId][_indexer].amountStaked == 0)\n            subgraphs[_subgraphId].totalIndexers += 1; // has not staked before\n        indexingNodes[_subgraphId][_indexer].amountStaked += _value;\n        subgraphs[_subgraphId].totalIndexingStake += _value;\n\n        // Decrease standby tokens now that user has staked for indexing\n        standbyTokens[_indexer] -= _value;\n\n        emit IndexingNodeStaked(\n            _indexer,\n            indexingNodes[_subgraphId][_indexer].amountStaked,\n            _subgraphId,\n            subgraphs[_subgraphId].totalIndexingStake\n        );\n\n    }\n\n    /**\n     * @dev Indexing node can start logout process\n     * @param _subgraphId <bytes32> - Subgraph ID the Indexing Node has staked Graph Tokens for\n     */\n    function beginLogout(bytes32 _subgraphId)\n        external\n    {\n        require(indexingNodes[_subgraphId][msg.sender].amountStaked > 0);\n        require(indexingNodes[_subgraphId][msg.sender].logoutStarted == 0);\n        indexingNodes[_subgraphId][msg.sender].logoutStarted = block.timestamp;\n\n        // Return the amount the Indexing Node has staked\n        uint256 _stake = indexingNodes[_subgraphId][msg.sender].amountStaked;\n        indexingNodes[_subgraphId][msg.sender].amountStaked = 0;\n        // Return any outstanding fees accrued the Indexing Node does not have yet\n        uint256 _fees = indexingNodes[_subgraphId][msg.sender].feesAccrued;\n        indexingNodes[_subgraphId][msg.sender].feesAccrued = 0;\n        // If we are dealing with the graph subgraph bootstrap index nodes\n        if (_subgraphId == graphSubgraphID) {\n            (bool found, uint256 userIndex) = findGraphIndexerIndex(msg.sender);\n            require(found != false, \"This address is not a graph subgraph indexer. This error should never occur.\");\n            delete graphIndexingNodeAddresses[userIndex];\n        }\n        // Decrement the total amount staked by the amount being returned\n        subgraphs[_subgraphId].totalIndexingStake -= _stake;\n\n        // Increase thawingTokens to begin thawing\n        thawingTokens[msg.sender] += (_stake + _fees);\n\n        emit IndexingNodeBeginLogout(msg.sender, _subgraphId, _stake, _fees);\n    }\n\n    /**\n     * @dev Indexing node can finish the logout process after a thawing off period\n     * @param _subgraphId <bytes32> - Subgraph ID the Indexing Node has staked Graph Tokens for\n     */\n    function finalizeLogout(bytes32 _subgraphId)\n        external\n    {\n        require(indexingNodes[_subgraphId][msg.sender].logoutStarted + thawingPeriod <= block.timestamp);\n\n        // Reset the timestamp\n        delete indexingNodes[_subgraphId][msg.sender];\n\n        // Remove an indexer from the subgraph\n        subgraphs[_subgraphId].totalIndexers -= 1;\n\n        uint256 _amount = thawingTokens[msg.sender];\n        delete thawingTokens[msg.sender];\n\n        // Increase standbyTokens to be able to withdraw\n        standbyTokens[msg.sender] += _amount;\n\n        emit IndexingNodeFinalizeLogout(\n                msg.sender,\n                _subgraphId\n        );\n    }\n\n    /**\n     * @dev Get the amount of fisherman reward for a given amount of stake\n     * @param _value <uint256> - Amount of validator's stake\n     * @return <uint256> - Percentage of validator's stake to be considered a reward\n     */\n    function getRewardForValue(\n        uint256 _value\n    )\n        public\n        view\n        returns (uint256)\n    {\n        return slashingPercent * _value / MAX_PPM; // slashingPercent is in PPM\n    }\n\n    /**\n     * @dev Create a dispute for the arbitrator to resolve\n     * @param _attestation <Attestation> - Signed Attestation message\n     * @param _subgraphId <bytes32> - SubgraphId that Attestation message\n     *                                contains (in request raw object at CID)\n     * @param _fisherman <address> - Creator of dispute\n     * @param _amount <uint256> - Amount of tokens staked\n     * @notice Payable using Graph Tokens for deposit\n     */\n    function createDispute (\n        bytes memory _attestation,\n        bytes32 _subgraphId,\n        address _fisherman,\n        uint256 _amount\n    )\n        private\n    {\n        // Obtain the hash of the fully-encoded message, per EIP-712 encoding\n        bytes32 _disputeId = keccak256(abi.encode(\n            // HACK: Remove this line until eth_signTypedData is in common use\n            //\"\\x19\\x01\", // EIP-191 encoding pad, EIP-712 version 1\n            \"\\x19Ethereum Signed Message:\\n\", 64, // 64 bytes (2 hashes)\n            // END HACK\n            keccak256(abi.encode( // EIP 712 domain separator\n                    DOMAIN_TYPE_HASH,\n                    DOMAIN_NAME_HASH,\n                    DOMAIN_VERSION_HASH,\n                    CHAIN_ID, // (Change to block.chain_id after EIP-1344 support)\n                    this, // contract address\n                    // Application-specific domain separator\n                    // Ensures msgs for different subgraphs cannot be reused\n                    // Note: Not necessary when subgraphs are factory pattern because of contract address\n                    _subgraphId // EIP-712 Salt\n            )),\n            keccak256(abi.encode( // EIP 712-encoded message hash\n                    ATTESTATION_TYPE_HASH,\n                    _attestation.slice(0, ATTESTATION_SIZE_BYTES-65) // Everything except the signature\n            ))\n        ));\n\n        // Decode the signature\n        (uint8 v, bytes32 r, bytes32 s) = abi.decode( // VRS signature components\n                _attestation.slice(ATTESTATION_SIZE_BYTES-65, 65), // just the signature\n                (uint8, bytes32, bytes32) // V, R, and S\n            );\n\n        // Obtain the signer of the fully-encoded EIP-712 message hash\n        // Note: The signer of the attestation is the indexing node that served it\n        address _indexingNode = ecrecover(_disputeId, v, r, s);\n\n        uint256 _stake = indexingNodes[_subgraphId][_indexingNode].amountStaked;\n        require(_stake > 0); // This also validates that _indexingNode exists\n\n        // Ensure that fisherman has posted at least that amount\n        require(_amount >= getRewardForValue(_stake));\n        // NOTE: There is a potential for a front-running attack against a fisherman\n        //       by the indexing node if this were strictly equal to the amount of\n        //       reward that the fisherman were to expect. As a partial mitigation for\n        //       this, the fisherman can over-stake their bond. For every X amount that\n        //       the fisherman overstakes by, the staker would have to also up their\n        //       stake by the same proportion, and due to the reward being slasingPercent\n        //       of the total stake already, the amount the indexing node would have to\n        //       up their stake by would be a significant multiple of this increase.\n        //\n        //       As an example, if slashingPercent were 10%, and the indexer had staked\n        //       100 tokens, the minimum the fisherman would be required to stake is 10\n        //       tokens. If the fisherman staked 20 tokens instead on their dispute, the\n        //       indexing node would have to stake more than 100 tokens extra to front-\n        //       run their dispute and cancel it before it is created. This is a safety\n        //       factor of 10x for the fisherman. The smaller slashingPercent is, the\n        //       larger the multiple would be.\n        //\n        //       Due to this mechanic, this partial mitigation may be enough to defend\n        //       against this in practice until a better design is contructed that takes\n        //       this into account.\n\n        // A fisherman can only open one dispute with a given indexing node\n        // per subgraphId at a time\n        require(disputes[_disputeId].fisherman == address(0)); // Must be empty\n\n        // Store dispute\n        disputes[_disputeId] = Dispute(_subgraphId, _indexingNode, _fisherman, _amount);\n\n        // Decrease standbyTokens, since they are now within a dispute\n        standbyTokens[msg.sender] -= _amount;\n\n        // Log event that new dispute was created against _indexingNode\n        emit DisputeCreated(_subgraphId, _indexingNode, _fisherman, _disputeId, _attestation);\n    }\n\n    /**\n     * @dev The arbitrator can verify a dispute as being valid.\n     * @param _disputeId <bytes32> - ID of the dispute to be verified\n     */\n    function verifyDispute (\n        bytes32 _disputeId\n    )\n        external\n        onlyArbitrator\n        returns (bool success)\n    {\n        // Input validation, read storage for later (when deleted)\n        uint256 _bond = disputes[_disputeId].depositAmount;\n        require(_bond > 0); // Ensure this is a valid dispute\n        address _fisherman = disputes[_disputeId].fisherman;\n        address _indexer = disputes[_disputeId].indexingNode;\n        bytes32 _subgraphId = disputes[_disputeId].subgraphId;\n        delete disputes[_disputeId]; // Re-entrancy protection\n\n        // Have staking slash the index node and reward the fisherman\n        // Give the fisherman a reward equal to the slashingPercent of the indexer's stake\n        uint256 _stake = indexingNodes[_subgraphId][_indexer].amountStaked;\n        uint256 _fees = indexingNodes[_subgraphId][_indexer].feesAccrued;\n        delete indexingNodes[_subgraphId][_indexer]; // Re-entrancy protection\n        assert(_stake > 0); // Ensure this is a valid staker (should always be true)\n        uint256 _reward = getRewardForValue(_stake);\n        assert(_reward <= _stake); // sanity check on fixed-point math\n\n        if (_subgraphId == graphSubgraphID) {\n            (bool found, uint256 userIndex) = findGraphIndexerIndex(_indexer);\n            require(found != false, \"This address is not a graph subgraph indexer. This error should never occur.\");\n            delete graphIndexingNodeAddresses[userIndex]; // Re-entrancy protection\n        }\n\n        // Remove Indexing Node from Subgraph's stakers\n        subgraphs[_subgraphId].totalIndexingStake -= _stake;\n        subgraphs[_subgraphId].totalIndexers -= 1;\n        emit IndexingNodeBeginLogout(_indexer, _subgraphId, _stake, _fees);\n        emit IndexingNodeFinalizeLogout(_indexer, _subgraphId);\n\n        // Give governance the difference between the fisherman's reward and the total stake\n        // plus the Indexing Node's accrued fees\n        standbyTokens[governor] += (_stake - _reward + _fees); // TODO Burn or give to governance?\n\n        // Give the fisherman their reward and bond back in stand by tokens\n        standbyTokens[_fisherman] += (_reward + _bond);\n\n        // Log event that we awarded _fisherman _reward in resolving _disputeId\n        emit DisputeAccepted(_disputeId, _subgraphId, _indexer, _reward);\n        success = true;\n    }\n\n    /**\n     * @dev The arbitrator can reject a dispute as being invalid.\n     * @param _disputeId <bytes32> - ID of the dispute to be rejected\n     */\n    function rejectDispute (\n        bytes32 _disputeId\n    )\n        external\n        onlyArbitrator\n        returns (bool success)\n    {\n        // Input validation, read storage for later (when deleted)\n        uint256 _bond = disputes[_disputeId].depositAmount;\n        require(_bond > 0); // Ensure this is a valid dispute\n        address _fisherman = disputes[_disputeId].fisherman;\n        bytes32 _subgraphId = disputes[_disputeId].subgraphId;\n        delete disputes[_disputeId]; // Re-entrancy protection\n\n        // Slash the fisherman's bond and send to the governor\n        standbyTokens[governor] += _bond; // TODO Burn or give to governance?\n\n        // Log event that we slashed _fisherman for _bond in resolving _disputeId\n        emit DisputeRejected(_disputeId, _subgraphId, _fisherman, _bond);\n        success = true;\n    }\n\n    /**\n     * @dev Distribute the channel fees to the given Indexing Node and all the Curators\n     *      for that subgraph. Curator fees are applied through reserve balance increase\n     *      so every Curator logout will earn back more coins back per share, and shares\n     *      cost more to buy.\n     * @param _subgraphId <bytes32> - Subgraph that the fees were accrued for.\n     * @param _indexingNode <address> - Indexing Node that earned the fees.\n     * @param _feesEarned <uint256> - Total amount of fees earned.\n     */\n    function distributeChannelFees (\n        bytes32 _subgraphId,\n        address _indexingNode, // TODO DK - https://github.com/graphprotocol/contracts/issues/124, talk to Jorge about this\n        uint256 _feesEarned\n    )\n        private\n    {\n        // Each share minted gives basis point (0.01%) of the fee collected in that subgraph.\n        uint256 _curatorRewardBasisPts = subgraphs[_subgraphId].totalCurationShares * BASIS_PT;\n        assert(_curatorRewardBasisPts < MAX_PPM); // should be less than 100%\n        uint256 _curatorPortion = (_curatorRewardBasisPts * _feesEarned) / MAX_PPM;\n        // Give the indexing node their part of the fees\n        indexingNodes[_subgraphId][msg.sender].feesAccrued += (_feesEarned - _curatorPortion);\n        // Increase the token balance for the subgraph (each share gets more tokens when sold)\n        subgraphs[_subgraphId].totalCurationStake += _curatorPortion;\n    }\n\n    /**\n     * @dev The Indexing Node can get all of their accrued fees for a subgraph at once.\n     *      Indexing Node would be able to log out all the fees they earned during a dispute.\n     * @param _subgraphId <bytes32> - Subgraph the Indexing Node wishes to withdraw for.\n     */\n    function unlockFees (\n        bytes32 _subgraphId\n    )\n        external\n    {\n        uint256 _feesAccrued;\n        _feesAccrued = indexingNodes[_subgraphId][msg.sender].feesAccrued;\n        require(_feesAccrued > 0);\n        indexingNodes[_subgraphId][msg.sender].feesAccrued = 0; // Re-entrancy protection\n        standbyTokens[msg.sender] += _feesAccrued;\n    }\n\n    /**\n     * @dev A function to help find the location of the indexer in the dynamic array. Note that\n            it must return a bool if the value was found, because an index of 0 can be literally the\n            index of 0, or else it refers to an address that was not found.\n     * @param _indexer <address> - The address of the indexer to look up.\n    */\n    function findGraphIndexerIndex (address _indexer)\n        private\n        view\n        returns\n        (bool found, uint256 userIndex)  {\n        // We must find the indexers location in the array first\n        for (uint256 i; i < graphIndexingNodeAddresses.length; i++){\n            if (graphIndexingNodeAddresses[i] == _indexer){\n                userIndex = i;\n                found = true;\n                break;\n            }\n        }\n    }\n}\n",
  "sourcePath": "/Users/davidkajpust/coding-no-icloud-backup/thegraph/dave/contracts/contracts/Staking.sol",
  "compiler": {
    "name": "solc",
    "version": "0.5.2+commit.1df8f40c.Emscripten.clang"
  },
  "schemaVersion": "3.0.10",
  "updatedAt": "2019-08-29T17:48:47.768Z",
  "devdoc": {
    "methods": {
      "beginLogout(bytes32)": {
        "details": "Indexing node can start logout process",
        "params": {
          "_subgraphId": "<bytes32> - Subgraph ID the Indexing Node has staked Graph Tokens for"
        }
      },
      "constructor": {
        "details": "Staking Contract Constructor",
        "params": {
          "_governor": "<address> - Address of the multisig contract as Governor of this contract",
          "_token": "<address> - Address of the Graph Protocol token"
        }
      },
      "curatorLogout(bytes32,uint256)": {
        "details": "Return any amount of shares to get tokens back (above the minimum)",
        "params": {
          "_numShares": "<uint256> - Amount of shares to return",
          "_subgraphId": "<bytes32> - Subgraph ID the Curator is returning shares for"
        }
      },
      "finalizeLogout(bytes32)": {
        "details": "Indexing node can finish the logout process after a thawing off period",
        "params": {
          "_subgraphId": "<bytes32> - Subgraph ID the Indexing Node has staked Graph Tokens for"
        }
      },
      "getRewardForValue(uint256)": {
        "details": "Get the amount of fisherman reward for a given amount of stake",
        "params": {
          "_value": "<uint256> - Amount of validator's stake"
        },
        "return": "<uint256> - Percentage of validator's stake to be considered a reward"
      },
      "numberOfGraphIndexingNodeAddresses()": {
        "details": "Get the number of graph indexing nodes in the dynamic array"
      },
      "rejectDispute(bytes32)": {
        "details": "The arbitrator can reject a dispute as being invalid.",
        "params": {
          "_disputeId": "<bytes32> - ID of the dispute to be rejected"
        }
      },
      "setArbitrator(address)": {
        "details": "Set the arbitrator address",
        "params": {
          "_arbitrator": "<address> - The address of the arbitration contract or party"
        }
      },
      "setGraphSubgraphID(bytes32,address[])": {
        "details": "Set the graph subgraph ID",
        "params": {
          "_newIndexers": "<Array<address>> - Array of new indexers that have coordinated outside       of the protocol, and pre-index the new subgraph before the switch happens",
          "_subgraphID": "<bytes32> - The subgraph ID of the bootstrapping subgraph ID"
        }
      },
      "setMaximumIndexers(uint256)": {
        "details": "Set the maximum number of Indexing Nodes",
        "params": {
          "_maximumIndexers": "<uint256> - Maximum number of Indexing Nodes allowed"
        }
      },
      "setMinimumCurationStakingAmount(uint256)": {
        "details": "Set the Minimum Staking Amount for Market Curators",
        "params": {
          "_minimumCurationStakingAmount": "<uint256> - Minimum amount allowed to be staked for Curation"
        }
      },
      "setMinimumIndexingStakingAmount(uint256)": {
        "details": "Set the Minimum Staking Amount for Indexing Nodes",
        "params": {
          "_minimumIndexingStakingAmount": "<uint256> - Minimum amount allowed to be staked for Indexing Nodes"
        }
      },
      "sharesToStake(uint256,uint256,uint256,uint256)": {
        "details": "Calculate number of tokens that should be returned for the proportion     of _returnedShares to _currentShares, along the given bonding curve",
        "params": {
          "_currentShares": "<uint256> - Total amount of current shares issued",
          "_currentTokens": "<uint256> - Total amount of tokens currently in reserves",
          "_reserveRatio": "<uint256> - Desired reserve ratio to maintain (in PPM)",
          "_returnedShares": "<uint256> - Amount of shares being returned"
        },
        "return": "refundTokens <uint256> - Amount of tokens to return given the above"
      },
      "stake(uint256,bytes)": {
        "details": "Handle staking registration functions",
        "params": {
          "_data": "<bytes> - Data to parse and handle registration functions",
          "_value": "<uint256> - Amount of Graph Tokens"
        }
      },
      "stakeToShares(uint256,uint256,uint256,uint256)": {
        "details": "Calculate number of shares that should be issued in return for     staking of _purchaseAmount of tokens, along the given bonding curve",
        "params": {
          "_currentShares": "<uint256> - Total amount of current shares issued",
          "_currentTokens": "<uint256> - Total amount of tokens currently in reserves",
          "_purchaseTokens": "<uint256> - Amount of tokens being staked (purchase amount)",
          "_reserveRatio": "<uint256> - Desired reserve ratio to maintain (in PPM)"
        },
        "return": "issuedShares <uint256> - Amount of additional shares issued given the above"
      },
      "tokensReceived(address,uint256)": {
        "details": "Accept tokens into standby pool",
        "params": {
          "_from": "<address> - Token holder's address",
          "_value": "<uint256> - Amount of Graph Tokens"
        }
      },
      "tokensWithdrawn(uint256)": {
        "details": "Withdraw tokens from standby pool",
        "params": {
          "_value": "<uint256> - Amount of Graph Tokens"
        }
      },
      "transferGovernance(address)": {
        "details": "The current `governor` can assign a new `governor`",
        "params": {
          "_newGovernor": "<address> Address of new `governor`"
        }
      },
      "unlockFees(bytes32)": {
        "details": "The Indexing Node can get all of their accrued fees for a subgraph at once.     Indexing Node would be able to log out all the fees they earned during a dispute.",
        "params": {
          "_subgraphId": "<bytes32> - Subgraph the Indexing Node wishes to withdraw for."
        }
      },
      "updateDefaultReserveRatio(uint256)": {
        "details": "Set the percent that the default reserve ratio is for new subgraphs",
        "params": {
          "_defaultReserveRatio": "<uint256> - Reserve ratio (in percent)"
        }
      },
      "updateSlashingPercentage(uint256)": {
        "details": "Set the percent that the fisherman gets when slashing occurs",
        "params": {
          "_slashingPercent": "<uint256> - Slashing percent"
        }
      },
      "updateThawingPeriod(uint256)": {
        "details": "Set the thawing period for indexer logout",
        "params": {
          "_thawingPeriod": "<uint256> - Number of seconds for thawing period"
        }
      },
      "verifyDispute(bytes32)": {
        "details": "The arbitrator can verify a dispute as being valid.",
        "params": {
          "_disputeId": "<bytes32> - ID of the dispute to be verified"
        }
      }
    }
  },
  "userdoc": {
    "methods": {}
  }
}